{"src/contracts/Detract.sol":{"Detract":{"abi":[{"anonymous":false,"inputs":[{"indexed":true,"internalType":"bytes32","name":"paperHash","type":"bytes32"},{"indexed":true,"internalType":"address","name":"challenger","type":"address"},{"indexed":false,"internalType":"string","name":"paper","type":"string"},{"indexed":false,"internalType":"string","name":"evidence","type":"string"}],"name":"ChallengeCreated","type":"event"},{"anonymous":false,"inputs":[{"indexed":true,"internalType":"bytes32","name":"paperHash","type":"bytes32"},{"indexed":false,"internalType":"string","name":"paper","type":"string"},{"indexed":true,"internalType":"address","name":"challenger","type":"address"},{"indexed":false,"internalType":"uint256","name":"amount","type":"uint256"}],"name":"ClaimedByChallenger","type":"event"},{"anonymous":false,"inputs":[{"indexed":true,"internalType":"bytes32","name":"paperHash","type":"bytes32"},{"indexed":false,"internalType":"string","name":"paper","type":"string"},{"indexed":true,"internalType":"address","name":"paperOwner","type":"address"},{"indexed":false,"internalType":"uint256","name":"amount","type":"uint256"}],"name":"ClaimedByPaperOwner","type":"event"},{"anonymous":false,"inputs":[{"indexed":true,"internalType":"bytes32","name":"paperHash","type":"bytes32"},{"indexed":false,"internalType":"string","name":"paper","type":"string"},{"indexed":true,"internalType":"address","name":"voter","type":"address"}],"name":"DownVoted","type":"event"},{"anonymous":false,"inputs":[{"indexed":true,"internalType":"bytes32","name":"paperHash","type":"bytes32"},{"indexed":false,"internalType":"string","name":"paper","type":"string"},{"indexed":true,"internalType":"address","name":"owner","type":"address"}],"name":"PaperPublished","type":"event"},{"anonymous":false,"inputs":[{"indexed":true,"internalType":"bytes32","name":"paperHash","type":"bytes32"},{"indexed":false,"internalType":"string","name":"paper","type":"string"},{"indexed":true,"internalType":"address","name":"voter","type":"address"}],"name":"UpVoted","type":"event"},{"inputs":[{"internalType":"bytes32","name":"_paperHash","type":"bytes32"},{"internalType":"uint256","name":"_amount","type":"uint256"}],"name":"_updateDetractStakeAmountOfPaper","outputs":[],"stateMutability":"nonpayable","type":"function"},{"inputs":[{"internalType":"bytes32","name":"","type":"bytes32"}],"name":"challengeInitiationTime","outputs":[{"internalType":"uint256","name":"","type":"uint256"}],"stateMutability":"view","type":"function"},{"inputs":[{"internalType":"string","name":"_paper","type":"string"},{"internalType":"string","name":"_evidence","type":"string"}],"name":"challengePaper","outputs":[],"stateMutability":"payable","type":"function"},{"inputs":[{"internalType":"bytes32","name":"","type":"bytes32"}],"name":"challenger","outputs":[{"internalType":"address","name":"","type":"address"}],"stateMutability":"view","type":"function"},{"inputs":[{"internalType":"uint256","name":"_amount","type":"uint256"}],"name":"changeMinimumStakingAmountForDetract","outputs":[],"stateMutability":"nonpayable","type":"function"},{"inputs":[{"internalType":"uint256","name":"_time","type":"uint256"}],"name":"changeVotingPeriod","outputs":[],"stateMutability":"nonpayable","type":"function"},{"inputs":[{"internalType":"string","name":"_paper","type":"string"}],"name":"claimAmountByChallenger","outputs":[],"stateMutability":"nonpayable","type":"function"},{"inputs":[{"internalType":"string","name":"_paper","type":"string"}],"name":"claimAmountByPaperOwner","outputs":[],"stateMutability":"nonpayable","type":"function"},{"inputs":[{"internalType":"string","name":"_paper","type":"string"}],"name":"downVote","outputs":[],"stateMutability":"nonpayable","type":"function"},{"inputs":[{"internalType":"bytes32","name":"","type":"bytes32"}],"name":"downVoteCount","outputs":[{"internalType":"uint256","name":"","type":"uint256"}],"stateMutability":"view","type":"function"},{"inputs":[{"internalType":"string","name":"_paper","type":"string"}],"name":"findHash","outputs":[{"internalType":"bytes32","name":"","type":"bytes32"}],"stateMutability":"pure","type":"function"},{"inputs":[{"internalType":"address","name":"","type":"address"},{"internalType":"bytes32","name":"","type":"bytes32"}],"name":"hasVoted","outputs":[{"internalType":"bool","name":"","type":"bool"}],"stateMutability":"view","type":"function"},{"inputs":[],"name":"minStakingAmountForDetract","outputs":[{"internalType":"uint256","name":"","type":"uint256"}],"stateMutability":"view","type":"function"},{"inputs":[{"internalType":"bytes[]","name":"data","type":"bytes[]"}],"name":"multicall","outputs":[{"internalType":"bytes[]","name":"results","type":"bytes[]"}],"stateMutability":"nonpayable","type":"function"},{"inputs":[{"internalType":"bytes32","name":"","type":"bytes32"}],"name":"paperOwner","outputs":[{"internalType":"address","name":"","type":"address"}],"stateMutability":"view","type":"function"},{"inputs":[{"internalType":"bytes32","name":"","type":"bytes32"}],"name":"paperRetractionEvidence","outputs":[{"internalType":"bytes32","name":"","type":"bytes32"}],"stateMutability":"view","type":"function"},{"inputs":[{"internalType":"string","name":"_paper","type":"string"},{"internalType":"address","name":"_owner","type":"address"}],"name":"publishPaper","outputs":[],"stateMutability":"nonpayable","type":"function"},{"inputs":[{"internalType":"bytes32","name":"","type":"bytes32"}],"name":"retractionStakeAmount","outputs":[{"internalType":"uint256","name":"","type":"uint256"}],"stateMutability":"view","type":"function"},{"inputs":[{"internalType":"string","name":"_paper","type":"string"}],"name":"upVote","outputs":[],"stateMutability":"nonpayable","type":"function"},{"inputs":[{"internalType":"bytes32","name":"","type":"bytes32"}],"name":"upVoteCount","outputs":[{"internalType":"uint256","name":"","type":"uint256"}],"stateMutability":"view","type":"function"},{"inputs":[],"name":"votingPeriod","outputs":[{"internalType":"uint256","name":"","type":"uint256"}],"stateMutability":"view","type":"function"},{"stateMutability":"payable","type":"receive"}],"evm":{"bytecode":{"linkReferences":{},"object":"608060405262093a80600055655af3107a400060015534801561002157600080fd5b506123fb806100316000396000f3fe60806040526004361061012e5760003560e01c80639f0faef7116100ab578063bdfd17301161006f578063bdfd173014610445578063c1282f6f14610482578063caa27fa4146104ab578063d0c02e34146104e8578063d378942514610511578063f0b06e191461053a57610135565b80639f0faef71461033c578063a1d9def214610379578063a32a12de146103a2578063ab290ccc146103df578063ac9650d81461040857610135565b80634af52b82116100f25780634af52b821461024557806356f963801461026e5780635832cf591461029957806370c75107146102c257806389c61c15146102ff57610135565b806302a251a31461013a57806307d42ac5146101655780632ed4ef56146101a2578063462ff503146101df5780634a1dc5cc1461020857610135565b3661013557005b600080fd5b34801561014657600080fd5b5061014f610556565b60405161015c9190611620565b60405180910390f35b34801561017157600080fd5b5061018c60048036038101906101879190611685565b61055c565b6040516101999190611620565b60405180910390f35b3480156101ae57600080fd5b506101c960048036038101906101c49190611685565b610574565b6040516101d69190611620565b60405180910390f35b3480156101eb57600080fd5b50610206600480360381019061020191906117f8565b61058c565b005b34801561021457600080fd5b5061022f600480360381019061022a919061189f565b61077c565b60405161023c91906118fa565b60405180910390f35b34801561025157600080fd5b5061026c600480360381019061026791906117f8565b6107ab565b005b34801561027a57600080fd5b5061028361095e565b6040516102909190611620565b60405180910390f35b3480156102a557600080fd5b506102c060048036038101906102bb9190611941565b610964565b005b3480156102ce57600080fd5b506102e960048036038101906102e491906117f8565b61096e565b6040516102f6919061197d565b60405180910390f35b34801561030b57600080fd5b5061032660048036038101906103219190611685565b61097f565b60405161033391906119a7565b60405180910390f35b34801561034857600080fd5b50610363600480360381019061035e9190611685565b6109b2565b604051610370919061197d565b60405180910390f35b34801561038557600080fd5b506103a0600480360381019061039b91906117f8565b6109ca565b005b3480156103ae57600080fd5b506103c960048036038101906103c49190611685565b610bba565b6040516103d69190611620565b60405180910390f35b3480156103eb57600080fd5b5061040660048036038101906104019190611941565b610bd2565b005b34801561041457600080fd5b5061042f600480360381019061042a9190611a22565b610bdc565b60405161043c9190611bb9565b60405180910390f35b34801561045157600080fd5b5061046c60048036038101906104679190611685565b610ce8565b6040516104799190611620565b60405180910390f35b34801561048e57600080fd5b506104a960048036038101906104a49190611bdb565b610d00565b005b3480156104b757600080fd5b506104d260048036038101906104cd9190611685565b610d2e565b6040516104df91906119a7565b60405180910390f35b3480156104f457600080fd5b5061050f600480360381019061050a9190611c1b565b610d61565b005b34801561051d57600080fd5b50610538600480360381019061053391906117f8565b610dcc565b005b610554600480360381019061054f9190611c77565b610f4c565b005b60005481565b60046020528060005260406000206000915090505481565b60056020528060005260406000206000915090505481565b8060006105988261096e565b90506105a381611109565b6105e2576040517f08c379a00000000000000000000000000000000000000000000000000000000081526004016105d990611d72565b60405180910390fd5b60006105ed8461096e565b905060001515600a60003373ffffffffffffffffffffffffffffffffffffffff1673ffffffffffffffffffffffffffffffffffffffff168152602001908152602001600020600083815260200190815260200160002060009054906101000a900460ff16151514610693576040517f08c379a000000000000000000000000000000000000000000000000000000000815260040161068a90611dde565b60405180910390fd5b60016003600083815260200190815260200160002060008282546106b79190611e2d565b925050819055506001600a60003373ffffffffffffffffffffffffffffffffffffffff1673ffffffffffffffffffffffffffffffffffffffff168152602001908152602001600020600083815260200190815260200160002060006101000a81548160ff0219169083151502179055503373ffffffffffffffffffffffffffffffffffffffff16817f533b4c2990041cd275bed3ee33cdfd1b7ba16ff9044e47eb5c32941c42edcc5f8660405161076e9190611ec7565b60405180910390a350505050565b600a6020528160005260406000206020528060005260406000206000915091509054906101000a900460ff1681565b60006107b68261096e565b90506107c181611109565b15610801576040517f08c379a00000000000000000000000000000000000000000000000000000000081526004016107f890611f35565b60405180910390fd5b6003600082815260200190815260200160002054600260008381526020019081526020016000205411610869576040517f08c379a000000000000000000000000000000000000000000000000000000000815260040161086090611fa1565b60405180910390fd5b6009600082815260200190815260200160002060009054906101000a900473ffffffffffffffffffffffffffffffffffffffff1673ffffffffffffffffffffffffffffffffffffffff166108fc60056000848152602001908152602001600020549081150290604051600060405180830381858888f193505050501580156108f5573d6000803e3d6000fd5b503373ffffffffffffffffffffffffffffffffffffffff16817fe0bd93081a2223553839da4882ac08967b04afaa6abd815ffc6560f14fae41d1846005600086815260200190815260200160002054604051610952929190611fc1565b60405180910390a35050565b60015481565b8060008190555050565b600081805190602001209050919050565b60096020528060005260406000206000915054906101000a900473ffffffffffffffffffffffffffffffffffffffff1681565b60076020528060005260406000206000915090505481565b8060006109d68261096e565b90506109e181611109565b610a20576040517f08c379a0000000000000000000000000000000000000000000000000000000008152600401610a1790611d72565b60405180910390fd5b6000610a2b8461096e565b905060001515600a60003373ffffffffffffffffffffffffffffffffffffffff1673ffffffffffffffffffffffffffffffffffffffff168152602001908152602001600020600083815260200190815260200160002060009054906101000a900460ff16151514610ad1576040517f08c379a0000000000000000000000000000000000000000000000000000000008152600401610ac890611dde565b60405180910390fd5b6001600260008381526020019081526020016000206000828254610af59190611e2d565b925050819055506001600a60003373ffffffffffffffffffffffffffffffffffffffff1673ffffffffffffffffffffffffffffffffffffffff168152602001908152602001600020600083815260200190815260200160002060006101000a81548160ff0219169083151502179055503373ffffffffffffffffffffffffffffffffffffffff16817f3ea5f2a226e0159295f69f59b56f26de193156910598d0e317ff311ecfa80c8086604051610bac9190611ec7565b60405180910390a350505050565b60026020528060005260406000206000915090505481565b8060018190555050565b60608282905067ffffffffffffffff811115610bfb57610bfa6116cd565b5b604051908082528060200260200182016040528015610c2e57816020015b6060815260200190600190039081610c195790505b50905060005b83839050811015610ce157610cb030858584818110610c5657610c55611ff1565b5b9050602002810190610c68919061202f565b8080601f016020809104026020016040519081016040528093929190818152602001838380828437600081840152601f19601f82011690508083019250505050505050611134565b828281518110610cc357610cc2611ff1565b5b60200260200101819052508080610cd990612092565b915050610c34565b5092915050565b60036020528060005260406000206000915090505481565b80600560008481526020019081526020016000206000828254610d239190611e2d565b925050819055505050565b60066020528060005260406000206000915054906101000a900473ffffffffffffffffffffffffffffffffffffffff1681565b6000610d6c8361096e565b9050610d788282611161565b8173ffffffffffffffffffffffffffffffffffffffff16817fafc0d080d560e04d73db43f6c0b407b0cd0cabc44c97a51bc4c4d138ccda5c4e85604051610dbf9190611ec7565b60405180910390a3505050565b6000610dd78261096e565b9050610de281611109565b15610e22576040517f08c379a0000000000000000000000000000000000000000000000000000000008152600401610e1990611f35565b60405180910390fd5b6002600082815260200190815260200160002054600360008381526020019081526020016000205411610e8a576040517f08c379a0000000000000000000000000000000000000000000000000000000008152600401610e8190612127565b60405180910390fd5b3373ffffffffffffffffffffffffffffffffffffffff166108fc60056000848152602001908152602001600020549081150290604051600060405180830381858888f19350505050158015610ee3573d6000803e3d6000fd5b503373ffffffffffffffffffffffffffffffffffffffff16817fcf860b8786f419011558c827147b20baf6603dd17575e00fbac36c96904d5c06846005600086815260200190815260200160002054604051610f40929190611fc1565b60405180910390a35050565b6000610f578361096e565b90506000610f648361096e565b9050600154341015610fab576040517f08c379a0000000000000000000000000000000000000000000000000000000008152600401610fa290612193565b60405180910390fd5b610fb482611109565b15610ff4576040517f08c379a0000000000000000000000000000000000000000000000000000000008152600401610feb90612225565b60405180910390fd5b610ffe8234610d00565b6000600260008481526020019081526020016000208190555060006003600084815260200190815260200160002081905550426004600084815260200190815260200160002081905550806007600084815260200190815260200160002081905550336006600084815260200190815260200160002060006101000a81548173ffffffffffffffffffffffffffffffffffffffff021916908373ffffffffffffffffffffffffffffffffffffffff1602179055503373ffffffffffffffffffffffffffffffffffffffff16827f426e07d1ed054f635e9fcc0ef96ddf8adc3677671c4be16e8dfdd24c06acd56c86866040516110fb929190612245565b60405180910390a350505050565b60008054600460008481526020019081526020016000205461112b9190611e2d565b42109050919050565b6060611159838360405180606001604052806027815260200161239f602791396112c3565b905092915050565b600073ffffffffffffffffffffffffffffffffffffffff166009600083815260200190815260200160002060009054906101000a900473ffffffffffffffffffffffffffffffffffffffff1673ffffffffffffffffffffffffffffffffffffffff161461121b5761121981600860008573ffffffffffffffffffffffffffffffffffffffff1673ffffffffffffffffffffffffffffffffffffffff16815260200190815260200160002061134990919063ffffffff16565b505b61126c81600860008573ffffffffffffffffffffffffffffffffffffffff1673ffffffffffffffffffffffffffffffffffffffff16815260200190815260200160002061136090919063ffffffff16565b50816009600083815260200190815260200160002060006101000a81548173ffffffffffffffffffffffffffffffffffffffff021916908373ffffffffffffffffffffffffffffffffffffffff1602179055505050565b60606000808573ffffffffffffffffffffffffffffffffffffffff16856040516112ed91906122b8565b600060405180830381855af49150503d8060008114611328576040519150601f19603f3d011682016040523d82523d6000602084013e61132d565b606091505b509150915061133e86838387611377565b925050509392505050565b600061135883600001836113ed565b905092915050565b600061136f8360000183611501565b905092915050565b606083156113da576000835114156113d25761139285611571565b6113d1576040517f08c379a00000000000000000000000000000000000000000000000000000000081526004016113c89061231b565b60405180910390fd5b5b8290506113e5565b6113e48383611594565b5b949350505050565b600080836001016000848152602001908152602001600020549050600081146114f557600060018261141f919061233b565b9050600060018660000180549050611437919061233b565b90508181146114a657600086600001828154811061145857611457611ff1565b5b906000526020600020015490508087600001848154811061147c5761147b611ff1565b5b90600052602060002001819055508387600101600083815260200190815260200160002081905550505b856000018054806114ba576114b961236f565b5b6001900381819060005260206000200160009055905585600101600086815260200190815260200160002060009055600193505050506114fb565b60009150505b92915050565b600061150d83836115e4565b61156657826000018290806001815401808255809150506001900390600052602060002001600090919091909150558260000180549050836001016000848152602001908152602001600020819055506001905061156b565b600090505b92915050565b6000808273ffffffffffffffffffffffffffffffffffffffff163b119050919050565b6000825111156115a75781518083602001fd5b806040517f08c379a00000000000000000000000000000000000000000000000000000000081526004016115db9190611ec7565b60405180910390fd5b600080836001016000848152602001908152602001600020541415905092915050565b6000819050919050565b61161a81611607565b82525050565b60006020820190506116356000830184611611565b92915050565b6000604051905090565b600080fd5b600080fd5b6000819050919050565b6116628161164f565b811461166d57600080fd5b50565b60008135905061167f81611659565b92915050565b60006020828403121561169b5761169a611645565b5b60006116a984828501611670565b91505092915050565b600080fd5b600080fd5b6000601f19601f8301169050919050565b7f4e487b7100000000000000000000000000000000000000000000000000000000600052604160045260246000fd5b611705826116bc565b810181811067ffffffffffffffff82111715611724576117236116cd565b5b80604052505050565b600061173761163b565b905061174382826116fc565b919050565b600067ffffffffffffffff821115611763576117626116cd565b5b61176c826116bc565b9050602081019050919050565b82818337600083830152505050565b600061179b61179684611748565b61172d565b9050828152602081018484840111156117b7576117b66116b7565b5b6117c2848285611779565b509392505050565b600082601f8301126117df576117de6116b2565b5b81356117ef848260208601611788565b91505092915050565b60006020828403121561180e5761180d611645565b5b600082013567ffffffffffffffff81111561182c5761182b61164a565b5b611838848285016117ca565b91505092915050565b600073ffffffffffffffffffffffffffffffffffffffff82169050919050565b600061186c82611841565b9050919050565b61187c81611861565b811461188757600080fd5b50565b60008135905061189981611873565b92915050565b600080604083850312156118b6576118b5611645565b5b60006118c48582860161188a565b92505060206118d585828601611670565b9150509250929050565b60008115159050919050565b6118f4816118df565b82525050565b600060208201905061190f60008301846118eb565b92915050565b61191e81611607565b811461192957600080fd5b50565b60008135905061193b81611915565b92915050565b60006020828403121561195757611956611645565b5b60006119658482850161192c565b91505092915050565b6119778161164f565b82525050565b6000602082019050611992600083018461196e565b92915050565b6119a181611861565b82525050565b60006020820190506119bc6000830184611998565b92915050565b600080fd5b600080fd5b60008083601f8401126119e2576119e16116b2565b5b8235905067ffffffffffffffff8111156119ff576119fe6119c2565b5b602083019150836020820283011115611a1b57611a1a6119c7565b5b9250929050565b60008060208385031215611a3957611a38611645565b5b600083013567ffffffffffffffff811115611a5757611a5661164a565b5b611a63858286016119cc565b92509250509250929050565b600081519050919050565b600082825260208201905092915050565b6000819050602082019050919050565b600081519050919050565b600082825260208201905092915050565b60005b83811015611ad5578082015181840152602081019050611aba565b83811115611ae4576000848401525b50505050565b6000611af582611a9b565b611aff8185611aa6565b9350611b0f818560208601611ab7565b611b18816116bc565b840191505092915050565b6000611b2f8383611aea565b905092915050565b6000602082019050919050565b6000611b4f82611a6f565b611b598185611a7a565b935083602082028501611b6b85611a8b565b8060005b85811015611ba75784840389528151611b888582611b23565b9450611b9383611b37565b925060208a01995050600181019050611b6f565b50829750879550505050505092915050565b60006020820190508181036000830152611bd38184611b44565b905092915050565b60008060408385031215611bf257611bf1611645565b5b6000611c0085828601611670565b9250506020611c118582860161192c565b9150509250929050565b60008060408385031215611c3257611c31611645565b5b600083013567ffffffffffffffff811115611c5057611c4f61164a565b5b611c5c858286016117ca565b9250506020611c6d8582860161188a565b9150509250929050565b60008060408385031215611c8e57611c8d611645565b5b600083013567ffffffffffffffff811115611cac57611cab61164a565b5b611cb8858286016117ca565b925050602083013567ffffffffffffffff811115611cd957611cd861164a565b5b611ce5858286016117ca565b9150509250929050565b600082825260208201905092915050565b7f566f74696e67206973206e6f742061637469766520666f72207468697320706160008201527f7065720000000000000000000000000000000000000000000000000000000000602082015250565b6000611d5c602383611cef565b9150611d6782611d00565b604082019050919050565b60006020820190508181036000830152611d8b81611d4f565b9050919050565b7f416c726561647920766f74656400000000000000000000000000000000000000600082015250565b6000611dc8600d83611cef565b9150611dd382611d92565b602082019050919050565b60006020820190508181036000830152611df781611dbb565b9050919050565b7f4e487b7100000000000000000000000000000000000000000000000000000000600052601160045260246000fd5b6000611e3882611607565b9150611e4383611607565b9250827fffffffffffffffffffffffffffffffffffffffffffffffffffffffffffffffff03821115611e7857611e77611dfe565b5b828201905092915050565b600081519050919050565b6000611e9982611e83565b611ea38185611cef565b9350611eb3818560208601611ab7565b611ebc816116bc565b840191505092915050565b60006020820190508181036000830152611ee18184611e8e565b905092915050565b7f566f74696e672069732061637469766500000000000000000000000000000000600082015250565b6000611f1f601083611cef565b9150611f2a82611ee9565b602082019050919050565b60006020820190508181036000830152611f4e81611f12565b9050919050565b7f6368616c6c656e676572206c6f737420746865206368616c6c656e6765000000600082015250565b6000611f8b601d83611cef565b9150611f9682611f55565b602082019050919050565b60006020820190508181036000830152611fba81611f7e565b9050919050565b60006040820190508181036000830152611fdb8185611e8e565b9050611fea6020830184611611565b9392505050565b7f4e487b7100000000000000000000000000000000000000000000000000000000600052603260045260246000fd5b600080fd5b600080fd5b600080fd5b6000808335600160200384360303811261204c5761204b612020565b5b80840192508235915067ffffffffffffffff82111561206e5761206d612025565b5b60208301925060018202360383131561208a5761208961202a565b5b509250929050565b600061209d82611607565b91507fffffffffffffffffffffffffffffffffffffffffffffffffffffffffffffffff8214156120d0576120cf611dfe565b5b600182019050919050565b7f70617065724f776e6572206c6f737420746865206368616c6c656e6765000000600082015250565b6000612111601d83611cef565b915061211c826120db565b602082019050919050565b6000602082019050818103600083015261214081612104565b9050919050565b7f496e73756666696369656e7420616d6f756e7420666f72206465747261637400600082015250565b600061217d601f83611cef565b915061218882612147565b602082019050919050565b600060208201905081810360008301526121ac81612170565b9050919050565b7f566f74696e6720697320616c72656164792061637469766520666f722074686960008201527f7320706170657200000000000000000000000000000000000000000000000000602082015250565b600061220f602783611cef565b915061221a826121b3565b604082019050919050565b6000602082019050818103600083015261223e81612202565b9050919050565b6000604082019050818103600083015261225f8185611e8e565b905081810360208301526122738184611e8e565b90509392505050565b600081905092915050565b600061229282611a9b565b61229c818561227c565b93506122ac818560208601611ab7565b80840191505092915050565b60006122c48284612287565b915081905092915050565b7f416464726573733a2063616c6c20746f206e6f6e2d636f6e7472616374000000600082015250565b6000612305601d83611cef565b9150612310826122cf565b602082019050919050565b60006020820190508181036000830152612334816122f8565b9050919050565b600061234682611607565b915061235183611607565b92508282101561236457612363611dfe565b5b828203905092915050565b7f4e487b7100000000000000000000000000000000000000000000000000000000600052603160045260246000fdfe416464726573733a206c6f772d6c6576656c2064656c65676174652063616c6c206661696c6564a26469706673582212206e711e7a734270269d9ada436a327237dfe863a903f9d0db2e85279c94460e9d64736f6c63430008090033","opcodes":"PUSH1 0x80 PUSH1 0x40 MSTORE PUSH3 0x93A80 PUSH1 0x0 SSTORE PUSH6 0x5AF3107A4000 PUSH1 0x1 SSTORE CALLVALUE DUP1 ISZERO PUSH2 0x21 JUMPI PUSH1 0x0 DUP1 REVERT JUMPDEST POP PUSH2 0x23FB DUP1 PUSH2 0x31 PUSH1 0x0 CODECOPY PUSH1 0x0 RETURN INVALID PUSH1 0x80 PUSH1 0x40 MSTORE PUSH1 0x4 CALLDATASIZE LT PUSH2 0x12E JUMPI PUSH1 0x0 CALLDATALOAD PUSH1 0xE0 SHR DUP1 PUSH4 0x9F0FAEF7 GT PUSH2 0xAB JUMPI DUP1 PUSH4 0xBDFD1730 GT PUSH2 0x6F JUMPI DUP1 PUSH4 0xBDFD1730 EQ PUSH2 0x445 JUMPI DUP1 PUSH4 0xC1282F6F EQ PUSH2 0x482 JUMPI DUP1 PUSH4 0xCAA27FA4 EQ PUSH2 0x4AB JUMPI DUP1 PUSH4 0xD0C02E34 EQ PUSH2 0x4E8 JUMPI DUP1 PUSH4 0xD3789425 EQ PUSH2 0x511 JUMPI DUP1 PUSH4 0xF0B06E19 EQ PUSH2 0x53A JUMPI PUSH2 0x135 JUMP JUMPDEST DUP1 PUSH4 0x9F0FAEF7 EQ PUSH2 0x33C JUMPI DUP1 PUSH4 0xA1D9DEF2 EQ PUSH2 0x379 JUMPI DUP1 PUSH4 0xA32A12DE EQ PUSH2 0x3A2 JUMPI DUP1 PUSH4 0xAB290CCC EQ PUSH2 0x3DF JUMPI DUP1 PUSH4 0xAC9650D8 EQ PUSH2 0x408 JUMPI PUSH2 0x135 JUMP JUMPDEST DUP1 PUSH4 0x4AF52B82 GT PUSH2 0xF2 JUMPI DUP1 PUSH4 0x4AF52B82 EQ PUSH2 0x245 JUMPI DUP1 PUSH4 0x56F96380 EQ PUSH2 0x26E JUMPI DUP1 PUSH4 0x5832CF59 EQ PUSH2 0x299 JUMPI DUP1 PUSH4 0x70C75107 EQ PUSH2 0x2C2 JUMPI DUP1 PUSH4 0x89C61C15 EQ PUSH2 0x2FF JUMPI PUSH2 0x135 JUMP JUMPDEST DUP1 PUSH4 0x2A251A3 EQ PUSH2 0x13A JUMPI DUP1 PUSH4 0x7D42AC5 EQ PUSH2 0x165 JUMPI DUP1 PUSH4 0x2ED4EF56 EQ PUSH2 0x1A2 JUMPI DUP1 PUSH4 0x462FF503 EQ PUSH2 0x1DF JUMPI DUP1 PUSH4 0x4A1DC5CC EQ PUSH2 0x208 JUMPI PUSH2 0x135 JUMP JUMPDEST CALLDATASIZE PUSH2 0x135 JUMPI STOP JUMPDEST PUSH1 0x0 DUP1 REVERT JUMPDEST CALLVALUE DUP1 ISZERO PUSH2 0x146 JUMPI PUSH1 0x0 DUP1 REVERT JUMPDEST POP PUSH2 0x14F PUSH2 0x556 JUMP JUMPDEST PUSH1 0x40 MLOAD PUSH2 0x15C SWAP2 SWAP1 PUSH2 0x1620 JUMP JUMPDEST PUSH1 0x40 MLOAD DUP1 SWAP2 SUB SWAP1 RETURN JUMPDEST CALLVALUE DUP1 ISZERO PUSH2 0x171 JUMPI PUSH1 0x0 DUP1 REVERT JUMPDEST POP PUSH2 0x18C PUSH1 0x4 DUP1 CALLDATASIZE SUB DUP2 ADD SWAP1 PUSH2 0x187 SWAP2 SWAP1 PUSH2 0x1685 JUMP JUMPDEST PUSH2 0x55C JUMP JUMPDEST PUSH1 0x40 MLOAD PUSH2 0x199 SWAP2 SWAP1 PUSH2 0x1620 JUMP JUMPDEST PUSH1 0x40 MLOAD DUP1 SWAP2 SUB SWAP1 RETURN JUMPDEST CALLVALUE DUP1 ISZERO PUSH2 0x1AE JUMPI PUSH1 0x0 DUP1 REVERT JUMPDEST POP PUSH2 0x1C9 PUSH1 0x4 DUP1 CALLDATASIZE SUB DUP2 ADD SWAP1 PUSH2 0x1C4 SWAP2 SWAP1 PUSH2 0x1685 JUMP JUMPDEST PUSH2 0x574 JUMP JUMPDEST PUSH1 0x40 MLOAD PUSH2 0x1D6 SWAP2 SWAP1 PUSH2 0x1620 JUMP JUMPDEST PUSH1 0x40 MLOAD DUP1 SWAP2 SUB SWAP1 RETURN JUMPDEST CALLVALUE DUP1 ISZERO PUSH2 0x1EB JUMPI PUSH1 0x0 DUP1 REVERT JUMPDEST POP PUSH2 0x206 PUSH1 0x4 DUP1 CALLDATASIZE SUB DUP2 ADD SWAP1 PUSH2 0x201 SWAP2 SWAP1 PUSH2 0x17F8 JUMP JUMPDEST PUSH2 0x58C JUMP JUMPDEST STOP JUMPDEST CALLVALUE DUP1 ISZERO PUSH2 0x214 JUMPI PUSH1 0x0 DUP1 REVERT JUMPDEST POP PUSH2 0x22F PUSH1 0x4 DUP1 CALLDATASIZE SUB DUP2 ADD SWAP1 PUSH2 0x22A SWAP2 SWAP1 PUSH2 0x189F JUMP JUMPDEST PUSH2 0x77C JUMP JUMPDEST PUSH1 0x40 MLOAD PUSH2 0x23C SWAP2 SWAP1 PUSH2 0x18FA JUMP JUMPDEST PUSH1 0x40 MLOAD DUP1 SWAP2 SUB SWAP1 RETURN JUMPDEST CALLVALUE DUP1 ISZERO PUSH2 0x251 JUMPI PUSH1 0x0 DUP1 REVERT JUMPDEST POP PUSH2 0x26C PUSH1 0x4 DUP1 CALLDATASIZE SUB DUP2 ADD SWAP1 PUSH2 0x267 SWAP2 SWAP1 PUSH2 0x17F8 JUMP JUMPDEST PUSH2 0x7AB JUMP JUMPDEST STOP JUMPDEST CALLVALUE DUP1 ISZERO PUSH2 0x27A JUMPI PUSH1 0x0 DUP1 REVERT JUMPDEST POP PUSH2 0x283 PUSH2 0x95E JUMP JUMPDEST PUSH1 0x40 MLOAD PUSH2 0x290 SWAP2 SWAP1 PUSH2 0x1620 JUMP JUMPDEST PUSH1 0x40 MLOAD DUP1 SWAP2 SUB SWAP1 RETURN JUMPDEST CALLVALUE DUP1 ISZERO PUSH2 0x2A5 JUMPI PUSH1 0x0 DUP1 REVERT JUMPDEST POP PUSH2 0x2C0 PUSH1 0x4 DUP1 CALLDATASIZE SUB DUP2 ADD SWAP1 PUSH2 0x2BB SWAP2 SWAP1 PUSH2 0x1941 JUMP JUMPDEST PUSH2 0x964 JUMP JUMPDEST STOP JUMPDEST CALLVALUE DUP1 ISZERO PUSH2 0x2CE JUMPI PUSH1 0x0 DUP1 REVERT JUMPDEST POP PUSH2 0x2E9 PUSH1 0x4 DUP1 CALLDATASIZE SUB DUP2 ADD SWAP1 PUSH2 0x2E4 SWAP2 SWAP1 PUSH2 0x17F8 JUMP JUMPDEST PUSH2 0x96E JUMP JUMPDEST PUSH1 0x40 MLOAD PUSH2 0x2F6 SWAP2 SWAP1 PUSH2 0x197D JUMP JUMPDEST PUSH1 0x40 MLOAD DUP1 SWAP2 SUB SWAP1 RETURN JUMPDEST CALLVALUE DUP1 ISZERO PUSH2 0x30B JUMPI PUSH1 0x0 DUP1 REVERT JUMPDEST POP PUSH2 0x326 PUSH1 0x4 DUP1 CALLDATASIZE SUB DUP2 ADD SWAP1 PUSH2 0x321 SWAP2 SWAP1 PUSH2 0x1685 JUMP JUMPDEST PUSH2 0x97F JUMP JUMPDEST PUSH1 0x40 MLOAD PUSH2 0x333 SWAP2 SWAP1 PUSH2 0x19A7 JUMP JUMPDEST PUSH1 0x40 MLOAD DUP1 SWAP2 SUB SWAP1 RETURN JUMPDEST CALLVALUE DUP1 ISZERO PUSH2 0x348 JUMPI PUSH1 0x0 DUP1 REVERT JUMPDEST POP PUSH2 0x363 PUSH1 0x4 DUP1 CALLDATASIZE SUB DUP2 ADD SWAP1 PUSH2 0x35E SWAP2 SWAP1 PUSH2 0x1685 JUMP JUMPDEST PUSH2 0x9B2 JUMP JUMPDEST PUSH1 0x40 MLOAD PUSH2 0x370 SWAP2 SWAP1 PUSH2 0x197D JUMP JUMPDEST PUSH1 0x40 MLOAD DUP1 SWAP2 SUB SWAP1 RETURN JUMPDEST CALLVALUE DUP1 ISZERO PUSH2 0x385 JUMPI PUSH1 0x0 DUP1 REVERT JUMPDEST POP PUSH2 0x3A0 PUSH1 0x4 DUP1 CALLDATASIZE SUB DUP2 ADD SWAP1 PUSH2 0x39B SWAP2 SWAP1 PUSH2 0x17F8 JUMP JUMPDEST PUSH2 0x9CA JUMP JUMPDEST STOP JUMPDEST CALLVALUE DUP1 ISZERO PUSH2 0x3AE JUMPI PUSH1 0x0 DUP1 REVERT JUMPDEST POP PUSH2 0x3C9 PUSH1 0x4 DUP1 CALLDATASIZE SUB DUP2 ADD SWAP1 PUSH2 0x3C4 SWAP2 SWAP1 PUSH2 0x1685 JUMP JUMPDEST PUSH2 0xBBA JUMP JUMPDEST PUSH1 0x40 MLOAD PUSH2 0x3D6 SWAP2 SWAP1 PUSH2 0x1620 JUMP JUMPDEST PUSH1 0x40 MLOAD DUP1 SWAP2 SUB SWAP1 RETURN JUMPDEST CALLVALUE DUP1 ISZERO PUSH2 0x3EB JUMPI PUSH1 0x0 DUP1 REVERT JUMPDEST POP PUSH2 0x406 PUSH1 0x4 DUP1 CALLDATASIZE SUB DUP2 ADD SWAP1 PUSH2 0x401 SWAP2 SWAP1 PUSH2 0x1941 JUMP JUMPDEST PUSH2 0xBD2 JUMP JUMPDEST STOP JUMPDEST CALLVALUE DUP1 ISZERO PUSH2 0x414 JUMPI PUSH1 0x0 DUP1 REVERT JUMPDEST POP PUSH2 0x42F PUSH1 0x4 DUP1 CALLDATASIZE SUB DUP2 ADD SWAP1 PUSH2 0x42A SWAP2 SWAP1 PUSH2 0x1A22 JUMP JUMPDEST PUSH2 0xBDC JUMP JUMPDEST PUSH1 0x40 MLOAD PUSH2 0x43C SWAP2 SWAP1 PUSH2 0x1BB9 JUMP JUMPDEST PUSH1 0x40 MLOAD DUP1 SWAP2 SUB SWAP1 RETURN JUMPDEST CALLVALUE DUP1 ISZERO PUSH2 0x451 JUMPI PUSH1 0x0 DUP1 REVERT JUMPDEST POP PUSH2 0x46C PUSH1 0x4 DUP1 CALLDATASIZE SUB DUP2 ADD SWAP1 PUSH2 0x467 SWAP2 SWAP1 PUSH2 0x1685 JUMP JUMPDEST PUSH2 0xCE8 JUMP JUMPDEST PUSH1 0x40 MLOAD PUSH2 0x479 SWAP2 SWAP1 PUSH2 0x1620 JUMP JUMPDEST PUSH1 0x40 MLOAD DUP1 SWAP2 SUB SWAP1 RETURN JUMPDEST CALLVALUE DUP1 ISZERO PUSH2 0x48E JUMPI PUSH1 0x0 DUP1 REVERT JUMPDEST POP PUSH2 0x4A9 PUSH1 0x4 DUP1 CALLDATASIZE SUB DUP2 ADD SWAP1 PUSH2 0x4A4 SWAP2 SWAP1 PUSH2 0x1BDB JUMP JUMPDEST PUSH2 0xD00 JUMP JUMPDEST STOP JUMPDEST CALLVALUE DUP1 ISZERO PUSH2 0x4B7 JUMPI PUSH1 0x0 DUP1 REVERT JUMPDEST POP PUSH2 0x4D2 PUSH1 0x4 DUP1 CALLDATASIZE SUB DUP2 ADD SWAP1 PUSH2 0x4CD SWAP2 SWAP1 PUSH2 0x1685 JUMP JUMPDEST PUSH2 0xD2E JUMP JUMPDEST PUSH1 0x40 MLOAD PUSH2 0x4DF SWAP2 SWAP1 PUSH2 0x19A7 JUMP JUMPDEST PUSH1 0x40 MLOAD DUP1 SWAP2 SUB SWAP1 RETURN JUMPDEST CALLVALUE DUP1 ISZERO PUSH2 0x4F4 JUMPI PUSH1 0x0 DUP1 REVERT JUMPDEST POP PUSH2 0x50F PUSH1 0x4 DUP1 CALLDATASIZE SUB DUP2 ADD SWAP1 PUSH2 0x50A SWAP2 SWAP1 PUSH2 0x1C1B JUMP JUMPDEST PUSH2 0xD61 JUMP JUMPDEST STOP JUMPDEST CALLVALUE DUP1 ISZERO PUSH2 0x51D JUMPI PUSH1 0x0 DUP1 REVERT JUMPDEST POP PUSH2 0x538 PUSH1 0x4 DUP1 CALLDATASIZE SUB DUP2 ADD SWAP1 PUSH2 0x533 SWAP2 SWAP1 PUSH2 0x17F8 JUMP JUMPDEST PUSH2 0xDCC JUMP JUMPDEST STOP JUMPDEST PUSH2 0x554 PUSH1 0x4 DUP1 CALLDATASIZE SUB DUP2 ADD SWAP1 PUSH2 0x54F SWAP2 SWAP1 PUSH2 0x1C77 JUMP JUMPDEST PUSH2 0xF4C JUMP JUMPDEST STOP JUMPDEST PUSH1 0x0 SLOAD DUP2 JUMP JUMPDEST PUSH1 0x4 PUSH1 0x20 MSTORE DUP1 PUSH1 0x0 MSTORE PUSH1 0x40 PUSH1 0x0 KECCAK256 PUSH1 0x0 SWAP2 POP SWAP1 POP SLOAD DUP2 JUMP JUMPDEST PUSH1 0x5 PUSH1 0x20 MSTORE DUP1 PUSH1 0x0 MSTORE PUSH1 0x40 PUSH1 0x0 KECCAK256 PUSH1 0x0 SWAP2 POP SWAP1 POP SLOAD DUP2 JUMP JUMPDEST DUP1 PUSH1 0x0 PUSH2 0x598 DUP3 PUSH2 0x96E JUMP JUMPDEST SWAP1 POP PUSH2 0x5A3 DUP2 PUSH2 0x1109 JUMP JUMPDEST PUSH2 0x5E2 JUMPI PUSH1 0x40 MLOAD PUSH32 0x8C379A000000000000000000000000000000000000000000000000000000000 DUP2 MSTORE PUSH1 0x4 ADD PUSH2 0x5D9 SWAP1 PUSH2 0x1D72 JUMP JUMPDEST PUSH1 0x40 MLOAD DUP1 SWAP2 SUB SWAP1 REVERT JUMPDEST PUSH1 0x0 PUSH2 0x5ED DUP5 PUSH2 0x96E JUMP JUMPDEST SWAP1 POP PUSH1 0x0 ISZERO ISZERO PUSH1 0xA PUSH1 0x0 CALLER PUSH20 0xFFFFFFFFFFFFFFFFFFFFFFFFFFFFFFFFFFFFFFFF AND PUSH20 0xFFFFFFFFFFFFFFFFFFFFFFFFFFFFFFFFFFFFFFFF AND DUP2 MSTORE PUSH1 0x20 ADD SWAP1 DUP2 MSTORE PUSH1 0x20 ADD PUSH1 0x0 KECCAK256 PUSH1 0x0 DUP4 DUP2 MSTORE PUSH1 0x20 ADD SWAP1 DUP2 MSTORE PUSH1 0x20 ADD PUSH1 0x0 KECCAK256 PUSH1 0x0 SWAP1 SLOAD SWAP1 PUSH2 0x100 EXP SWAP1 DIV PUSH1 0xFF AND ISZERO ISZERO EQ PUSH2 0x693 JUMPI PUSH1 0x40 MLOAD PUSH32 0x8C379A000000000000000000000000000000000000000000000000000000000 DUP2 MSTORE PUSH1 0x4 ADD PUSH2 0x68A SWAP1 PUSH2 0x1DDE JUMP JUMPDEST PUSH1 0x40 MLOAD DUP1 SWAP2 SUB SWAP1 REVERT JUMPDEST PUSH1 0x1 PUSH1 0x3 PUSH1 0x0 DUP4 DUP2 MSTORE PUSH1 0x20 ADD SWAP1 DUP2 MSTORE PUSH1 0x20 ADD PUSH1 0x0 KECCAK256 PUSH1 0x0 DUP3 DUP3 SLOAD PUSH2 0x6B7 SWAP2 SWAP1 PUSH2 0x1E2D JUMP JUMPDEST SWAP3 POP POP DUP2 SWAP1 SSTORE POP PUSH1 0x1 PUSH1 0xA PUSH1 0x0 CALLER PUSH20 0xFFFFFFFFFFFFFFFFFFFFFFFFFFFFFFFFFFFFFFFF AND PUSH20 0xFFFFFFFFFFFFFFFFFFFFFFFFFFFFFFFFFFFFFFFF AND DUP2 MSTORE PUSH1 0x20 ADD SWAP1 DUP2 MSTORE PUSH1 0x20 ADD PUSH1 0x0 KECCAK256 PUSH1 0x0 DUP4 DUP2 MSTORE PUSH1 0x20 ADD SWAP1 DUP2 MSTORE PUSH1 0x20 ADD PUSH1 0x0 KECCAK256 PUSH1 0x0 PUSH2 0x100 EXP DUP2 SLOAD DUP2 PUSH1 0xFF MUL NOT AND SWAP1 DUP4 ISZERO ISZERO MUL OR SWAP1 SSTORE POP CALLER PUSH20 0xFFFFFFFFFFFFFFFFFFFFFFFFFFFFFFFFFFFFFFFF AND DUP2 PUSH32 0x533B4C2990041CD275BED3EE33CDFD1B7BA16FF9044E47EB5C32941C42EDCC5F DUP7 PUSH1 0x40 MLOAD PUSH2 0x76E SWAP2 SWAP1 PUSH2 0x1EC7 JUMP JUMPDEST PUSH1 0x40 MLOAD DUP1 SWAP2 SUB SWAP1 LOG3 POP POP POP POP JUMP JUMPDEST PUSH1 0xA PUSH1 0x20 MSTORE DUP2 PUSH1 0x0 MSTORE PUSH1 0x40 PUSH1 0x0 KECCAK256 PUSH1 0x20 MSTORE DUP1 PUSH1 0x0 MSTORE PUSH1 0x40 PUSH1 0x0 KECCAK256 PUSH1 0x0 SWAP2 POP SWAP2 POP SWAP1 SLOAD SWAP1 PUSH2 0x100 EXP SWAP1 DIV PUSH1 0xFF AND DUP2 JUMP JUMPDEST PUSH1 0x0 PUSH2 0x7B6 DUP3 PUSH2 0x96E JUMP JUMPDEST SWAP1 POP PUSH2 0x7C1 DUP2 PUSH2 0x1109 JUMP JUMPDEST ISZERO PUSH2 0x801 JUMPI PUSH1 0x40 MLOAD PUSH32 0x8C379A000000000000000000000000000000000000000000000000000000000 DUP2 MSTORE PUSH1 0x4 ADD PUSH2 0x7F8 SWAP1 PUSH2 0x1F35 JUMP JUMPDEST PUSH1 0x40 MLOAD DUP1 SWAP2 SUB SWAP1 REVERT JUMPDEST PUSH1 0x3 PUSH1 0x0 DUP3 DUP2 MSTORE PUSH1 0x20 ADD SWAP1 DUP2 MSTORE PUSH1 0x20 ADD PUSH1 0x0 KECCAK256 SLOAD PUSH1 0x2 PUSH1 0x0 DUP4 DUP2 MSTORE PUSH1 0x20 ADD SWAP1 DUP2 MSTORE PUSH1 0x20 ADD PUSH1 0x0 KECCAK256 SLOAD GT PUSH2 0x869 JUMPI PUSH1 0x40 MLOAD PUSH32 0x8C379A000000000000000000000000000000000000000000000000000000000 DUP2 MSTORE PUSH1 0x4 ADD PUSH2 0x860 SWAP1 PUSH2 0x1FA1 JUMP JUMPDEST PUSH1 0x40 MLOAD DUP1 SWAP2 SUB SWAP1 REVERT JUMPDEST PUSH1 0x9 PUSH1 0x0 DUP3 DUP2 MSTORE PUSH1 0x20 ADD SWAP1 DUP2 MSTORE PUSH1 0x20 ADD PUSH1 0x0 KECCAK256 PUSH1 0x0 SWAP1 SLOAD SWAP1 PUSH2 0x100 EXP SWAP1 DIV PUSH20 0xFFFFFFFFFFFFFFFFFFFFFFFFFFFFFFFFFFFFFFFF AND PUSH20 0xFFFFFFFFFFFFFFFFFFFFFFFFFFFFFFFFFFFFFFFF AND PUSH2 0x8FC PUSH1 0x5 PUSH1 0x0 DUP5 DUP2 MSTORE PUSH1 0x20 ADD SWAP1 DUP2 MSTORE PUSH1 0x20 ADD PUSH1 0x0 KECCAK256 SLOAD SWAP1 DUP2 ISZERO MUL SWAP1 PUSH1 0x40 MLOAD PUSH1 0x0 PUSH1 0x40 MLOAD DUP1 DUP4 SUB DUP2 DUP6 DUP9 DUP9 CALL SWAP4 POP POP POP POP ISZERO DUP1 ISZERO PUSH2 0x8F5 JUMPI RETURNDATASIZE PUSH1 0x0 DUP1 RETURNDATACOPY RETURNDATASIZE PUSH1 0x0 REVERT JUMPDEST POP CALLER PUSH20 0xFFFFFFFFFFFFFFFFFFFFFFFFFFFFFFFFFFFFFFFF AND DUP2 PUSH32 0xE0BD93081A2223553839DA4882AC08967B04AFAA6ABD815FFC6560F14FAE41D1 DUP5 PUSH1 0x5 PUSH1 0x0 DUP7 DUP2 MSTORE PUSH1 0x20 ADD SWAP1 DUP2 MSTORE PUSH1 0x20 ADD PUSH1 0x0 KECCAK256 SLOAD PUSH1 0x40 MLOAD PUSH2 0x952 SWAP3 SWAP2 SWAP1 PUSH2 0x1FC1 JUMP JUMPDEST PUSH1 0x40 MLOAD DUP1 SWAP2 SUB SWAP1 LOG3 POP POP JUMP JUMPDEST PUSH1 0x1 SLOAD DUP2 JUMP JUMPDEST DUP1 PUSH1 0x0 DUP2 SWAP1 SSTORE POP POP JUMP JUMPDEST PUSH1 0x0 DUP2 DUP1 MLOAD SWAP1 PUSH1 0x20 ADD KECCAK256 SWAP1 POP SWAP2 SWAP1 POP JUMP JUMPDEST PUSH1 0x9 PUSH1 0x20 MSTORE DUP1 PUSH1 0x0 MSTORE PUSH1 0x40 PUSH1 0x0 KECCAK256 PUSH1 0x0 SWAP2 POP SLOAD SWAP1 PUSH2 0x100 EXP SWAP1 DIV PUSH20 0xFFFFFFFFFFFFFFFFFFFFFFFFFFFFFFFFFFFFFFFF AND DUP2 JUMP JUMPDEST PUSH1 0x7 PUSH1 0x20 MSTORE DUP1 PUSH1 0x0 MSTORE PUSH1 0x40 PUSH1 0x0 KECCAK256 PUSH1 0x0 SWAP2 POP SWAP1 POP SLOAD DUP2 JUMP JUMPDEST DUP1 PUSH1 0x0 PUSH2 0x9D6 DUP3 PUSH2 0x96E JUMP JUMPDEST SWAP1 POP PUSH2 0x9E1 DUP2 PUSH2 0x1109 JUMP JUMPDEST PUSH2 0xA20 JUMPI PUSH1 0x40 MLOAD PUSH32 0x8C379A000000000000000000000000000000000000000000000000000000000 DUP2 MSTORE PUSH1 0x4 ADD PUSH2 0xA17 SWAP1 PUSH2 0x1D72 JUMP JUMPDEST PUSH1 0x40 MLOAD DUP1 SWAP2 SUB SWAP1 REVERT JUMPDEST PUSH1 0x0 PUSH2 0xA2B DUP5 PUSH2 0x96E JUMP JUMPDEST SWAP1 POP PUSH1 0x0 ISZERO ISZERO PUSH1 0xA PUSH1 0x0 CALLER PUSH20 0xFFFFFFFFFFFFFFFFFFFFFFFFFFFFFFFFFFFFFFFF AND PUSH20 0xFFFFFFFFFFFFFFFFFFFFFFFFFFFFFFFFFFFFFFFF AND DUP2 MSTORE PUSH1 0x20 ADD SWAP1 DUP2 MSTORE PUSH1 0x20 ADD PUSH1 0x0 KECCAK256 PUSH1 0x0 DUP4 DUP2 MSTORE PUSH1 0x20 ADD SWAP1 DUP2 MSTORE PUSH1 0x20 ADD PUSH1 0x0 KECCAK256 PUSH1 0x0 SWAP1 SLOAD SWAP1 PUSH2 0x100 EXP SWAP1 DIV PUSH1 0xFF AND ISZERO ISZERO EQ PUSH2 0xAD1 JUMPI PUSH1 0x40 MLOAD PUSH32 0x8C379A000000000000000000000000000000000000000000000000000000000 DUP2 MSTORE PUSH1 0x4 ADD PUSH2 0xAC8 SWAP1 PUSH2 0x1DDE JUMP JUMPDEST PUSH1 0x40 MLOAD DUP1 SWAP2 SUB SWAP1 REVERT JUMPDEST PUSH1 0x1 PUSH1 0x2 PUSH1 0x0 DUP4 DUP2 MSTORE PUSH1 0x20 ADD SWAP1 DUP2 MSTORE PUSH1 0x20 ADD PUSH1 0x0 KECCAK256 PUSH1 0x0 DUP3 DUP3 SLOAD PUSH2 0xAF5 SWAP2 SWAP1 PUSH2 0x1E2D JUMP JUMPDEST SWAP3 POP POP DUP2 SWAP1 SSTORE POP PUSH1 0x1 PUSH1 0xA PUSH1 0x0 CALLER PUSH20 0xFFFFFFFFFFFFFFFFFFFFFFFFFFFFFFFFFFFFFFFF AND PUSH20 0xFFFFFFFFFFFFFFFFFFFFFFFFFFFFFFFFFFFFFFFF AND DUP2 MSTORE PUSH1 0x20 ADD SWAP1 DUP2 MSTORE PUSH1 0x20 ADD PUSH1 0x0 KECCAK256 PUSH1 0x0 DUP4 DUP2 MSTORE PUSH1 0x20 ADD SWAP1 DUP2 MSTORE PUSH1 0x20 ADD PUSH1 0x0 KECCAK256 PUSH1 0x0 PUSH2 0x100 EXP DUP2 SLOAD DUP2 PUSH1 0xFF MUL NOT AND SWAP1 DUP4 ISZERO ISZERO MUL OR SWAP1 SSTORE POP CALLER PUSH20 0xFFFFFFFFFFFFFFFFFFFFFFFFFFFFFFFFFFFFFFFF AND DUP2 PUSH32 0x3EA5F2A226E0159295F69F59B56F26DE193156910598D0E317FF311ECFA80C80 DUP7 PUSH1 0x40 MLOAD PUSH2 0xBAC SWAP2 SWAP1 PUSH2 0x1EC7 JUMP JUMPDEST PUSH1 0x40 MLOAD DUP1 SWAP2 SUB SWAP1 LOG3 POP POP POP POP JUMP JUMPDEST PUSH1 0x2 PUSH1 0x20 MSTORE DUP1 PUSH1 0x0 MSTORE PUSH1 0x40 PUSH1 0x0 KECCAK256 PUSH1 0x0 SWAP2 POP SWAP1 POP SLOAD DUP2 JUMP JUMPDEST DUP1 PUSH1 0x1 DUP2 SWAP1 SSTORE POP POP JUMP JUMPDEST PUSH1 0x60 DUP3 DUP3 SWAP1 POP PUSH8 0xFFFFFFFFFFFFFFFF DUP2 GT ISZERO PUSH2 0xBFB JUMPI PUSH2 0xBFA PUSH2 0x16CD JUMP JUMPDEST JUMPDEST PUSH1 0x40 MLOAD SWAP1 DUP1 DUP3 MSTORE DUP1 PUSH1 0x20 MUL PUSH1 0x20 ADD DUP3 ADD PUSH1 0x40 MSTORE DUP1 ISZERO PUSH2 0xC2E JUMPI DUP2 PUSH1 0x20 ADD JUMPDEST PUSH1 0x60 DUP2 MSTORE PUSH1 0x20 ADD SWAP1 PUSH1 0x1 SWAP1 SUB SWAP1 DUP2 PUSH2 0xC19 JUMPI SWAP1 POP JUMPDEST POP SWAP1 POP PUSH1 0x0 JUMPDEST DUP4 DUP4 SWAP1 POP DUP2 LT ISZERO PUSH2 0xCE1 JUMPI PUSH2 0xCB0 ADDRESS DUP6 DUP6 DUP5 DUP2 DUP2 LT PUSH2 0xC56 JUMPI PUSH2 0xC55 PUSH2 0x1FF1 JUMP JUMPDEST JUMPDEST SWAP1 POP PUSH1 0x20 MUL DUP2 ADD SWAP1 PUSH2 0xC68 SWAP2 SWAP1 PUSH2 0x202F JUMP JUMPDEST DUP1 DUP1 PUSH1 0x1F ADD PUSH1 0x20 DUP1 SWAP2 DIV MUL PUSH1 0x20 ADD PUSH1 0x40 MLOAD SWAP1 DUP2 ADD PUSH1 0x40 MSTORE DUP1 SWAP4 SWAP3 SWAP2 SWAP1 DUP2 DUP2 MSTORE PUSH1 0x20 ADD DUP4 DUP4 DUP1 DUP3 DUP5 CALLDATACOPY PUSH1 0x0 DUP2 DUP5 ADD MSTORE PUSH1 0x1F NOT PUSH1 0x1F DUP3 ADD AND SWAP1 POP DUP1 DUP4 ADD SWAP3 POP POP POP POP POP POP POP PUSH2 0x1134 JUMP JUMPDEST DUP3 DUP3 DUP2 MLOAD DUP2 LT PUSH2 0xCC3 JUMPI PUSH2 0xCC2 PUSH2 0x1FF1 JUMP JUMPDEST JUMPDEST PUSH1 0x20 MUL PUSH1 0x20 ADD ADD DUP2 SWAP1 MSTORE POP DUP1 DUP1 PUSH2 0xCD9 SWAP1 PUSH2 0x2092 JUMP JUMPDEST SWAP2 POP POP PUSH2 0xC34 JUMP JUMPDEST POP SWAP3 SWAP2 POP POP JUMP JUMPDEST PUSH1 0x3 PUSH1 0x20 MSTORE DUP1 PUSH1 0x0 MSTORE PUSH1 0x40 PUSH1 0x0 KECCAK256 PUSH1 0x0 SWAP2 POP SWAP1 POP SLOAD DUP2 JUMP JUMPDEST DUP1 PUSH1 0x5 PUSH1 0x0 DUP5 DUP2 MSTORE PUSH1 0x20 ADD SWAP1 DUP2 MSTORE PUSH1 0x20 ADD PUSH1 0x0 KECCAK256 PUSH1 0x0 DUP3 DUP3 SLOAD PUSH2 0xD23 SWAP2 SWAP1 PUSH2 0x1E2D JUMP JUMPDEST SWAP3 POP POP DUP2 SWAP1 SSTORE POP POP POP JUMP JUMPDEST PUSH1 0x6 PUSH1 0x20 MSTORE DUP1 PUSH1 0x0 MSTORE PUSH1 0x40 PUSH1 0x0 KECCAK256 PUSH1 0x0 SWAP2 POP SLOAD SWAP1 PUSH2 0x100 EXP SWAP1 DIV PUSH20 0xFFFFFFFFFFFFFFFFFFFFFFFFFFFFFFFFFFFFFFFF AND DUP2 JUMP JUMPDEST PUSH1 0x0 PUSH2 0xD6C DUP4 PUSH2 0x96E JUMP JUMPDEST SWAP1 POP PUSH2 0xD78 DUP3 DUP3 PUSH2 0x1161 JUMP JUMPDEST DUP2 PUSH20 0xFFFFFFFFFFFFFFFFFFFFFFFFFFFFFFFFFFFFFFFF AND DUP2 PUSH32 0xAFC0D080D560E04D73DB43F6C0B407B0CD0CABC44C97A51BC4C4D138CCDA5C4E DUP6 PUSH1 0x40 MLOAD PUSH2 0xDBF SWAP2 SWAP1 PUSH2 0x1EC7 JUMP JUMPDEST PUSH1 0x40 MLOAD DUP1 SWAP2 SUB SWAP1 LOG3 POP POP POP JUMP JUMPDEST PUSH1 0x0 PUSH2 0xDD7 DUP3 PUSH2 0x96E JUMP JUMPDEST SWAP1 POP PUSH2 0xDE2 DUP2 PUSH2 0x1109 JUMP JUMPDEST ISZERO PUSH2 0xE22 JUMPI PUSH1 0x40 MLOAD PUSH32 0x8C379A000000000000000000000000000000000000000000000000000000000 DUP2 MSTORE PUSH1 0x4 ADD PUSH2 0xE19 SWAP1 PUSH2 0x1F35 JUMP JUMPDEST PUSH1 0x40 MLOAD DUP1 SWAP2 SUB SWAP1 REVERT JUMPDEST PUSH1 0x2 PUSH1 0x0 DUP3 DUP2 MSTORE PUSH1 0x20 ADD SWAP1 DUP2 MSTORE PUSH1 0x20 ADD PUSH1 0x0 KECCAK256 SLOAD PUSH1 0x3 PUSH1 0x0 DUP4 DUP2 MSTORE PUSH1 0x20 ADD SWAP1 DUP2 MSTORE PUSH1 0x20 ADD PUSH1 0x0 KECCAK256 SLOAD GT PUSH2 0xE8A JUMPI PUSH1 0x40 MLOAD PUSH32 0x8C379A000000000000000000000000000000000000000000000000000000000 DUP2 MSTORE PUSH1 0x4 ADD PUSH2 0xE81 SWAP1 PUSH2 0x2127 JUMP JUMPDEST PUSH1 0x40 MLOAD DUP1 SWAP2 SUB SWAP1 REVERT JUMPDEST CALLER PUSH20 0xFFFFFFFFFFFFFFFFFFFFFFFFFFFFFFFFFFFFFFFF AND PUSH2 0x8FC PUSH1 0x5 PUSH1 0x0 DUP5 DUP2 MSTORE PUSH1 0x20 ADD SWAP1 DUP2 MSTORE PUSH1 0x20 ADD PUSH1 0x0 KECCAK256 SLOAD SWAP1 DUP2 ISZERO MUL SWAP1 PUSH1 0x40 MLOAD PUSH1 0x0 PUSH1 0x40 MLOAD DUP1 DUP4 SUB DUP2 DUP6 DUP9 DUP9 CALL SWAP4 POP POP POP POP ISZERO DUP1 ISZERO PUSH2 0xEE3 JUMPI RETURNDATASIZE PUSH1 0x0 DUP1 RETURNDATACOPY RETURNDATASIZE PUSH1 0x0 REVERT JUMPDEST POP CALLER PUSH20 0xFFFFFFFFFFFFFFFFFFFFFFFFFFFFFFFFFFFFFFFF AND DUP2 PUSH32 0xCF860B8786F419011558C827147B20BAF6603DD17575E00FBAC36C96904D5C06 DUP5 PUSH1 0x5 PUSH1 0x0 DUP7 DUP2 MSTORE PUSH1 0x20 ADD SWAP1 DUP2 MSTORE PUSH1 0x20 ADD PUSH1 0x0 KECCAK256 SLOAD PUSH1 0x40 MLOAD PUSH2 0xF40 SWAP3 SWAP2 SWAP1 PUSH2 0x1FC1 JUMP JUMPDEST PUSH1 0x40 MLOAD DUP1 SWAP2 SUB SWAP1 LOG3 POP POP JUMP JUMPDEST PUSH1 0x0 PUSH2 0xF57 DUP4 PUSH2 0x96E JUMP JUMPDEST SWAP1 POP PUSH1 0x0 PUSH2 0xF64 DUP4 PUSH2 0x96E JUMP JUMPDEST SWAP1 POP PUSH1 0x1 SLOAD CALLVALUE LT ISZERO PUSH2 0xFAB JUMPI PUSH1 0x40 MLOAD PUSH32 0x8C379A000000000000000000000000000000000000000000000000000000000 DUP2 MSTORE PUSH1 0x4 ADD PUSH2 0xFA2 SWAP1 PUSH2 0x2193 JUMP JUMPDEST PUSH1 0x40 MLOAD DUP1 SWAP2 SUB SWAP1 REVERT JUMPDEST PUSH2 0xFB4 DUP3 PUSH2 0x1109 JUMP JUMPDEST ISZERO PUSH2 0xFF4 JUMPI PUSH1 0x40 MLOAD PUSH32 0x8C379A000000000000000000000000000000000000000000000000000000000 DUP2 MSTORE PUSH1 0x4 ADD PUSH2 0xFEB SWAP1 PUSH2 0x2225 JUMP JUMPDEST PUSH1 0x40 MLOAD DUP1 SWAP2 SUB SWAP1 REVERT JUMPDEST PUSH2 0xFFE DUP3 CALLVALUE PUSH2 0xD00 JUMP JUMPDEST PUSH1 0x0 PUSH1 0x2 PUSH1 0x0 DUP5 DUP2 MSTORE PUSH1 0x20 ADD SWAP1 DUP2 MSTORE PUSH1 0x20 ADD PUSH1 0x0 KECCAK256 DUP2 SWAP1 SSTORE POP PUSH1 0x0 PUSH1 0x3 PUSH1 0x0 DUP5 DUP2 MSTORE PUSH1 0x20 ADD SWAP1 DUP2 MSTORE PUSH1 0x20 ADD PUSH1 0x0 KECCAK256 DUP2 SWAP1 SSTORE POP TIMESTAMP PUSH1 0x4 PUSH1 0x0 DUP5 DUP2 MSTORE PUSH1 0x20 ADD SWAP1 DUP2 MSTORE PUSH1 0x20 ADD PUSH1 0x0 KECCAK256 DUP2 SWAP1 SSTORE POP DUP1 PUSH1 0x7 PUSH1 0x0 DUP5 DUP2 MSTORE PUSH1 0x20 ADD SWAP1 DUP2 MSTORE PUSH1 0x20 ADD PUSH1 0x0 KECCAK256 DUP2 SWAP1 SSTORE POP CALLER PUSH1 0x6 PUSH1 0x0 DUP5 DUP2 MSTORE PUSH1 0x20 ADD SWAP1 DUP2 MSTORE PUSH1 0x20 ADD PUSH1 0x0 KECCAK256 PUSH1 0x0 PUSH2 0x100 EXP DUP2 SLOAD DUP2 PUSH20 0xFFFFFFFFFFFFFFFFFFFFFFFFFFFFFFFFFFFFFFFF MUL NOT AND SWAP1 DUP4 PUSH20 0xFFFFFFFFFFFFFFFFFFFFFFFFFFFFFFFFFFFFFFFF AND MUL OR SWAP1 SSTORE POP CALLER PUSH20 0xFFFFFFFFFFFFFFFFFFFFFFFFFFFFFFFFFFFFFFFF AND DUP3 PUSH32 0x426E07D1ED054F635E9FCC0EF96DDF8ADC3677671C4BE16E8DFDD24C06ACD56C DUP7 DUP7 PUSH1 0x40 MLOAD PUSH2 0x10FB SWAP3 SWAP2 SWAP1 PUSH2 0x2245 JUMP JUMPDEST PUSH1 0x40 MLOAD DUP1 SWAP2 SUB SWAP1 LOG3 POP POP POP POP JUMP JUMPDEST PUSH1 0x0 DUP1 SLOAD PUSH1 0x4 PUSH1 0x0 DUP5 DUP2 MSTORE PUSH1 0x20 ADD SWAP1 DUP2 MSTORE PUSH1 0x20 ADD PUSH1 0x0 KECCAK256 SLOAD PUSH2 0x112B SWAP2 SWAP1 PUSH2 0x1E2D JUMP JUMPDEST TIMESTAMP LT SWAP1 POP SWAP2 SWAP1 POP JUMP JUMPDEST PUSH1 0x60 PUSH2 0x1159 DUP4 DUP4 PUSH1 0x40 MLOAD DUP1 PUSH1 0x60 ADD PUSH1 0x40 MSTORE DUP1 PUSH1 0x27 DUP2 MSTORE PUSH1 0x20 ADD PUSH2 0x239F PUSH1 0x27 SWAP2 CODECOPY PUSH2 0x12C3 JUMP JUMPDEST SWAP1 POP SWAP3 SWAP2 POP POP JUMP JUMPDEST PUSH1 0x0 PUSH20 0xFFFFFFFFFFFFFFFFFFFFFFFFFFFFFFFFFFFFFFFF AND PUSH1 0x9 PUSH1 0x0 DUP4 DUP2 MSTORE PUSH1 0x20 ADD SWAP1 DUP2 MSTORE PUSH1 0x20 ADD PUSH1 0x0 KECCAK256 PUSH1 0x0 SWAP1 SLOAD SWAP1 PUSH2 0x100 EXP SWAP1 DIV PUSH20 0xFFFFFFFFFFFFFFFFFFFFFFFFFFFFFFFFFFFFFFFF AND PUSH20 0xFFFFFFFFFFFFFFFFFFFFFFFFFFFFFFFFFFFFFFFF AND EQ PUSH2 0x121B JUMPI PUSH2 0x1219 DUP2 PUSH1 0x8 PUSH1 0x0 DUP6 PUSH20 0xFFFFFFFFFFFFFFFFFFFFFFFFFFFFFFFFFFFFFFFF AND PUSH20 0xFFFFFFFFFFFFFFFFFFFFFFFFFFFFFFFFFFFFFFFF AND DUP2 MSTORE PUSH1 0x20 ADD SWAP1 DUP2 MSTORE PUSH1 0x20 ADD PUSH1 0x0 KECCAK256 PUSH2 0x1349 SWAP1 SWAP2 SWAP1 PUSH4 0xFFFFFFFF AND JUMP JUMPDEST POP JUMPDEST PUSH2 0x126C DUP2 PUSH1 0x8 PUSH1 0x0 DUP6 PUSH20 0xFFFFFFFFFFFFFFFFFFFFFFFFFFFFFFFFFFFFFFFF AND PUSH20 0xFFFFFFFFFFFFFFFFFFFFFFFFFFFFFFFFFFFFFFFF AND DUP2 MSTORE PUSH1 0x20 ADD SWAP1 DUP2 MSTORE PUSH1 0x20 ADD PUSH1 0x0 KECCAK256 PUSH2 0x1360 SWAP1 SWAP2 SWAP1 PUSH4 0xFFFFFFFF AND JUMP JUMPDEST POP DUP2 PUSH1 0x9 PUSH1 0x0 DUP4 DUP2 MSTORE PUSH1 0x20 ADD SWAP1 DUP2 MSTORE PUSH1 0x20 ADD PUSH1 0x0 KECCAK256 PUSH1 0x0 PUSH2 0x100 EXP DUP2 SLOAD DUP2 PUSH20 0xFFFFFFFFFFFFFFFFFFFFFFFFFFFFFFFFFFFFFFFF MUL NOT AND SWAP1 DUP4 PUSH20 0xFFFFFFFFFFFFFFFFFFFFFFFFFFFFFFFFFFFFFFFF AND MUL OR SWAP1 SSTORE POP POP POP JUMP JUMPDEST PUSH1 0x60 PUSH1 0x0 DUP1 DUP6 PUSH20 0xFFFFFFFFFFFFFFFFFFFFFFFFFFFFFFFFFFFFFFFF AND DUP6 PUSH1 0x40 MLOAD PUSH2 0x12ED SWAP2 SWAP1 PUSH2 0x22B8 JUMP JUMPDEST PUSH1 0x0 PUSH1 0x40 MLOAD DUP1 DUP4 SUB DUP2 DUP6 GAS DELEGATECALL SWAP2 POP POP RETURNDATASIZE DUP1 PUSH1 0x0 DUP2 EQ PUSH2 0x1328 JUMPI PUSH1 0x40 MLOAD SWAP2 POP PUSH1 0x1F NOT PUSH1 0x3F RETURNDATASIZE ADD AND DUP3 ADD PUSH1 0x40 MSTORE RETURNDATASIZE DUP3 MSTORE RETURNDATASIZE PUSH1 0x0 PUSH1 0x20 DUP5 ADD RETURNDATACOPY PUSH2 0x132D JUMP JUMPDEST PUSH1 0x60 SWAP2 POP JUMPDEST POP SWAP2 POP SWAP2 POP PUSH2 0x133E DUP7 DUP4 DUP4 DUP8 PUSH2 0x1377 JUMP JUMPDEST SWAP3 POP POP POP SWAP4 SWAP3 POP POP POP JUMP JUMPDEST PUSH1 0x0 PUSH2 0x1358 DUP4 PUSH1 0x0 ADD DUP4 PUSH2 0x13ED JUMP JUMPDEST SWAP1 POP SWAP3 SWAP2 POP POP JUMP JUMPDEST PUSH1 0x0 PUSH2 0x136F DUP4 PUSH1 0x0 ADD DUP4 PUSH2 0x1501 JUMP JUMPDEST SWAP1 POP SWAP3 SWAP2 POP POP JUMP JUMPDEST PUSH1 0x60 DUP4 ISZERO PUSH2 0x13DA JUMPI PUSH1 0x0 DUP4 MLOAD EQ ISZERO PUSH2 0x13D2 JUMPI PUSH2 0x1392 DUP6 PUSH2 0x1571 JUMP JUMPDEST PUSH2 0x13D1 JUMPI PUSH1 0x40 MLOAD PUSH32 0x8C379A000000000000000000000000000000000000000000000000000000000 DUP2 MSTORE PUSH1 0x4 ADD PUSH2 0x13C8 SWAP1 PUSH2 0x231B JUMP JUMPDEST PUSH1 0x40 MLOAD DUP1 SWAP2 SUB SWAP1 REVERT JUMPDEST JUMPDEST DUP3 SWAP1 POP PUSH2 0x13E5 JUMP JUMPDEST PUSH2 0x13E4 DUP4 DUP4 PUSH2 0x1594 JUMP JUMPDEST JUMPDEST SWAP5 SWAP4 POP POP POP POP JUMP JUMPDEST PUSH1 0x0 DUP1 DUP4 PUSH1 0x1 ADD PUSH1 0x0 DUP5 DUP2 MSTORE PUSH1 0x20 ADD SWAP1 DUP2 MSTORE PUSH1 0x20 ADD PUSH1 0x0 KECCAK256 SLOAD SWAP1 POP PUSH1 0x0 DUP2 EQ PUSH2 0x14F5 JUMPI PUSH1 0x0 PUSH1 0x1 DUP3 PUSH2 0x141F SWAP2 SWAP1 PUSH2 0x233B JUMP JUMPDEST SWAP1 POP PUSH1 0x0 PUSH1 0x1 DUP7 PUSH1 0x0 ADD DUP1 SLOAD SWAP1 POP PUSH2 0x1437 SWAP2 SWAP1 PUSH2 0x233B JUMP JUMPDEST SWAP1 POP DUP2 DUP2 EQ PUSH2 0x14A6 JUMPI PUSH1 0x0 DUP7 PUSH1 0x0 ADD DUP3 DUP2 SLOAD DUP2 LT PUSH2 0x1458 JUMPI PUSH2 0x1457 PUSH2 0x1FF1 JUMP JUMPDEST JUMPDEST SWAP1 PUSH1 0x0 MSTORE PUSH1 0x20 PUSH1 0x0 KECCAK256 ADD SLOAD SWAP1 POP DUP1 DUP8 PUSH1 0x0 ADD DUP5 DUP2 SLOAD DUP2 LT PUSH2 0x147C JUMPI PUSH2 0x147B PUSH2 0x1FF1 JUMP JUMPDEST JUMPDEST SWAP1 PUSH1 0x0 MSTORE PUSH1 0x20 PUSH1 0x0 KECCAK256 ADD DUP2 SWAP1 SSTORE POP DUP4 DUP8 PUSH1 0x1 ADD PUSH1 0x0 DUP4 DUP2 MSTORE PUSH1 0x20 ADD SWAP1 DUP2 MSTORE PUSH1 0x20 ADD PUSH1 0x0 KECCAK256 DUP2 SWAP1 SSTORE POP POP JUMPDEST DUP6 PUSH1 0x0 ADD DUP1 SLOAD DUP1 PUSH2 0x14BA JUMPI PUSH2 0x14B9 PUSH2 0x236F JUMP JUMPDEST JUMPDEST PUSH1 0x1 SWAP1 SUB DUP2 DUP2 SWAP1 PUSH1 0x0 MSTORE PUSH1 0x20 PUSH1 0x0 KECCAK256 ADD PUSH1 0x0 SWAP1 SSTORE SWAP1 SSTORE DUP6 PUSH1 0x1 ADD PUSH1 0x0 DUP7 DUP2 MSTORE PUSH1 0x20 ADD SWAP1 DUP2 MSTORE PUSH1 0x20 ADD PUSH1 0x0 KECCAK256 PUSH1 0x0 SWAP1 SSTORE PUSH1 0x1 SWAP4 POP POP POP POP PUSH2 0x14FB JUMP JUMPDEST PUSH1 0x0 SWAP2 POP POP JUMPDEST SWAP3 SWAP2 POP POP JUMP JUMPDEST PUSH1 0x0 PUSH2 0x150D DUP4 DUP4 PUSH2 0x15E4 JUMP JUMPDEST PUSH2 0x1566 JUMPI DUP3 PUSH1 0x0 ADD DUP3 SWAP1 DUP1 PUSH1 0x1 DUP2 SLOAD ADD DUP1 DUP3 SSTORE DUP1 SWAP2 POP POP PUSH1 0x1 SWAP1 SUB SWAP1 PUSH1 0x0 MSTORE PUSH1 0x20 PUSH1 0x0 KECCAK256 ADD PUSH1 0x0 SWAP1 SWAP2 SWAP1 SWAP2 SWAP1 SWAP2 POP SSTORE DUP3 PUSH1 0x0 ADD DUP1 SLOAD SWAP1 POP DUP4 PUSH1 0x1 ADD PUSH1 0x0 DUP5 DUP2 MSTORE PUSH1 0x20 ADD SWAP1 DUP2 MSTORE PUSH1 0x20 ADD PUSH1 0x0 KECCAK256 DUP2 SWAP1 SSTORE POP PUSH1 0x1 SWAP1 POP PUSH2 0x156B JUMP JUMPDEST PUSH1 0x0 SWAP1 POP JUMPDEST SWAP3 SWAP2 POP POP JUMP JUMPDEST PUSH1 0x0 DUP1 DUP3 PUSH20 0xFFFFFFFFFFFFFFFFFFFFFFFFFFFFFFFFFFFFFFFF AND EXTCODESIZE GT SWAP1 POP SWAP2 SWAP1 POP JUMP JUMPDEST PUSH1 0x0 DUP3 MLOAD GT ISZERO PUSH2 0x15A7 JUMPI DUP2 MLOAD DUP1 DUP4 PUSH1 0x20 ADD REVERT JUMPDEST DUP1 PUSH1 0x40 MLOAD PUSH32 0x8C379A000000000000000000000000000000000000000000000000000000000 DUP2 MSTORE PUSH1 0x4 ADD PUSH2 0x15DB SWAP2 SWAP1 PUSH2 0x1EC7 JUMP JUMPDEST PUSH1 0x40 MLOAD DUP1 SWAP2 SUB SWAP1 REVERT JUMPDEST PUSH1 0x0 DUP1 DUP4 PUSH1 0x1 ADD PUSH1 0x0 DUP5 DUP2 MSTORE PUSH1 0x20 ADD SWAP1 DUP2 MSTORE PUSH1 0x20 ADD PUSH1 0x0 KECCAK256 SLOAD EQ ISZERO SWAP1 POP SWAP3 SWAP2 POP POP JUMP JUMPDEST PUSH1 0x0 DUP2 SWAP1 POP SWAP2 SWAP1 POP JUMP JUMPDEST PUSH2 0x161A DUP2 PUSH2 0x1607 JUMP JUMPDEST DUP3 MSTORE POP POP JUMP JUMPDEST PUSH1 0x0 PUSH1 0x20 DUP3 ADD SWAP1 POP PUSH2 0x1635 PUSH1 0x0 DUP4 ADD DUP5 PUSH2 0x1611 JUMP JUMPDEST SWAP3 SWAP2 POP POP JUMP JUMPDEST PUSH1 0x0 PUSH1 0x40 MLOAD SWAP1 POP SWAP1 JUMP JUMPDEST PUSH1 0x0 DUP1 REVERT JUMPDEST PUSH1 0x0 DUP1 REVERT JUMPDEST PUSH1 0x0 DUP2 SWAP1 POP SWAP2 SWAP1 POP JUMP JUMPDEST PUSH2 0x1662 DUP2 PUSH2 0x164F JUMP JUMPDEST DUP2 EQ PUSH2 0x166D JUMPI PUSH1 0x0 DUP1 REVERT JUMPDEST POP JUMP JUMPDEST PUSH1 0x0 DUP2 CALLDATALOAD SWAP1 POP PUSH2 0x167F DUP2 PUSH2 0x1659 JUMP JUMPDEST SWAP3 SWAP2 POP POP JUMP JUMPDEST PUSH1 0x0 PUSH1 0x20 DUP3 DUP5 SUB SLT ISZERO PUSH2 0x169B JUMPI PUSH2 0x169A PUSH2 0x1645 JUMP JUMPDEST JUMPDEST PUSH1 0x0 PUSH2 0x16A9 DUP5 DUP3 DUP6 ADD PUSH2 0x1670 JUMP JUMPDEST SWAP2 POP POP SWAP3 SWAP2 POP POP JUMP JUMPDEST PUSH1 0x0 DUP1 REVERT JUMPDEST PUSH1 0x0 DUP1 REVERT JUMPDEST PUSH1 0x0 PUSH1 0x1F NOT PUSH1 0x1F DUP4 ADD AND SWAP1 POP SWAP2 SWAP1 POP JUMP JUMPDEST PUSH32 0x4E487B7100000000000000000000000000000000000000000000000000000000 PUSH1 0x0 MSTORE PUSH1 0x41 PUSH1 0x4 MSTORE PUSH1 0x24 PUSH1 0x0 REVERT JUMPDEST PUSH2 0x1705 DUP3 PUSH2 0x16BC JUMP JUMPDEST DUP2 ADD DUP2 DUP2 LT PUSH8 0xFFFFFFFFFFFFFFFF DUP3 GT OR ISZERO PUSH2 0x1724 JUMPI PUSH2 0x1723 PUSH2 0x16CD JUMP JUMPDEST JUMPDEST DUP1 PUSH1 0x40 MSTORE POP POP POP JUMP JUMPDEST PUSH1 0x0 PUSH2 0x1737 PUSH2 0x163B JUMP JUMPDEST SWAP1 POP PUSH2 0x1743 DUP3 DUP3 PUSH2 0x16FC JUMP JUMPDEST SWAP2 SWAP1 POP JUMP JUMPDEST PUSH1 0x0 PUSH8 0xFFFFFFFFFFFFFFFF DUP3 GT ISZERO PUSH2 0x1763 JUMPI PUSH2 0x1762 PUSH2 0x16CD JUMP JUMPDEST JUMPDEST PUSH2 0x176C DUP3 PUSH2 0x16BC JUMP JUMPDEST SWAP1 POP PUSH1 0x20 DUP2 ADD SWAP1 POP SWAP2 SWAP1 POP JUMP JUMPDEST DUP3 DUP2 DUP4 CALLDATACOPY PUSH1 0x0 DUP4 DUP4 ADD MSTORE POP POP POP JUMP JUMPDEST PUSH1 0x0 PUSH2 0x179B PUSH2 0x1796 DUP5 PUSH2 0x1748 JUMP JUMPDEST PUSH2 0x172D JUMP JUMPDEST SWAP1 POP DUP3 DUP2 MSTORE PUSH1 0x20 DUP2 ADD DUP5 DUP5 DUP5 ADD GT ISZERO PUSH2 0x17B7 JUMPI PUSH2 0x17B6 PUSH2 0x16B7 JUMP JUMPDEST JUMPDEST PUSH2 0x17C2 DUP5 DUP3 DUP6 PUSH2 0x1779 JUMP JUMPDEST POP SWAP4 SWAP3 POP POP POP JUMP JUMPDEST PUSH1 0x0 DUP3 PUSH1 0x1F DUP4 ADD SLT PUSH2 0x17DF JUMPI PUSH2 0x17DE PUSH2 0x16B2 JUMP JUMPDEST JUMPDEST DUP2 CALLDATALOAD PUSH2 0x17EF DUP5 DUP3 PUSH1 0x20 DUP7 ADD PUSH2 0x1788 JUMP JUMPDEST SWAP2 POP POP SWAP3 SWAP2 POP POP JUMP JUMPDEST PUSH1 0x0 PUSH1 0x20 DUP3 DUP5 SUB SLT ISZERO PUSH2 0x180E JUMPI PUSH2 0x180D PUSH2 0x1645 JUMP JUMPDEST JUMPDEST PUSH1 0x0 DUP3 ADD CALLDATALOAD PUSH8 0xFFFFFFFFFFFFFFFF DUP2 GT ISZERO PUSH2 0x182C JUMPI PUSH2 0x182B PUSH2 0x164A JUMP JUMPDEST JUMPDEST PUSH2 0x1838 DUP5 DUP3 DUP6 ADD PUSH2 0x17CA JUMP JUMPDEST SWAP2 POP POP SWAP3 SWAP2 POP POP JUMP JUMPDEST PUSH1 0x0 PUSH20 0xFFFFFFFFFFFFFFFFFFFFFFFFFFFFFFFFFFFFFFFF DUP3 AND SWAP1 POP SWAP2 SWAP1 POP JUMP JUMPDEST PUSH1 0x0 PUSH2 0x186C DUP3 PUSH2 0x1841 JUMP JUMPDEST SWAP1 POP SWAP2 SWAP1 POP JUMP JUMPDEST PUSH2 0x187C DUP2 PUSH2 0x1861 JUMP JUMPDEST DUP2 EQ PUSH2 0x1887 JUMPI PUSH1 0x0 DUP1 REVERT JUMPDEST POP JUMP JUMPDEST PUSH1 0x0 DUP2 CALLDATALOAD SWAP1 POP PUSH2 0x1899 DUP2 PUSH2 0x1873 JUMP JUMPDEST SWAP3 SWAP2 POP POP JUMP JUMPDEST PUSH1 0x0 DUP1 PUSH1 0x40 DUP4 DUP6 SUB SLT ISZERO PUSH2 0x18B6 JUMPI PUSH2 0x18B5 PUSH2 0x1645 JUMP JUMPDEST JUMPDEST PUSH1 0x0 PUSH2 0x18C4 DUP6 DUP3 DUP7 ADD PUSH2 0x188A JUMP JUMPDEST SWAP3 POP POP PUSH1 0x20 PUSH2 0x18D5 DUP6 DUP3 DUP7 ADD PUSH2 0x1670 JUMP JUMPDEST SWAP2 POP POP SWAP3 POP SWAP3 SWAP1 POP JUMP JUMPDEST PUSH1 0x0 DUP2 ISZERO ISZERO SWAP1 POP SWAP2 SWAP1 POP JUMP JUMPDEST PUSH2 0x18F4 DUP2 PUSH2 0x18DF JUMP JUMPDEST DUP3 MSTORE POP POP JUMP JUMPDEST PUSH1 0x0 PUSH1 0x20 DUP3 ADD SWAP1 POP PUSH2 0x190F PUSH1 0x0 DUP4 ADD DUP5 PUSH2 0x18EB JUMP JUMPDEST SWAP3 SWAP2 POP POP JUMP JUMPDEST PUSH2 0x191E DUP2 PUSH2 0x1607 JUMP JUMPDEST DUP2 EQ PUSH2 0x1929 JUMPI PUSH1 0x0 DUP1 REVERT JUMPDEST POP JUMP JUMPDEST PUSH1 0x0 DUP2 CALLDATALOAD SWAP1 POP PUSH2 0x193B DUP2 PUSH2 0x1915 JUMP JUMPDEST SWAP3 SWAP2 POP POP JUMP JUMPDEST PUSH1 0x0 PUSH1 0x20 DUP3 DUP5 SUB SLT ISZERO PUSH2 0x1957 JUMPI PUSH2 0x1956 PUSH2 0x1645 JUMP JUMPDEST JUMPDEST PUSH1 0x0 PUSH2 0x1965 DUP5 DUP3 DUP6 ADD PUSH2 0x192C JUMP JUMPDEST SWAP2 POP POP SWAP3 SWAP2 POP POP JUMP JUMPDEST PUSH2 0x1977 DUP2 PUSH2 0x164F JUMP JUMPDEST DUP3 MSTORE POP POP JUMP JUMPDEST PUSH1 0x0 PUSH1 0x20 DUP3 ADD SWAP1 POP PUSH2 0x1992 PUSH1 0x0 DUP4 ADD DUP5 PUSH2 0x196E JUMP JUMPDEST SWAP3 SWAP2 POP POP JUMP JUMPDEST PUSH2 0x19A1 DUP2 PUSH2 0x1861 JUMP JUMPDEST DUP3 MSTORE POP POP JUMP JUMPDEST PUSH1 0x0 PUSH1 0x20 DUP3 ADD SWAP1 POP PUSH2 0x19BC PUSH1 0x0 DUP4 ADD DUP5 PUSH2 0x1998 JUMP JUMPDEST SWAP3 SWAP2 POP POP JUMP JUMPDEST PUSH1 0x0 DUP1 REVERT JUMPDEST PUSH1 0x0 DUP1 REVERT JUMPDEST PUSH1 0x0 DUP1 DUP4 PUSH1 0x1F DUP5 ADD SLT PUSH2 0x19E2 JUMPI PUSH2 0x19E1 PUSH2 0x16B2 JUMP JUMPDEST JUMPDEST DUP3 CALLDATALOAD SWAP1 POP PUSH8 0xFFFFFFFFFFFFFFFF DUP2 GT ISZERO PUSH2 0x19FF JUMPI PUSH2 0x19FE PUSH2 0x19C2 JUMP JUMPDEST JUMPDEST PUSH1 0x20 DUP4 ADD SWAP2 POP DUP4 PUSH1 0x20 DUP3 MUL DUP4 ADD GT ISZERO PUSH2 0x1A1B JUMPI PUSH2 0x1A1A PUSH2 0x19C7 JUMP JUMPDEST JUMPDEST SWAP3 POP SWAP3 SWAP1 POP JUMP JUMPDEST PUSH1 0x0 DUP1 PUSH1 0x20 DUP4 DUP6 SUB SLT ISZERO PUSH2 0x1A39 JUMPI PUSH2 0x1A38 PUSH2 0x1645 JUMP JUMPDEST JUMPDEST PUSH1 0x0 DUP4 ADD CALLDATALOAD PUSH8 0xFFFFFFFFFFFFFFFF DUP2 GT ISZERO PUSH2 0x1A57 JUMPI PUSH2 0x1A56 PUSH2 0x164A JUMP JUMPDEST JUMPDEST PUSH2 0x1A63 DUP6 DUP3 DUP7 ADD PUSH2 0x19CC JUMP JUMPDEST SWAP3 POP SWAP3 POP POP SWAP3 POP SWAP3 SWAP1 POP JUMP JUMPDEST PUSH1 0x0 DUP2 MLOAD SWAP1 POP SWAP2 SWAP1 POP JUMP JUMPDEST PUSH1 0x0 DUP3 DUP3 MSTORE PUSH1 0x20 DUP3 ADD SWAP1 POP SWAP3 SWAP2 POP POP JUMP JUMPDEST PUSH1 0x0 DUP2 SWAP1 POP PUSH1 0x20 DUP3 ADD SWAP1 POP SWAP2 SWAP1 POP JUMP JUMPDEST PUSH1 0x0 DUP2 MLOAD SWAP1 POP SWAP2 SWAP1 POP JUMP JUMPDEST PUSH1 0x0 DUP3 DUP3 MSTORE PUSH1 0x20 DUP3 ADD SWAP1 POP SWAP3 SWAP2 POP POP JUMP JUMPDEST PUSH1 0x0 JUMPDEST DUP4 DUP2 LT ISZERO PUSH2 0x1AD5 JUMPI DUP1 DUP3 ADD MLOAD DUP2 DUP5 ADD MSTORE PUSH1 0x20 DUP2 ADD SWAP1 POP PUSH2 0x1ABA JUMP JUMPDEST DUP4 DUP2 GT ISZERO PUSH2 0x1AE4 JUMPI PUSH1 0x0 DUP5 DUP5 ADD MSTORE JUMPDEST POP POP POP POP JUMP JUMPDEST PUSH1 0x0 PUSH2 0x1AF5 DUP3 PUSH2 0x1A9B JUMP JUMPDEST PUSH2 0x1AFF DUP2 DUP6 PUSH2 0x1AA6 JUMP JUMPDEST SWAP4 POP PUSH2 0x1B0F DUP2 DUP6 PUSH1 0x20 DUP7 ADD PUSH2 0x1AB7 JUMP JUMPDEST PUSH2 0x1B18 DUP2 PUSH2 0x16BC JUMP JUMPDEST DUP5 ADD SWAP2 POP POP SWAP3 SWAP2 POP POP JUMP JUMPDEST PUSH1 0x0 PUSH2 0x1B2F DUP4 DUP4 PUSH2 0x1AEA JUMP JUMPDEST SWAP1 POP SWAP3 SWAP2 POP POP JUMP JUMPDEST PUSH1 0x0 PUSH1 0x20 DUP3 ADD SWAP1 POP SWAP2 SWAP1 POP JUMP JUMPDEST PUSH1 0x0 PUSH2 0x1B4F DUP3 PUSH2 0x1A6F JUMP JUMPDEST PUSH2 0x1B59 DUP2 DUP6 PUSH2 0x1A7A JUMP JUMPDEST SWAP4 POP DUP4 PUSH1 0x20 DUP3 MUL DUP6 ADD PUSH2 0x1B6B DUP6 PUSH2 0x1A8B JUMP JUMPDEST DUP1 PUSH1 0x0 JUMPDEST DUP6 DUP2 LT ISZERO PUSH2 0x1BA7 JUMPI DUP5 DUP5 SUB DUP10 MSTORE DUP2 MLOAD PUSH2 0x1B88 DUP6 DUP3 PUSH2 0x1B23 JUMP JUMPDEST SWAP5 POP PUSH2 0x1B93 DUP4 PUSH2 0x1B37 JUMP JUMPDEST SWAP3 POP PUSH1 0x20 DUP11 ADD SWAP10 POP POP PUSH1 0x1 DUP2 ADD SWAP1 POP PUSH2 0x1B6F JUMP JUMPDEST POP DUP3 SWAP8 POP DUP8 SWAP6 POP POP POP POP POP POP SWAP3 SWAP2 POP POP JUMP JUMPDEST PUSH1 0x0 PUSH1 0x20 DUP3 ADD SWAP1 POP DUP2 DUP2 SUB PUSH1 0x0 DUP4 ADD MSTORE PUSH2 0x1BD3 DUP2 DUP5 PUSH2 0x1B44 JUMP JUMPDEST SWAP1 POP SWAP3 SWAP2 POP POP JUMP JUMPDEST PUSH1 0x0 DUP1 PUSH1 0x40 DUP4 DUP6 SUB SLT ISZERO PUSH2 0x1BF2 JUMPI PUSH2 0x1BF1 PUSH2 0x1645 JUMP JUMPDEST JUMPDEST PUSH1 0x0 PUSH2 0x1C00 DUP6 DUP3 DUP7 ADD PUSH2 0x1670 JUMP JUMPDEST SWAP3 POP POP PUSH1 0x20 PUSH2 0x1C11 DUP6 DUP3 DUP7 ADD PUSH2 0x192C JUMP JUMPDEST SWAP2 POP POP SWAP3 POP SWAP3 SWAP1 POP JUMP JUMPDEST PUSH1 0x0 DUP1 PUSH1 0x40 DUP4 DUP6 SUB SLT ISZERO PUSH2 0x1C32 JUMPI PUSH2 0x1C31 PUSH2 0x1645 JUMP JUMPDEST JUMPDEST PUSH1 0x0 DUP4 ADD CALLDATALOAD PUSH8 0xFFFFFFFFFFFFFFFF DUP2 GT ISZERO PUSH2 0x1C50 JUMPI PUSH2 0x1C4F PUSH2 0x164A JUMP JUMPDEST JUMPDEST PUSH2 0x1C5C DUP6 DUP3 DUP7 ADD PUSH2 0x17CA JUMP JUMPDEST SWAP3 POP POP PUSH1 0x20 PUSH2 0x1C6D DUP6 DUP3 DUP7 ADD PUSH2 0x188A JUMP JUMPDEST SWAP2 POP POP SWAP3 POP SWAP3 SWAP1 POP JUMP JUMPDEST PUSH1 0x0 DUP1 PUSH1 0x40 DUP4 DUP6 SUB SLT ISZERO PUSH2 0x1C8E JUMPI PUSH2 0x1C8D PUSH2 0x1645 JUMP JUMPDEST JUMPDEST PUSH1 0x0 DUP4 ADD CALLDATALOAD PUSH8 0xFFFFFFFFFFFFFFFF DUP2 GT ISZERO PUSH2 0x1CAC JUMPI PUSH2 0x1CAB PUSH2 0x164A JUMP JUMPDEST JUMPDEST PUSH2 0x1CB8 DUP6 DUP3 DUP7 ADD PUSH2 0x17CA JUMP JUMPDEST SWAP3 POP POP PUSH1 0x20 DUP4 ADD CALLDATALOAD PUSH8 0xFFFFFFFFFFFFFFFF DUP2 GT ISZERO PUSH2 0x1CD9 JUMPI PUSH2 0x1CD8 PUSH2 0x164A JUMP JUMPDEST JUMPDEST PUSH2 0x1CE5 DUP6 DUP3 DUP7 ADD PUSH2 0x17CA JUMP JUMPDEST SWAP2 POP POP SWAP3 POP SWAP3 SWAP1 POP JUMP JUMPDEST PUSH1 0x0 DUP3 DUP3 MSTORE PUSH1 0x20 DUP3 ADD SWAP1 POP SWAP3 SWAP2 POP POP JUMP JUMPDEST PUSH32 0x566F74696E67206973206E6F742061637469766520666F722074686973207061 PUSH1 0x0 DUP3 ADD MSTORE PUSH32 0x7065720000000000000000000000000000000000000000000000000000000000 PUSH1 0x20 DUP3 ADD MSTORE POP JUMP JUMPDEST PUSH1 0x0 PUSH2 0x1D5C PUSH1 0x23 DUP4 PUSH2 0x1CEF JUMP JUMPDEST SWAP2 POP PUSH2 0x1D67 DUP3 PUSH2 0x1D00 JUMP JUMPDEST PUSH1 0x40 DUP3 ADD SWAP1 POP SWAP2 SWAP1 POP JUMP JUMPDEST PUSH1 0x0 PUSH1 0x20 DUP3 ADD SWAP1 POP DUP2 DUP2 SUB PUSH1 0x0 DUP4 ADD MSTORE PUSH2 0x1D8B DUP2 PUSH2 0x1D4F JUMP JUMPDEST SWAP1 POP SWAP2 SWAP1 POP JUMP JUMPDEST PUSH32 0x416C726561647920766F74656400000000000000000000000000000000000000 PUSH1 0x0 DUP3 ADD MSTORE POP JUMP JUMPDEST PUSH1 0x0 PUSH2 0x1DC8 PUSH1 0xD DUP4 PUSH2 0x1CEF JUMP JUMPDEST SWAP2 POP PUSH2 0x1DD3 DUP3 PUSH2 0x1D92 JUMP JUMPDEST PUSH1 0x20 DUP3 ADD SWAP1 POP SWAP2 SWAP1 POP JUMP JUMPDEST PUSH1 0x0 PUSH1 0x20 DUP3 ADD SWAP1 POP DUP2 DUP2 SUB PUSH1 0x0 DUP4 ADD MSTORE PUSH2 0x1DF7 DUP2 PUSH2 0x1DBB JUMP JUMPDEST SWAP1 POP SWAP2 SWAP1 POP JUMP JUMPDEST PUSH32 0x4E487B7100000000000000000000000000000000000000000000000000000000 PUSH1 0x0 MSTORE PUSH1 0x11 PUSH1 0x4 MSTORE PUSH1 0x24 PUSH1 0x0 REVERT JUMPDEST PUSH1 0x0 PUSH2 0x1E38 DUP3 PUSH2 0x1607 JUMP JUMPDEST SWAP2 POP PUSH2 0x1E43 DUP4 PUSH2 0x1607 JUMP JUMPDEST SWAP3 POP DUP3 PUSH32 0xFFFFFFFFFFFFFFFFFFFFFFFFFFFFFFFFFFFFFFFFFFFFFFFFFFFFFFFFFFFFFFFF SUB DUP3 GT ISZERO PUSH2 0x1E78 JUMPI PUSH2 0x1E77 PUSH2 0x1DFE JUMP JUMPDEST JUMPDEST DUP3 DUP3 ADD SWAP1 POP SWAP3 SWAP2 POP POP JUMP JUMPDEST PUSH1 0x0 DUP2 MLOAD SWAP1 POP SWAP2 SWAP1 POP JUMP JUMPDEST PUSH1 0x0 PUSH2 0x1E99 DUP3 PUSH2 0x1E83 JUMP JUMPDEST PUSH2 0x1EA3 DUP2 DUP6 PUSH2 0x1CEF JUMP JUMPDEST SWAP4 POP PUSH2 0x1EB3 DUP2 DUP6 PUSH1 0x20 DUP7 ADD PUSH2 0x1AB7 JUMP JUMPDEST PUSH2 0x1EBC DUP2 PUSH2 0x16BC JUMP JUMPDEST DUP5 ADD SWAP2 POP POP SWAP3 SWAP2 POP POP JUMP JUMPDEST PUSH1 0x0 PUSH1 0x20 DUP3 ADD SWAP1 POP DUP2 DUP2 SUB PUSH1 0x0 DUP4 ADD MSTORE PUSH2 0x1EE1 DUP2 DUP5 PUSH2 0x1E8E JUMP JUMPDEST SWAP1 POP SWAP3 SWAP2 POP POP JUMP JUMPDEST PUSH32 0x566F74696E672069732061637469766500000000000000000000000000000000 PUSH1 0x0 DUP3 ADD MSTORE POP JUMP JUMPDEST PUSH1 0x0 PUSH2 0x1F1F PUSH1 0x10 DUP4 PUSH2 0x1CEF JUMP JUMPDEST SWAP2 POP PUSH2 0x1F2A DUP3 PUSH2 0x1EE9 JUMP JUMPDEST PUSH1 0x20 DUP3 ADD SWAP1 POP SWAP2 SWAP1 POP JUMP JUMPDEST PUSH1 0x0 PUSH1 0x20 DUP3 ADD SWAP1 POP DUP2 DUP2 SUB PUSH1 0x0 DUP4 ADD MSTORE PUSH2 0x1F4E DUP2 PUSH2 0x1F12 JUMP JUMPDEST SWAP1 POP SWAP2 SWAP1 POP JUMP JUMPDEST PUSH32 0x6368616C6C656E676572206C6F737420746865206368616C6C656E6765000000 PUSH1 0x0 DUP3 ADD MSTORE POP JUMP JUMPDEST PUSH1 0x0 PUSH2 0x1F8B PUSH1 0x1D DUP4 PUSH2 0x1CEF JUMP JUMPDEST SWAP2 POP PUSH2 0x1F96 DUP3 PUSH2 0x1F55 JUMP JUMPDEST PUSH1 0x20 DUP3 ADD SWAP1 POP SWAP2 SWAP1 POP JUMP JUMPDEST PUSH1 0x0 PUSH1 0x20 DUP3 ADD SWAP1 POP DUP2 DUP2 SUB PUSH1 0x0 DUP4 ADD MSTORE PUSH2 0x1FBA DUP2 PUSH2 0x1F7E JUMP JUMPDEST SWAP1 POP SWAP2 SWAP1 POP JUMP JUMPDEST PUSH1 0x0 PUSH1 0x40 DUP3 ADD SWAP1 POP DUP2 DUP2 SUB PUSH1 0x0 DUP4 ADD MSTORE PUSH2 0x1FDB DUP2 DUP6 PUSH2 0x1E8E JUMP JUMPDEST SWAP1 POP PUSH2 0x1FEA PUSH1 0x20 DUP4 ADD DUP5 PUSH2 0x1611 JUMP JUMPDEST SWAP4 SWAP3 POP POP POP JUMP JUMPDEST PUSH32 0x4E487B7100000000000000000000000000000000000000000000000000000000 PUSH1 0x0 MSTORE PUSH1 0x32 PUSH1 0x4 MSTORE PUSH1 0x24 PUSH1 0x0 REVERT JUMPDEST PUSH1 0x0 DUP1 REVERT JUMPDEST PUSH1 0x0 DUP1 REVERT JUMPDEST PUSH1 0x0 DUP1 REVERT JUMPDEST PUSH1 0x0 DUP1 DUP4 CALLDATALOAD PUSH1 0x1 PUSH1 0x20 SUB DUP5 CALLDATASIZE SUB SUB DUP2 SLT PUSH2 0x204C JUMPI PUSH2 0x204B PUSH2 0x2020 JUMP JUMPDEST JUMPDEST DUP1 DUP5 ADD SWAP3 POP DUP3 CALLDATALOAD SWAP2 POP PUSH8 0xFFFFFFFFFFFFFFFF DUP3 GT ISZERO PUSH2 0x206E JUMPI PUSH2 0x206D PUSH2 0x2025 JUMP JUMPDEST JUMPDEST PUSH1 0x20 DUP4 ADD SWAP3 POP PUSH1 0x1 DUP3 MUL CALLDATASIZE SUB DUP4 SGT ISZERO PUSH2 0x208A JUMPI PUSH2 0x2089 PUSH2 0x202A JUMP JUMPDEST JUMPDEST POP SWAP3 POP SWAP3 SWAP1 POP JUMP JUMPDEST PUSH1 0x0 PUSH2 0x209D DUP3 PUSH2 0x1607 JUMP JUMPDEST SWAP2 POP PUSH32 0xFFFFFFFFFFFFFFFFFFFFFFFFFFFFFFFFFFFFFFFFFFFFFFFFFFFFFFFFFFFFFFFF DUP3 EQ ISZERO PUSH2 0x20D0 JUMPI PUSH2 0x20CF PUSH2 0x1DFE JUMP JUMPDEST JUMPDEST PUSH1 0x1 DUP3 ADD SWAP1 POP SWAP2 SWAP1 POP JUMP JUMPDEST PUSH32 0x70617065724F776E6572206C6F737420746865206368616C6C656E6765000000 PUSH1 0x0 DUP3 ADD MSTORE POP JUMP JUMPDEST PUSH1 0x0 PUSH2 0x2111 PUSH1 0x1D DUP4 PUSH2 0x1CEF JUMP JUMPDEST SWAP2 POP PUSH2 0x211C DUP3 PUSH2 0x20DB JUMP JUMPDEST PUSH1 0x20 DUP3 ADD SWAP1 POP SWAP2 SWAP1 POP JUMP JUMPDEST PUSH1 0x0 PUSH1 0x20 DUP3 ADD SWAP1 POP DUP2 DUP2 SUB PUSH1 0x0 DUP4 ADD MSTORE PUSH2 0x2140 DUP2 PUSH2 0x2104 JUMP JUMPDEST SWAP1 POP SWAP2 SWAP1 POP JUMP JUMPDEST PUSH32 0x496E73756666696369656E7420616D6F756E7420666F72206465747261637400 PUSH1 0x0 DUP3 ADD MSTORE POP JUMP JUMPDEST PUSH1 0x0 PUSH2 0x217D PUSH1 0x1F DUP4 PUSH2 0x1CEF JUMP JUMPDEST SWAP2 POP PUSH2 0x2188 DUP3 PUSH2 0x2147 JUMP JUMPDEST PUSH1 0x20 DUP3 ADD SWAP1 POP SWAP2 SWAP1 POP JUMP JUMPDEST PUSH1 0x0 PUSH1 0x20 DUP3 ADD SWAP1 POP DUP2 DUP2 SUB PUSH1 0x0 DUP4 ADD MSTORE PUSH2 0x21AC DUP2 PUSH2 0x2170 JUMP JUMPDEST SWAP1 POP SWAP2 SWAP1 POP JUMP JUMPDEST PUSH32 0x566F74696E6720697320616C72656164792061637469766520666F7220746869 PUSH1 0x0 DUP3 ADD MSTORE PUSH32 0x7320706170657200000000000000000000000000000000000000000000000000 PUSH1 0x20 DUP3 ADD MSTORE POP JUMP JUMPDEST PUSH1 0x0 PUSH2 0x220F PUSH1 0x27 DUP4 PUSH2 0x1CEF JUMP JUMPDEST SWAP2 POP PUSH2 0x221A DUP3 PUSH2 0x21B3 JUMP JUMPDEST PUSH1 0x40 DUP3 ADD SWAP1 POP SWAP2 SWAP1 POP JUMP JUMPDEST PUSH1 0x0 PUSH1 0x20 DUP3 ADD SWAP1 POP DUP2 DUP2 SUB PUSH1 0x0 DUP4 ADD MSTORE PUSH2 0x223E DUP2 PUSH2 0x2202 JUMP JUMPDEST SWAP1 POP SWAP2 SWAP1 POP JUMP JUMPDEST PUSH1 0x0 PUSH1 0x40 DUP3 ADD SWAP1 POP DUP2 DUP2 SUB PUSH1 0x0 DUP4 ADD MSTORE PUSH2 0x225F DUP2 DUP6 PUSH2 0x1E8E JUMP JUMPDEST SWAP1 POP DUP2 DUP2 SUB PUSH1 0x20 DUP4 ADD MSTORE PUSH2 0x2273 DUP2 DUP5 PUSH2 0x1E8E JUMP JUMPDEST SWAP1 POP SWAP4 SWAP3 POP POP POP JUMP JUMPDEST PUSH1 0x0 DUP2 SWAP1 POP SWAP3 SWAP2 POP POP JUMP JUMPDEST PUSH1 0x0 PUSH2 0x2292 DUP3 PUSH2 0x1A9B JUMP JUMPDEST PUSH2 0x229C DUP2 DUP6 PUSH2 0x227C JUMP JUMPDEST SWAP4 POP PUSH2 0x22AC DUP2 DUP6 PUSH1 0x20 DUP7 ADD PUSH2 0x1AB7 JUMP JUMPDEST DUP1 DUP5 ADD SWAP2 POP POP SWAP3 SWAP2 POP POP JUMP JUMPDEST PUSH1 0x0 PUSH2 0x22C4 DUP3 DUP5 PUSH2 0x2287 JUMP JUMPDEST SWAP2 POP DUP2 SWAP1 POP SWAP3 SWAP2 POP POP JUMP JUMPDEST PUSH32 0x416464726573733A2063616C6C20746F206E6F6E2D636F6E7472616374000000 PUSH1 0x0 DUP3 ADD MSTORE POP JUMP JUMPDEST PUSH1 0x0 PUSH2 0x2305 PUSH1 0x1D DUP4 PUSH2 0x1CEF JUMP JUMPDEST SWAP2 POP PUSH2 0x2310 DUP3 PUSH2 0x22CF JUMP JUMPDEST PUSH1 0x20 DUP3 ADD SWAP1 POP SWAP2 SWAP1 POP JUMP JUMPDEST PUSH1 0x0 PUSH1 0x20 DUP3 ADD SWAP1 POP DUP2 DUP2 SUB PUSH1 0x0 DUP4 ADD MSTORE PUSH2 0x2334 DUP2 PUSH2 0x22F8 JUMP JUMPDEST SWAP1 POP SWAP2 SWAP1 POP JUMP JUMPDEST PUSH1 0x0 PUSH2 0x2346 DUP3 PUSH2 0x1607 JUMP JUMPDEST SWAP2 POP PUSH2 0x2351 DUP4 PUSH2 0x1607 JUMP JUMPDEST SWAP3 POP DUP3 DUP3 LT ISZERO PUSH2 0x2364 JUMPI PUSH2 0x2363 PUSH2 0x1DFE JUMP JUMPDEST JUMPDEST DUP3 DUP3 SUB SWAP1 POP SWAP3 SWAP2 POP POP JUMP JUMPDEST PUSH32 0x4E487B7100000000000000000000000000000000000000000000000000000000 PUSH1 0x0 MSTORE PUSH1 0x31 PUSH1 0x4 MSTORE PUSH1 0x24 PUSH1 0x0 REVERT INVALID COINBASE PUSH5 0x6472657373 GASPRICE KECCAK256 PUSH13 0x6F772D6C6576656C2064656C65 PUSH8 0x6174652063616C6C KECCAK256 PUSH7 0x61696C6564A264 PUSH10 0x706673582212206E711E PUSH27 0x734270269D9ADA436A327237DFE863A903F9D0DB2E85279C94460E SWAP14 PUSH5 0x736F6C6343 STOP ADDMOD MULMOD STOP CALLER "},"methodIdentifiers":{"_updateDetractStakeAmountOfPaper(bytes32,uint256)":"c1282f6f","challengeInitiationTime(bytes32)":"07d42ac5","challengePaper(string,string)":"f0b06e19","challenger(bytes32)":"caa27fa4","changeMinimumStakingAmountForDetract(uint256)":"ab290ccc","changeVotingPeriod(uint256)":"5832cf59","claimAmountByChallenger(string)":"4af52b82","claimAmountByPaperOwner(string)":"d3789425","downVote(string)":"462ff503","downVoteCount(bytes32)":"bdfd1730","findHash(string)":"70c75107","hasVoted(address,bytes32)":"4a1dc5cc","minStakingAmountForDetract()":"56f96380","multicall(bytes[])":"ac9650d8","paperOwner(bytes32)":"89c61c15","paperRetractionEvidence(bytes32)":"9f0faef7","publishPaper(string,address)":"d0c02e34","retractionStakeAmount(bytes32)":"2ed4ef56","upVote(string)":"a1d9def2","upVoteCount(bytes32)":"a32a12de","votingPeriod()":"02a251a3"}}}}}