{"src/contracts/Detract.sol":{"Detract":{"abi":[{"anonymous":false,"inputs":[{"indexed":true,"internalType":"bytes32","name":"paperHash","type":"bytes32"},{"indexed":true,"internalType":"address","name":"challenger","type":"address"},{"indexed":true,"internalType":"uint256","name":"amount","type":"uint256"}],"name":"ChallengeCreated","type":"event"},{"anonymous":false,"inputs":[{"indexed":true,"internalType":"bytes32","name":"paperHash","type":"bytes32"},{"indexed":true,"internalType":"address","name":"challenger","type":"address"},{"indexed":true,"internalType":"uint256","name":"amount","type":"uint256"}],"name":"ClaimedByChallenger","type":"event"},{"anonymous":false,"inputs":[{"indexed":true,"internalType":"bytes32","name":"paperHash","type":"bytes32"},{"indexed":true,"internalType":"address","name":"paperOwner","type":"address"},{"indexed":true,"internalType":"uint256","name":"amount","type":"uint256"}],"name":"ClaimedByPaperOwner","type":"event"},{"anonymous":false,"inputs":[{"indexed":true,"internalType":"bytes32","name":"paperHash","type":"bytes32"},{"indexed":true,"internalType":"address","name":"voter","type":"address"}],"name":"DownVoted","type":"event"},{"anonymous":false,"inputs":[{"indexed":true,"internalType":"string","name":"paper","type":"string"},{"indexed":true,"internalType":"address","name":"owner","type":"address"}],"name":"PaperPublished","type":"event"},{"anonymous":false,"inputs":[{"indexed":true,"internalType":"bytes32","name":"paperHash","type":"bytes32"},{"indexed":true,"internalType":"address","name":"voter","type":"address"}],"name":"UpVoted","type":"event"},{"inputs":[{"internalType":"bytes32","name":"_paperHash","type":"bytes32"},{"internalType":"uint256","name":"_amount","type":"uint256"}],"name":"_updateDetractStakeAmountOfPaper","outputs":[],"stateMutability":"nonpayable","type":"function"},{"inputs":[{"internalType":"bytes32","name":"","type":"bytes32"}],"name":"challengeInitiationTime","outputs":[{"internalType":"uint256","name":"","type":"uint256"}],"stateMutability":"view","type":"function"},{"inputs":[{"internalType":"string","name":"_paper","type":"string"},{"internalType":"string","name":"_evidence","type":"string"}],"name":"challengePaper","outputs":[],"stateMutability":"payable","type":"function"},{"inputs":[{"internalType":"bytes32","name":"","type":"bytes32"}],"name":"challenger","outputs":[{"internalType":"address","name":"","type":"address"}],"stateMutability":"view","type":"function"},{"inputs":[{"internalType":"uint256","name":"_amount","type":"uint256"}],"name":"changeMinimumStakingAmountForDetract","outputs":[],"stateMutability":"nonpayable","type":"function"},{"inputs":[{"internalType":"uint256","name":"_time","type":"uint256"}],"name":"changeVotingPeriod","outputs":[],"stateMutability":"nonpayable","type":"function"},{"inputs":[{"internalType":"string","name":"_paper","type":"string"}],"name":"claimAmountByChallenger","outputs":[],"stateMutability":"nonpayable","type":"function"},{"inputs":[{"internalType":"string","name":"_paper","type":"string"}],"name":"claimAmountByPaperOwner","outputs":[],"stateMutability":"nonpayable","type":"function"},{"inputs":[{"internalType":"string","name":"_paper","type":"string"}],"name":"downVote","outputs":[],"stateMutability":"nonpayable","type":"function"},{"inputs":[{"internalType":"bytes32","name":"","type":"bytes32"}],"name":"downVoteCount","outputs":[{"internalType":"uint256","name":"","type":"uint256"}],"stateMutability":"view","type":"function"},{"inputs":[{"internalType":"string","name":"_paper","type":"string"}],"name":"findHash","outputs":[{"internalType":"bytes32","name":"","type":"bytes32"}],"stateMutability":"pure","type":"function"},{"inputs":[{"internalType":"address","name":"","type":"address"},{"internalType":"bytes32","name":"","type":"bytes32"}],"name":"hasVoted","outputs":[{"internalType":"bool","name":"","type":"bool"}],"stateMutability":"view","type":"function"},{"inputs":[],"name":"minStakingAmountForDetract","outputs":[{"internalType":"uint256","name":"","type":"uint256"}],"stateMutability":"view","type":"function"},{"inputs":[{"internalType":"bytes[]","name":"data","type":"bytes[]"}],"name":"multicall","outputs":[{"internalType":"bytes[]","name":"results","type":"bytes[]"}],"stateMutability":"nonpayable","type":"function"},{"inputs":[{"internalType":"bytes32","name":"","type":"bytes32"}],"name":"paperOwner","outputs":[{"internalType":"address","name":"","type":"address"}],"stateMutability":"view","type":"function"},{"inputs":[{"internalType":"bytes32","name":"","type":"bytes32"}],"name":"paperRetractionEvidence","outputs":[{"internalType":"bytes32","name":"","type":"bytes32"}],"stateMutability":"view","type":"function"},{"inputs":[{"internalType":"string","name":"_paper","type":"string"},{"internalType":"address","name":"_owner","type":"address"}],"name":"publishPaper","outputs":[],"stateMutability":"nonpayable","type":"function"},{"inputs":[{"internalType":"bytes32","name":"","type":"bytes32"}],"name":"retractionStakeAmount","outputs":[{"internalType":"uint256","name":"","type":"uint256"}],"stateMutability":"view","type":"function"},{"inputs":[{"internalType":"string","name":"_paper","type":"string"}],"name":"upVote","outputs":[],"stateMutability":"nonpayable","type":"function"},{"inputs":[{"internalType":"bytes32","name":"","type":"bytes32"}],"name":"upVoteCount","outputs":[{"internalType":"uint256","name":"","type":"uint256"}],"stateMutability":"view","type":"function"},{"inputs":[],"name":"votingPeriod","outputs":[{"internalType":"uint256","name":"","type":"uint256"}],"stateMutability":"view","type":"function"},{"stateMutability":"payable","type":"receive"}],"evm":{"bytecode":{"linkReferences":{},"object":"608060405262093a80600055655af3107a400060015534801561002157600080fd5b506123b7806100316000396000f3fe60806040526004361061012e5760003560e01c80639f0faef7116100ab578063bdfd17301161006f578063bdfd173014610445578063c1282f6f14610482578063caa27fa4146104ab578063d0c02e34146104e8578063d378942514610511578063f0b06e191461053a57610135565b80639f0faef71461033c578063a1d9def214610379578063a32a12de146103a2578063ab290ccc146103df578063ac9650d81461040857610135565b80634af52b82116100f25780634af52b821461024557806356f963801461026e5780635832cf591461029957806370c75107146102c257806389c61c15146102ff57610135565b806302a251a31461013a57806307d42ac5146101655780632ed4ef56146101a2578063462ff503146101df5780634a1dc5cc1461020857610135565b3661013557005b600080fd5b34801561014657600080fd5b5061014f610556565b60405161015c91906115f0565b60405180910390f35b34801561017157600080fd5b5061018c60048036038101906101879190611655565b61055c565b60405161019991906115f0565b60405180910390f35b3480156101ae57600080fd5b506101c960048036038101906101c49190611655565b610574565b6040516101d691906115f0565b60405180910390f35b3480156101eb57600080fd5b50610206600480360381019061020191906117c8565b61058c565b005b34801561021457600080fd5b5061022f600480360381019061022a919061186f565b610771565b60405161023c91906118ca565b60405180910390f35b34801561025157600080fd5b5061026c600480360381019061026791906117c8565b6107a0565b005b34801561027a57600080fd5b50610283610947565b60405161029091906115f0565b60405180910390f35b3480156102a557600080fd5b506102c060048036038101906102bb9190611911565b61094d565b005b3480156102ce57600080fd5b506102e960048036038101906102e491906117c8565b610957565b6040516102f6919061194d565b60405180910390f35b34801561030b57600080fd5b5061032660048036038101906103219190611655565b610968565b6040516103339190611977565b60405180910390f35b34801561034857600080fd5b50610363600480360381019061035e9190611655565b61099b565b604051610370919061194d565b60405180910390f35b34801561038557600080fd5b506103a0600480360381019061039b91906117c8565b6109b3565b005b3480156103ae57600080fd5b506103c960048036038101906103c49190611655565b610b98565b6040516103d691906115f0565b60405180910390f35b3480156103eb57600080fd5b5061040660048036038101906104019190611911565b610bb0565b005b34801561041457600080fd5b5061042f600480360381019061042a91906119f2565b610bba565b60405161043c9190611b89565b60405180910390f35b34801561045157600080fd5b5061046c60048036038101906104679190611655565b610cc6565b60405161047991906115f0565b60405180910390f35b34801561048e57600080fd5b506104a960048036038101906104a49190611bab565b610cde565b005b3480156104b757600080fd5b506104d260048036038101906104cd9190611655565b610d0c565b6040516104df9190611977565b60405180910390f35b3480156104f457600080fd5b5061050f600480360381019061050a9190611beb565b610d3f565b005b34801561051d57600080fd5b50610538600480360381019061053391906117c8565b610db4565b005b610554600480360381019061054f9190611c47565b610f28565b005b60005481565b60046020528060005260406000206000915090505481565b60056020528060005260406000206000915090505481565b80600061059882610957565b90506105a3816110d9565b6105e2576040517f08c379a00000000000000000000000000000000000000000000000000000000081526004016105d990611d42565b60405180910390fd5b60006105ed84610957565b905060001515600a60003373ffffffffffffffffffffffffffffffffffffffff1673ffffffffffffffffffffffffffffffffffffffff168152602001908152602001600020600083815260200190815260200160002060009054906101000a900460ff16151514610693576040517f08c379a000000000000000000000000000000000000000000000000000000000815260040161068a90611dae565b60405180910390fd5b60016003600083815260200190815260200160002060008282546106b79190611dfd565b925050819055506001600a60003373ffffffffffffffffffffffffffffffffffffffff1673ffffffffffffffffffffffffffffffffffffffff168152602001908152602001600020600083815260200190815260200160002060006101000a81548160ff0219169083151502179055503373ffffffffffffffffffffffffffffffffffffffff16817f64ecddf5d5c9d48566d19a66ddc9aee61ff5413c6ff29970ae3c7a969b43ea9c60405160405180910390a350505050565b600a6020528160005260406000206020528060005260406000206000915091509054906101000a900460ff1681565b60006107ab82610957565b90506107b6816110d9565b156107f6576040517f08c379a00000000000000000000000000000000000000000000000000000000081526004016107ed90611e9f565b60405180910390fd5b600360008281526020019081526020016000205460026000838152602001908152602001600020541161085e576040517f08c379a000000000000000000000000000000000000000000000000000000000815260040161085590611f0b565b60405180910390fd5b6009600082815260200190815260200160002060009054906101000a900473ffffffffffffffffffffffffffffffffffffffff1673ffffffffffffffffffffffffffffffffffffffff166108fc60056000848152602001908152602001600020549081150290604051600060405180830381858888f193505050501580156108ea573d6000803e3d6000fd5b5060056000828152602001908152602001600020543373ffffffffffffffffffffffffffffffffffffffff16827f2fab4ea8480ac6694bb79bfcb1d1210e47e715befc2c5d9d9e44a1c268dbab2960405160405180910390a45050565b60015481565b8060008190555050565b600081805190602001209050919050565b60096020528060005260406000206000915054906101000a900473ffffffffffffffffffffffffffffffffffffffff1681565b60076020528060005260406000206000915090505481565b8060006109bf82610957565b90506109ca816110d9565b610a09576040517f08c379a0000000000000000000000000000000000000000000000000000000008152600401610a0090611d42565b60405180910390fd5b6000610a1484610957565b905060001515600a60003373ffffffffffffffffffffffffffffffffffffffff1673ffffffffffffffffffffffffffffffffffffffff168152602001908152602001600020600083815260200190815260200160002060009054906101000a900460ff16151514610aba576040517f08c379a0000000000000000000000000000000000000000000000000000000008152600401610ab190611dae565b60405180910390fd5b6001600260008381526020019081526020016000206000828254610ade9190611dfd565b925050819055506001600a60003373ffffffffffffffffffffffffffffffffffffffff1673ffffffffffffffffffffffffffffffffffffffff168152602001908152602001600020600083815260200190815260200160002060006101000a81548160ff0219169083151502179055503373ffffffffffffffffffffffffffffffffffffffff16817fcc195c10dd1e36e4ca68916315651981750e43459dc0de66f01ed86876583cc360405160405180910390a350505050565b60026020528060005260406000206000915090505481565b8060018190555050565b60608282905067ffffffffffffffff811115610bd957610bd861169d565b5b604051908082528060200260200182016040528015610c0c57816020015b6060815260200190600190039081610bf75790505b50905060005b83839050811015610cbf57610c8e30858584818110610c3457610c33611f2b565b5b9050602002810190610c469190611f69565b8080601f016020809104026020016040519081016040528093929190818152602001838380828437600081840152601f19601f82011690508083019250505050505050611104565b828281518110610ca157610ca0611f2b565b5b60200260200101819052508080610cb790611fcc565b915050610c12565b5092915050565b60036020528060005260406000206000915090505481565b80600560008481526020019081526020016000206000828254610d019190611dfd565b925050819055505050565b60066020528060005260406000206000915054906101000a900473ffffffffffffffffffffffffffffffffffffffff1681565b6000610d4a83610957565b9050610d568282611131565b8173ffffffffffffffffffffffffffffffffffffffff1683604051610d7b919061205c565b60405180910390207f23db1183646106307a677a523d5fb80eb4f84088e19d654003c1b035b000df1060405160405180910390a3505050565b6000610dbf82610957565b9050610dca816110d9565b15610e0a576040517f08c379a0000000000000000000000000000000000000000000000000000000008152600401610e0190611e9f565b60405180910390fd5b6002600082815260200190815260200160002054600360008381526020019081526020016000205411610e72576040517f08c379a0000000000000000000000000000000000000000000000000000000008152600401610e69906120bf565b60405180910390fd5b3373ffffffffffffffffffffffffffffffffffffffff166108fc60056000848152602001908152602001600020549081150290604051600060405180830381858888f19350505050158015610ecb573d6000803e3d6000fd5b5060056000828152602001908152602001600020543373ffffffffffffffffffffffffffffffffffffffff16827fa567af9e43744328d277239aed836bbdc20f9f3de23245ae065b04affa512ec060405160405180910390a45050565b6000610f3383610957565b90506000610f4083610957565b9050600154341015610f87576040517f08c379a0000000000000000000000000000000000000000000000000000000008152600401610f7e9061212b565b60405180910390fd5b610f90826110d9565b15610fd0576040517f08c379a0000000000000000000000000000000000000000000000000000000008152600401610fc7906121bd565b60405180910390fd5b610fda8234610cde565b6000600260008481526020019081526020016000208190555060006003600084815260200190815260200160002081905550426004600084815260200190815260200160002081905550806007600084815260200190815260200160002081905550336006600084815260200190815260200160002060006101000a81548173ffffffffffffffffffffffffffffffffffffffff021916908373ffffffffffffffffffffffffffffffffffffffff160217905550343373ffffffffffffffffffffffffffffffffffffffff16837fd26ab04488ec637d788718439a7fb88013e8272c2ab9d9014cb0865365b054b360405160405180910390a450505050565b6000805460046000848152602001908152602001600020546110fb9190611dfd565b42109050919050565b6060611129838360405180606001604052806027815260200161235b60279139611293565b905092915050565b600073ffffffffffffffffffffffffffffffffffffffff166009600083815260200190815260200160002060009054906101000a900473ffffffffffffffffffffffffffffffffffffffff1673ffffffffffffffffffffffffffffffffffffffff16146111eb576111e981600860008573ffffffffffffffffffffffffffffffffffffffff1673ffffffffffffffffffffffffffffffffffffffff16815260200190815260200160002061131990919063ffffffff16565b505b61123c81600860008573ffffffffffffffffffffffffffffffffffffffff1673ffffffffffffffffffffffffffffffffffffffff16815260200190815260200160002061133090919063ffffffff16565b50816009600083815260200190815260200160002060006101000a81548173ffffffffffffffffffffffffffffffffffffffff021916908373ffffffffffffffffffffffffffffffffffffffff1602179055505050565b60606000808573ffffffffffffffffffffffffffffffffffffffff16856040516112bd9190612219565b600060405180830381855af49150503d80600081146112f8576040519150601f19603f3d011682016040523d82523d6000602084013e6112fd565b606091505b509150915061130e86838387611347565b925050509392505050565b600061132883600001836113bd565b905092915050565b600061133f83600001836114d1565b905092915050565b606083156113aa576000835114156113a25761136285611541565b6113a1576040517f08c379a00000000000000000000000000000000000000000000000000000000081526004016113989061227c565b60405180910390fd5b5b8290506113b5565b6113b48383611564565b5b949350505050565b600080836001016000848152602001908152602001600020549050600081146114c55760006001826113ef919061229c565b9050600060018660000180549050611407919061229c565b905081811461147657600086600001828154811061142857611427611f2b565b5b906000526020600020015490508087600001848154811061144c5761144b611f2b565b5b90600052602060002001819055508387600101600083815260200190815260200160002081905550505b8560000180548061148a576114896122d0565b5b6001900381819060005260206000200160009055905585600101600086815260200190815260200160002060009055600193505050506114cb565b60009150505b92915050565b60006114dd83836115b4565b61153657826000018290806001815401808255809150506001900390600052602060002001600090919091909150558260000180549050836001016000848152602001908152602001600020819055506001905061153b565b600090505b92915050565b6000808273ffffffffffffffffffffffffffffffffffffffff163b119050919050565b6000825111156115775781518083602001fd5b806040517f08c379a00000000000000000000000000000000000000000000000000000000081526004016115ab9190612338565b60405180910390fd5b600080836001016000848152602001908152602001600020541415905092915050565b6000819050919050565b6115ea816115d7565b82525050565b600060208201905061160560008301846115e1565b92915050565b6000604051905090565b600080fd5b600080fd5b6000819050919050565b6116328161161f565b811461163d57600080fd5b50565b60008135905061164f81611629565b92915050565b60006020828403121561166b5761166a611615565b5b600061167984828501611640565b91505092915050565b600080fd5b600080fd5b6000601f19601f8301169050919050565b7f4e487b7100000000000000000000000000000000000000000000000000000000600052604160045260246000fd5b6116d58261168c565b810181811067ffffffffffffffff821117156116f4576116f361169d565b5b80604052505050565b600061170761160b565b905061171382826116cc565b919050565b600067ffffffffffffffff8211156117335761173261169d565b5b61173c8261168c565b9050602081019050919050565b82818337600083830152505050565b600061176b61176684611718565b6116fd565b90508281526020810184848401111561178757611786611687565b5b611792848285611749565b509392505050565b600082601f8301126117af576117ae611682565b5b81356117bf848260208601611758565b91505092915050565b6000602082840312156117de576117dd611615565b5b600082013567ffffffffffffffff8111156117fc576117fb61161a565b5b6118088482850161179a565b91505092915050565b600073ffffffffffffffffffffffffffffffffffffffff82169050919050565b600061183c82611811565b9050919050565b61184c81611831565b811461185757600080fd5b50565b60008135905061186981611843565b92915050565b6000806040838503121561188657611885611615565b5b60006118948582860161185a565b92505060206118a585828601611640565b9150509250929050565b60008115159050919050565b6118c4816118af565b82525050565b60006020820190506118df60008301846118bb565b92915050565b6118ee816115d7565b81146118f957600080fd5b50565b60008135905061190b816118e5565b92915050565b60006020828403121561192757611926611615565b5b6000611935848285016118fc565b91505092915050565b6119478161161f565b82525050565b6000602082019050611962600083018461193e565b92915050565b61197181611831565b82525050565b600060208201905061198c6000830184611968565b92915050565b600080fd5b600080fd5b60008083601f8401126119b2576119b1611682565b5b8235905067ffffffffffffffff8111156119cf576119ce611992565b5b6020830191508360208202830111156119eb576119ea611997565b5b9250929050565b60008060208385031215611a0957611a08611615565b5b600083013567ffffffffffffffff811115611a2757611a2661161a565b5b611a338582860161199c565b92509250509250929050565b600081519050919050565b600082825260208201905092915050565b6000819050602082019050919050565b600081519050919050565b600082825260208201905092915050565b60005b83811015611aa5578082015181840152602081019050611a8a565b83811115611ab4576000848401525b50505050565b6000611ac582611a6b565b611acf8185611a76565b9350611adf818560208601611a87565b611ae88161168c565b840191505092915050565b6000611aff8383611aba565b905092915050565b6000602082019050919050565b6000611b1f82611a3f565b611b298185611a4a565b935083602082028501611b3b85611a5b565b8060005b85811015611b775784840389528151611b588582611af3565b9450611b6383611b07565b925060208a01995050600181019050611b3f565b50829750879550505050505092915050565b60006020820190508181036000830152611ba38184611b14565b905092915050565b60008060408385031215611bc257611bc1611615565b5b6000611bd085828601611640565b9250506020611be1858286016118fc565b9150509250929050565b60008060408385031215611c0257611c01611615565b5b600083013567ffffffffffffffff811115611c2057611c1f61161a565b5b611c2c8582860161179a565b9250506020611c3d8582860161185a565b9150509250929050565b60008060408385031215611c5e57611c5d611615565b5b600083013567ffffffffffffffff811115611c7c57611c7b61161a565b5b611c888582860161179a565b925050602083013567ffffffffffffffff811115611ca957611ca861161a565b5b611cb58582860161179a565b9150509250929050565b600082825260208201905092915050565b7f566f74696e67206973206e6f742061637469766520666f72207468697320706160008201527f7065720000000000000000000000000000000000000000000000000000000000602082015250565b6000611d2c602383611cbf565b9150611d3782611cd0565b604082019050919050565b60006020820190508181036000830152611d5b81611d1f565b9050919050565b7f416c726561647920766f74656400000000000000000000000000000000000000600082015250565b6000611d98600d83611cbf565b9150611da382611d62565b602082019050919050565b60006020820190508181036000830152611dc781611d8b565b9050919050565b7f4e487b7100000000000000000000000000000000000000000000000000000000600052601160045260246000fd5b6000611e08826115d7565b9150611e13836115d7565b9250827fffffffffffffffffffffffffffffffffffffffffffffffffffffffffffffffff03821115611e4857611e47611dce565b5b828201905092915050565b7f566f74696e672069732061637469766500000000000000000000000000000000600082015250565b6000611e89601083611cbf565b9150611e9482611e53565b602082019050919050565b60006020820190508181036000830152611eb881611e7c565b9050919050565b7f6368616c6c656e676572206c6f737420746865206368616c6c656e6765000000600082015250565b6000611ef5601d83611cbf565b9150611f0082611ebf565b602082019050919050565b60006020820190508181036000830152611f2481611ee8565b9050919050565b7f4e487b7100000000000000000000000000000000000000000000000000000000600052603260045260246000fd5b600080fd5b600080fd5b600080fd5b60008083356001602003843603038112611f8657611f85611f5a565b5b80840192508235915067ffffffffffffffff821115611fa857611fa7611f5f565b5b602083019250600182023603831315611fc457611fc3611f64565b5b509250929050565b6000611fd7826115d7565b91507fffffffffffffffffffffffffffffffffffffffffffffffffffffffffffffffff82141561200a57612009611dce565b5b600182019050919050565b600081519050919050565b600081905092915050565b600061203682612015565b6120408185612020565b9350612050818560208601611a87565b80840191505092915050565b6000612068828461202b565b915081905092915050565b7f70617065724f776e6572206c6f737420746865206368616c6c656e6765000000600082015250565b60006120a9601d83611cbf565b91506120b482612073565b602082019050919050565b600060208201905081810360008301526120d88161209c565b9050919050565b7f496e73756666696369656e7420616d6f756e7420666f72206465747261637400600082015250565b6000612115601f83611cbf565b9150612120826120df565b602082019050919050565b6000602082019050818103600083015261214481612108565b9050919050565b7f566f74696e6720697320616c72656164792061637469766520666f722074686960008201527f7320706170657200000000000000000000000000000000000000000000000000602082015250565b60006121a7602783611cbf565b91506121b28261214b565b604082019050919050565b600060208201905081810360008301526121d68161219a565b9050919050565b600081905092915050565b60006121f382611a6b565b6121fd81856121dd565b935061220d818560208601611a87565b80840191505092915050565b600061222582846121e8565b915081905092915050565b7f416464726573733a2063616c6c20746f206e6f6e2d636f6e7472616374000000600082015250565b6000612266601d83611cbf565b915061227182612230565b602082019050919050565b6000602082019050818103600083015261229581612259565b9050919050565b60006122a7826115d7565b91506122b2836115d7565b9250828210156122c5576122c4611dce565b5b828203905092915050565b7f4e487b7100000000000000000000000000000000000000000000000000000000600052603160045260246000fd5b600061230a82612015565b6123148185611cbf565b9350612324818560208601611a87565b61232d8161168c565b840191505092915050565b6000602082019050818103600083015261235281846122ff565b90509291505056fe416464726573733a206c6f772d6c6576656c2064656c65676174652063616c6c206661696c6564a26469706673582212209b6abf3cbefd36847cf6801a3cc221cd2f6f60353d8333d0e49967435a9c992564736f6c63430008090033","opcodes":"PUSH1 0x80 PUSH1 0x40 MSTORE PUSH3 0x93A80 PUSH1 0x0 SSTORE PUSH6 0x5AF3107A4000 PUSH1 0x1 SSTORE CALLVALUE DUP1 ISZERO PUSH2 0x21 JUMPI PUSH1 0x0 DUP1 REVERT JUMPDEST POP PUSH2 0x23B7 DUP1 PUSH2 0x31 PUSH1 0x0 CODECOPY PUSH1 0x0 RETURN INVALID PUSH1 0x80 PUSH1 0x40 MSTORE PUSH1 0x4 CALLDATASIZE LT PUSH2 0x12E JUMPI PUSH1 0x0 CALLDATALOAD PUSH1 0xE0 SHR DUP1 PUSH4 0x9F0FAEF7 GT PUSH2 0xAB JUMPI DUP1 PUSH4 0xBDFD1730 GT PUSH2 0x6F JUMPI DUP1 PUSH4 0xBDFD1730 EQ PUSH2 0x445 JUMPI DUP1 PUSH4 0xC1282F6F EQ PUSH2 0x482 JUMPI DUP1 PUSH4 0xCAA27FA4 EQ PUSH2 0x4AB JUMPI DUP1 PUSH4 0xD0C02E34 EQ PUSH2 0x4E8 JUMPI DUP1 PUSH4 0xD3789425 EQ PUSH2 0x511 JUMPI DUP1 PUSH4 0xF0B06E19 EQ PUSH2 0x53A JUMPI PUSH2 0x135 JUMP JUMPDEST DUP1 PUSH4 0x9F0FAEF7 EQ PUSH2 0x33C JUMPI DUP1 PUSH4 0xA1D9DEF2 EQ PUSH2 0x379 JUMPI DUP1 PUSH4 0xA32A12DE EQ PUSH2 0x3A2 JUMPI DUP1 PUSH4 0xAB290CCC EQ PUSH2 0x3DF JUMPI DUP1 PUSH4 0xAC9650D8 EQ PUSH2 0x408 JUMPI PUSH2 0x135 JUMP JUMPDEST DUP1 PUSH4 0x4AF52B82 GT PUSH2 0xF2 JUMPI DUP1 PUSH4 0x4AF52B82 EQ PUSH2 0x245 JUMPI DUP1 PUSH4 0x56F96380 EQ PUSH2 0x26E JUMPI DUP1 PUSH4 0x5832CF59 EQ PUSH2 0x299 JUMPI DUP1 PUSH4 0x70C75107 EQ PUSH2 0x2C2 JUMPI DUP1 PUSH4 0x89C61C15 EQ PUSH2 0x2FF JUMPI PUSH2 0x135 JUMP JUMPDEST DUP1 PUSH4 0x2A251A3 EQ PUSH2 0x13A JUMPI DUP1 PUSH4 0x7D42AC5 EQ PUSH2 0x165 JUMPI DUP1 PUSH4 0x2ED4EF56 EQ PUSH2 0x1A2 JUMPI DUP1 PUSH4 0x462FF503 EQ PUSH2 0x1DF JUMPI DUP1 PUSH4 0x4A1DC5CC EQ PUSH2 0x208 JUMPI PUSH2 0x135 JUMP JUMPDEST CALLDATASIZE PUSH2 0x135 JUMPI STOP JUMPDEST PUSH1 0x0 DUP1 REVERT JUMPDEST CALLVALUE DUP1 ISZERO PUSH2 0x146 JUMPI PUSH1 0x0 DUP1 REVERT JUMPDEST POP PUSH2 0x14F PUSH2 0x556 JUMP JUMPDEST PUSH1 0x40 MLOAD PUSH2 0x15C SWAP2 SWAP1 PUSH2 0x15F0 JUMP JUMPDEST PUSH1 0x40 MLOAD DUP1 SWAP2 SUB SWAP1 RETURN JUMPDEST CALLVALUE DUP1 ISZERO PUSH2 0x171 JUMPI PUSH1 0x0 DUP1 REVERT JUMPDEST POP PUSH2 0x18C PUSH1 0x4 DUP1 CALLDATASIZE SUB DUP2 ADD SWAP1 PUSH2 0x187 SWAP2 SWAP1 PUSH2 0x1655 JUMP JUMPDEST PUSH2 0x55C JUMP JUMPDEST PUSH1 0x40 MLOAD PUSH2 0x199 SWAP2 SWAP1 PUSH2 0x15F0 JUMP JUMPDEST PUSH1 0x40 MLOAD DUP1 SWAP2 SUB SWAP1 RETURN JUMPDEST CALLVALUE DUP1 ISZERO PUSH2 0x1AE JUMPI PUSH1 0x0 DUP1 REVERT JUMPDEST POP PUSH2 0x1C9 PUSH1 0x4 DUP1 CALLDATASIZE SUB DUP2 ADD SWAP1 PUSH2 0x1C4 SWAP2 SWAP1 PUSH2 0x1655 JUMP JUMPDEST PUSH2 0x574 JUMP JUMPDEST PUSH1 0x40 MLOAD PUSH2 0x1D6 SWAP2 SWAP1 PUSH2 0x15F0 JUMP JUMPDEST PUSH1 0x40 MLOAD DUP1 SWAP2 SUB SWAP1 RETURN JUMPDEST CALLVALUE DUP1 ISZERO PUSH2 0x1EB JUMPI PUSH1 0x0 DUP1 REVERT JUMPDEST POP PUSH2 0x206 PUSH1 0x4 DUP1 CALLDATASIZE SUB DUP2 ADD SWAP1 PUSH2 0x201 SWAP2 SWAP1 PUSH2 0x17C8 JUMP JUMPDEST PUSH2 0x58C JUMP JUMPDEST STOP JUMPDEST CALLVALUE DUP1 ISZERO PUSH2 0x214 JUMPI PUSH1 0x0 DUP1 REVERT JUMPDEST POP PUSH2 0x22F PUSH1 0x4 DUP1 CALLDATASIZE SUB DUP2 ADD SWAP1 PUSH2 0x22A SWAP2 SWAP1 PUSH2 0x186F JUMP JUMPDEST PUSH2 0x771 JUMP JUMPDEST PUSH1 0x40 MLOAD PUSH2 0x23C SWAP2 SWAP1 PUSH2 0x18CA JUMP JUMPDEST PUSH1 0x40 MLOAD DUP1 SWAP2 SUB SWAP1 RETURN JUMPDEST CALLVALUE DUP1 ISZERO PUSH2 0x251 JUMPI PUSH1 0x0 DUP1 REVERT JUMPDEST POP PUSH2 0x26C PUSH1 0x4 DUP1 CALLDATASIZE SUB DUP2 ADD SWAP1 PUSH2 0x267 SWAP2 SWAP1 PUSH2 0x17C8 JUMP JUMPDEST PUSH2 0x7A0 JUMP JUMPDEST STOP JUMPDEST CALLVALUE DUP1 ISZERO PUSH2 0x27A JUMPI PUSH1 0x0 DUP1 REVERT JUMPDEST POP PUSH2 0x283 PUSH2 0x947 JUMP JUMPDEST PUSH1 0x40 MLOAD PUSH2 0x290 SWAP2 SWAP1 PUSH2 0x15F0 JUMP JUMPDEST PUSH1 0x40 MLOAD DUP1 SWAP2 SUB SWAP1 RETURN JUMPDEST CALLVALUE DUP1 ISZERO PUSH2 0x2A5 JUMPI PUSH1 0x0 DUP1 REVERT JUMPDEST POP PUSH2 0x2C0 PUSH1 0x4 DUP1 CALLDATASIZE SUB DUP2 ADD SWAP1 PUSH2 0x2BB SWAP2 SWAP1 PUSH2 0x1911 JUMP JUMPDEST PUSH2 0x94D JUMP JUMPDEST STOP JUMPDEST CALLVALUE DUP1 ISZERO PUSH2 0x2CE JUMPI PUSH1 0x0 DUP1 REVERT JUMPDEST POP PUSH2 0x2E9 PUSH1 0x4 DUP1 CALLDATASIZE SUB DUP2 ADD SWAP1 PUSH2 0x2E4 SWAP2 SWAP1 PUSH2 0x17C8 JUMP JUMPDEST PUSH2 0x957 JUMP JUMPDEST PUSH1 0x40 MLOAD PUSH2 0x2F6 SWAP2 SWAP1 PUSH2 0x194D JUMP JUMPDEST PUSH1 0x40 MLOAD DUP1 SWAP2 SUB SWAP1 RETURN JUMPDEST CALLVALUE DUP1 ISZERO PUSH2 0x30B JUMPI PUSH1 0x0 DUP1 REVERT JUMPDEST POP PUSH2 0x326 PUSH1 0x4 DUP1 CALLDATASIZE SUB DUP2 ADD SWAP1 PUSH2 0x321 SWAP2 SWAP1 PUSH2 0x1655 JUMP JUMPDEST PUSH2 0x968 JUMP JUMPDEST PUSH1 0x40 MLOAD PUSH2 0x333 SWAP2 SWAP1 PUSH2 0x1977 JUMP JUMPDEST PUSH1 0x40 MLOAD DUP1 SWAP2 SUB SWAP1 RETURN JUMPDEST CALLVALUE DUP1 ISZERO PUSH2 0x348 JUMPI PUSH1 0x0 DUP1 REVERT JUMPDEST POP PUSH2 0x363 PUSH1 0x4 DUP1 CALLDATASIZE SUB DUP2 ADD SWAP1 PUSH2 0x35E SWAP2 SWAP1 PUSH2 0x1655 JUMP JUMPDEST PUSH2 0x99B JUMP JUMPDEST PUSH1 0x40 MLOAD PUSH2 0x370 SWAP2 SWAP1 PUSH2 0x194D JUMP JUMPDEST PUSH1 0x40 MLOAD DUP1 SWAP2 SUB SWAP1 RETURN JUMPDEST CALLVALUE DUP1 ISZERO PUSH2 0x385 JUMPI PUSH1 0x0 DUP1 REVERT JUMPDEST POP PUSH2 0x3A0 PUSH1 0x4 DUP1 CALLDATASIZE SUB DUP2 ADD SWAP1 PUSH2 0x39B SWAP2 SWAP1 PUSH2 0x17C8 JUMP JUMPDEST PUSH2 0x9B3 JUMP JUMPDEST STOP JUMPDEST CALLVALUE DUP1 ISZERO PUSH2 0x3AE JUMPI PUSH1 0x0 DUP1 REVERT JUMPDEST POP PUSH2 0x3C9 PUSH1 0x4 DUP1 CALLDATASIZE SUB DUP2 ADD SWAP1 PUSH2 0x3C4 SWAP2 SWAP1 PUSH2 0x1655 JUMP JUMPDEST PUSH2 0xB98 JUMP JUMPDEST PUSH1 0x40 MLOAD PUSH2 0x3D6 SWAP2 SWAP1 PUSH2 0x15F0 JUMP JUMPDEST PUSH1 0x40 MLOAD DUP1 SWAP2 SUB SWAP1 RETURN JUMPDEST CALLVALUE DUP1 ISZERO PUSH2 0x3EB JUMPI PUSH1 0x0 DUP1 REVERT JUMPDEST POP PUSH2 0x406 PUSH1 0x4 DUP1 CALLDATASIZE SUB DUP2 ADD SWAP1 PUSH2 0x401 SWAP2 SWAP1 PUSH2 0x1911 JUMP JUMPDEST PUSH2 0xBB0 JUMP JUMPDEST STOP JUMPDEST CALLVALUE DUP1 ISZERO PUSH2 0x414 JUMPI PUSH1 0x0 DUP1 REVERT JUMPDEST POP PUSH2 0x42F PUSH1 0x4 DUP1 CALLDATASIZE SUB DUP2 ADD SWAP1 PUSH2 0x42A SWAP2 SWAP1 PUSH2 0x19F2 JUMP JUMPDEST PUSH2 0xBBA JUMP JUMPDEST PUSH1 0x40 MLOAD PUSH2 0x43C SWAP2 SWAP1 PUSH2 0x1B89 JUMP JUMPDEST PUSH1 0x40 MLOAD DUP1 SWAP2 SUB SWAP1 RETURN JUMPDEST CALLVALUE DUP1 ISZERO PUSH2 0x451 JUMPI PUSH1 0x0 DUP1 REVERT JUMPDEST POP PUSH2 0x46C PUSH1 0x4 DUP1 CALLDATASIZE SUB DUP2 ADD SWAP1 PUSH2 0x467 SWAP2 SWAP1 PUSH2 0x1655 JUMP JUMPDEST PUSH2 0xCC6 JUMP JUMPDEST PUSH1 0x40 MLOAD PUSH2 0x479 SWAP2 SWAP1 PUSH2 0x15F0 JUMP JUMPDEST PUSH1 0x40 MLOAD DUP1 SWAP2 SUB SWAP1 RETURN JUMPDEST CALLVALUE DUP1 ISZERO PUSH2 0x48E JUMPI PUSH1 0x0 DUP1 REVERT JUMPDEST POP PUSH2 0x4A9 PUSH1 0x4 DUP1 CALLDATASIZE SUB DUP2 ADD SWAP1 PUSH2 0x4A4 SWAP2 SWAP1 PUSH2 0x1BAB JUMP JUMPDEST PUSH2 0xCDE JUMP JUMPDEST STOP JUMPDEST CALLVALUE DUP1 ISZERO PUSH2 0x4B7 JUMPI PUSH1 0x0 DUP1 REVERT JUMPDEST POP PUSH2 0x4D2 PUSH1 0x4 DUP1 CALLDATASIZE SUB DUP2 ADD SWAP1 PUSH2 0x4CD SWAP2 SWAP1 PUSH2 0x1655 JUMP JUMPDEST PUSH2 0xD0C JUMP JUMPDEST PUSH1 0x40 MLOAD PUSH2 0x4DF SWAP2 SWAP1 PUSH2 0x1977 JUMP JUMPDEST PUSH1 0x40 MLOAD DUP1 SWAP2 SUB SWAP1 RETURN JUMPDEST CALLVALUE DUP1 ISZERO PUSH2 0x4F4 JUMPI PUSH1 0x0 DUP1 REVERT JUMPDEST POP PUSH2 0x50F PUSH1 0x4 DUP1 CALLDATASIZE SUB DUP2 ADD SWAP1 PUSH2 0x50A SWAP2 SWAP1 PUSH2 0x1BEB JUMP JUMPDEST PUSH2 0xD3F JUMP JUMPDEST STOP JUMPDEST CALLVALUE DUP1 ISZERO PUSH2 0x51D JUMPI PUSH1 0x0 DUP1 REVERT JUMPDEST POP PUSH2 0x538 PUSH1 0x4 DUP1 CALLDATASIZE SUB DUP2 ADD SWAP1 PUSH2 0x533 SWAP2 SWAP1 PUSH2 0x17C8 JUMP JUMPDEST PUSH2 0xDB4 JUMP JUMPDEST STOP JUMPDEST PUSH2 0x554 PUSH1 0x4 DUP1 CALLDATASIZE SUB DUP2 ADD SWAP1 PUSH2 0x54F SWAP2 SWAP1 PUSH2 0x1C47 JUMP JUMPDEST PUSH2 0xF28 JUMP JUMPDEST STOP JUMPDEST PUSH1 0x0 SLOAD DUP2 JUMP JUMPDEST PUSH1 0x4 PUSH1 0x20 MSTORE DUP1 PUSH1 0x0 MSTORE PUSH1 0x40 PUSH1 0x0 KECCAK256 PUSH1 0x0 SWAP2 POP SWAP1 POP SLOAD DUP2 JUMP JUMPDEST PUSH1 0x5 PUSH1 0x20 MSTORE DUP1 PUSH1 0x0 MSTORE PUSH1 0x40 PUSH1 0x0 KECCAK256 PUSH1 0x0 SWAP2 POP SWAP1 POP SLOAD DUP2 JUMP JUMPDEST DUP1 PUSH1 0x0 PUSH2 0x598 DUP3 PUSH2 0x957 JUMP JUMPDEST SWAP1 POP PUSH2 0x5A3 DUP2 PUSH2 0x10D9 JUMP JUMPDEST PUSH2 0x5E2 JUMPI PUSH1 0x40 MLOAD PUSH32 0x8C379A000000000000000000000000000000000000000000000000000000000 DUP2 MSTORE PUSH1 0x4 ADD PUSH2 0x5D9 SWAP1 PUSH2 0x1D42 JUMP JUMPDEST PUSH1 0x40 MLOAD DUP1 SWAP2 SUB SWAP1 REVERT JUMPDEST PUSH1 0x0 PUSH2 0x5ED DUP5 PUSH2 0x957 JUMP JUMPDEST SWAP1 POP PUSH1 0x0 ISZERO ISZERO PUSH1 0xA PUSH1 0x0 CALLER PUSH20 0xFFFFFFFFFFFFFFFFFFFFFFFFFFFFFFFFFFFFFFFF AND PUSH20 0xFFFFFFFFFFFFFFFFFFFFFFFFFFFFFFFFFFFFFFFF AND DUP2 MSTORE PUSH1 0x20 ADD SWAP1 DUP2 MSTORE PUSH1 0x20 ADD PUSH1 0x0 KECCAK256 PUSH1 0x0 DUP4 DUP2 MSTORE PUSH1 0x20 ADD SWAP1 DUP2 MSTORE PUSH1 0x20 ADD PUSH1 0x0 KECCAK256 PUSH1 0x0 SWAP1 SLOAD SWAP1 PUSH2 0x100 EXP SWAP1 DIV PUSH1 0xFF AND ISZERO ISZERO EQ PUSH2 0x693 JUMPI PUSH1 0x40 MLOAD PUSH32 0x8C379A000000000000000000000000000000000000000000000000000000000 DUP2 MSTORE PUSH1 0x4 ADD PUSH2 0x68A SWAP1 PUSH2 0x1DAE JUMP JUMPDEST PUSH1 0x40 MLOAD DUP1 SWAP2 SUB SWAP1 REVERT JUMPDEST PUSH1 0x1 PUSH1 0x3 PUSH1 0x0 DUP4 DUP2 MSTORE PUSH1 0x20 ADD SWAP1 DUP2 MSTORE PUSH1 0x20 ADD PUSH1 0x0 KECCAK256 PUSH1 0x0 DUP3 DUP3 SLOAD PUSH2 0x6B7 SWAP2 SWAP1 PUSH2 0x1DFD JUMP JUMPDEST SWAP3 POP POP DUP2 SWAP1 SSTORE POP PUSH1 0x1 PUSH1 0xA PUSH1 0x0 CALLER PUSH20 0xFFFFFFFFFFFFFFFFFFFFFFFFFFFFFFFFFFFFFFFF AND PUSH20 0xFFFFFFFFFFFFFFFFFFFFFFFFFFFFFFFFFFFFFFFF AND DUP2 MSTORE PUSH1 0x20 ADD SWAP1 DUP2 MSTORE PUSH1 0x20 ADD PUSH1 0x0 KECCAK256 PUSH1 0x0 DUP4 DUP2 MSTORE PUSH1 0x20 ADD SWAP1 DUP2 MSTORE PUSH1 0x20 ADD PUSH1 0x0 KECCAK256 PUSH1 0x0 PUSH2 0x100 EXP DUP2 SLOAD DUP2 PUSH1 0xFF MUL NOT AND SWAP1 DUP4 ISZERO ISZERO MUL OR SWAP1 SSTORE POP CALLER PUSH20 0xFFFFFFFFFFFFFFFFFFFFFFFFFFFFFFFFFFFFFFFF AND DUP2 PUSH32 0x64ECDDF5D5C9D48566D19A66DDC9AEE61FF5413C6FF29970AE3C7A969B43EA9C PUSH1 0x40 MLOAD PUSH1 0x40 MLOAD DUP1 SWAP2 SUB SWAP1 LOG3 POP POP POP POP JUMP JUMPDEST PUSH1 0xA PUSH1 0x20 MSTORE DUP2 PUSH1 0x0 MSTORE PUSH1 0x40 PUSH1 0x0 KECCAK256 PUSH1 0x20 MSTORE DUP1 PUSH1 0x0 MSTORE PUSH1 0x40 PUSH1 0x0 KECCAK256 PUSH1 0x0 SWAP2 POP SWAP2 POP SWAP1 SLOAD SWAP1 PUSH2 0x100 EXP SWAP1 DIV PUSH1 0xFF AND DUP2 JUMP JUMPDEST PUSH1 0x0 PUSH2 0x7AB DUP3 PUSH2 0x957 JUMP JUMPDEST SWAP1 POP PUSH2 0x7B6 DUP2 PUSH2 0x10D9 JUMP JUMPDEST ISZERO PUSH2 0x7F6 JUMPI PUSH1 0x40 MLOAD PUSH32 0x8C379A000000000000000000000000000000000000000000000000000000000 DUP2 MSTORE PUSH1 0x4 ADD PUSH2 0x7ED SWAP1 PUSH2 0x1E9F JUMP JUMPDEST PUSH1 0x40 MLOAD DUP1 SWAP2 SUB SWAP1 REVERT JUMPDEST PUSH1 0x3 PUSH1 0x0 DUP3 DUP2 MSTORE PUSH1 0x20 ADD SWAP1 DUP2 MSTORE PUSH1 0x20 ADD PUSH1 0x0 KECCAK256 SLOAD PUSH1 0x2 PUSH1 0x0 DUP4 DUP2 MSTORE PUSH1 0x20 ADD SWAP1 DUP2 MSTORE PUSH1 0x20 ADD PUSH1 0x0 KECCAK256 SLOAD GT PUSH2 0x85E JUMPI PUSH1 0x40 MLOAD PUSH32 0x8C379A000000000000000000000000000000000000000000000000000000000 DUP2 MSTORE PUSH1 0x4 ADD PUSH2 0x855 SWAP1 PUSH2 0x1F0B JUMP JUMPDEST PUSH1 0x40 MLOAD DUP1 SWAP2 SUB SWAP1 REVERT JUMPDEST PUSH1 0x9 PUSH1 0x0 DUP3 DUP2 MSTORE PUSH1 0x20 ADD SWAP1 DUP2 MSTORE PUSH1 0x20 ADD PUSH1 0x0 KECCAK256 PUSH1 0x0 SWAP1 SLOAD SWAP1 PUSH2 0x100 EXP SWAP1 DIV PUSH20 0xFFFFFFFFFFFFFFFFFFFFFFFFFFFFFFFFFFFFFFFF AND PUSH20 0xFFFFFFFFFFFFFFFFFFFFFFFFFFFFFFFFFFFFFFFF AND PUSH2 0x8FC PUSH1 0x5 PUSH1 0x0 DUP5 DUP2 MSTORE PUSH1 0x20 ADD SWAP1 DUP2 MSTORE PUSH1 0x20 ADD PUSH1 0x0 KECCAK256 SLOAD SWAP1 DUP2 ISZERO MUL SWAP1 PUSH1 0x40 MLOAD PUSH1 0x0 PUSH1 0x40 MLOAD DUP1 DUP4 SUB DUP2 DUP6 DUP9 DUP9 CALL SWAP4 POP POP POP POP ISZERO DUP1 ISZERO PUSH2 0x8EA JUMPI RETURNDATASIZE PUSH1 0x0 DUP1 RETURNDATACOPY RETURNDATASIZE PUSH1 0x0 REVERT JUMPDEST POP PUSH1 0x5 PUSH1 0x0 DUP3 DUP2 MSTORE PUSH1 0x20 ADD SWAP1 DUP2 MSTORE PUSH1 0x20 ADD PUSH1 0x0 KECCAK256 SLOAD CALLER PUSH20 0xFFFFFFFFFFFFFFFFFFFFFFFFFFFFFFFFFFFFFFFF AND DUP3 PUSH32 0x2FAB4EA8480AC6694BB79BFCB1D1210E47E715BEFC2C5D9D9E44A1C268DBAB29 PUSH1 0x40 MLOAD PUSH1 0x40 MLOAD DUP1 SWAP2 SUB SWAP1 LOG4 POP POP JUMP JUMPDEST PUSH1 0x1 SLOAD DUP2 JUMP JUMPDEST DUP1 PUSH1 0x0 DUP2 SWAP1 SSTORE POP POP JUMP JUMPDEST PUSH1 0x0 DUP2 DUP1 MLOAD SWAP1 PUSH1 0x20 ADD KECCAK256 SWAP1 POP SWAP2 SWAP1 POP JUMP JUMPDEST PUSH1 0x9 PUSH1 0x20 MSTORE DUP1 PUSH1 0x0 MSTORE PUSH1 0x40 PUSH1 0x0 KECCAK256 PUSH1 0x0 SWAP2 POP SLOAD SWAP1 PUSH2 0x100 EXP SWAP1 DIV PUSH20 0xFFFFFFFFFFFFFFFFFFFFFFFFFFFFFFFFFFFFFFFF AND DUP2 JUMP JUMPDEST PUSH1 0x7 PUSH1 0x20 MSTORE DUP1 PUSH1 0x0 MSTORE PUSH1 0x40 PUSH1 0x0 KECCAK256 PUSH1 0x0 SWAP2 POP SWAP1 POP SLOAD DUP2 JUMP JUMPDEST DUP1 PUSH1 0x0 PUSH2 0x9BF DUP3 PUSH2 0x957 JUMP JUMPDEST SWAP1 POP PUSH2 0x9CA DUP2 PUSH2 0x10D9 JUMP JUMPDEST PUSH2 0xA09 JUMPI PUSH1 0x40 MLOAD PUSH32 0x8C379A000000000000000000000000000000000000000000000000000000000 DUP2 MSTORE PUSH1 0x4 ADD PUSH2 0xA00 SWAP1 PUSH2 0x1D42 JUMP JUMPDEST PUSH1 0x40 MLOAD DUP1 SWAP2 SUB SWAP1 REVERT JUMPDEST PUSH1 0x0 PUSH2 0xA14 DUP5 PUSH2 0x957 JUMP JUMPDEST SWAP1 POP PUSH1 0x0 ISZERO ISZERO PUSH1 0xA PUSH1 0x0 CALLER PUSH20 0xFFFFFFFFFFFFFFFFFFFFFFFFFFFFFFFFFFFFFFFF AND PUSH20 0xFFFFFFFFFFFFFFFFFFFFFFFFFFFFFFFFFFFFFFFF AND DUP2 MSTORE PUSH1 0x20 ADD SWAP1 DUP2 MSTORE PUSH1 0x20 ADD PUSH1 0x0 KECCAK256 PUSH1 0x0 DUP4 DUP2 MSTORE PUSH1 0x20 ADD SWAP1 DUP2 MSTORE PUSH1 0x20 ADD PUSH1 0x0 KECCAK256 PUSH1 0x0 SWAP1 SLOAD SWAP1 PUSH2 0x100 EXP SWAP1 DIV PUSH1 0xFF AND ISZERO ISZERO EQ PUSH2 0xABA JUMPI PUSH1 0x40 MLOAD PUSH32 0x8C379A000000000000000000000000000000000000000000000000000000000 DUP2 MSTORE PUSH1 0x4 ADD PUSH2 0xAB1 SWAP1 PUSH2 0x1DAE JUMP JUMPDEST PUSH1 0x40 MLOAD DUP1 SWAP2 SUB SWAP1 REVERT JUMPDEST PUSH1 0x1 PUSH1 0x2 PUSH1 0x0 DUP4 DUP2 MSTORE PUSH1 0x20 ADD SWAP1 DUP2 MSTORE PUSH1 0x20 ADD PUSH1 0x0 KECCAK256 PUSH1 0x0 DUP3 DUP3 SLOAD PUSH2 0xADE SWAP2 SWAP1 PUSH2 0x1DFD JUMP JUMPDEST SWAP3 POP POP DUP2 SWAP1 SSTORE POP PUSH1 0x1 PUSH1 0xA PUSH1 0x0 CALLER PUSH20 0xFFFFFFFFFFFFFFFFFFFFFFFFFFFFFFFFFFFFFFFF AND PUSH20 0xFFFFFFFFFFFFFFFFFFFFFFFFFFFFFFFFFFFFFFFF AND DUP2 MSTORE PUSH1 0x20 ADD SWAP1 DUP2 MSTORE PUSH1 0x20 ADD PUSH1 0x0 KECCAK256 PUSH1 0x0 DUP4 DUP2 MSTORE PUSH1 0x20 ADD SWAP1 DUP2 MSTORE PUSH1 0x20 ADD PUSH1 0x0 KECCAK256 PUSH1 0x0 PUSH2 0x100 EXP DUP2 SLOAD DUP2 PUSH1 0xFF MUL NOT AND SWAP1 DUP4 ISZERO ISZERO MUL OR SWAP1 SSTORE POP CALLER PUSH20 0xFFFFFFFFFFFFFFFFFFFFFFFFFFFFFFFFFFFFFFFF AND DUP2 PUSH32 0xCC195C10DD1E36E4CA68916315651981750E43459DC0DE66F01ED86876583CC3 PUSH1 0x40 MLOAD PUSH1 0x40 MLOAD DUP1 SWAP2 SUB SWAP1 LOG3 POP POP POP POP JUMP JUMPDEST PUSH1 0x2 PUSH1 0x20 MSTORE DUP1 PUSH1 0x0 MSTORE PUSH1 0x40 PUSH1 0x0 KECCAK256 PUSH1 0x0 SWAP2 POP SWAP1 POP SLOAD DUP2 JUMP JUMPDEST DUP1 PUSH1 0x1 DUP2 SWAP1 SSTORE POP POP JUMP JUMPDEST PUSH1 0x60 DUP3 DUP3 SWAP1 POP PUSH8 0xFFFFFFFFFFFFFFFF DUP2 GT ISZERO PUSH2 0xBD9 JUMPI PUSH2 0xBD8 PUSH2 0x169D JUMP JUMPDEST JUMPDEST PUSH1 0x40 MLOAD SWAP1 DUP1 DUP3 MSTORE DUP1 PUSH1 0x20 MUL PUSH1 0x20 ADD DUP3 ADD PUSH1 0x40 MSTORE DUP1 ISZERO PUSH2 0xC0C JUMPI DUP2 PUSH1 0x20 ADD JUMPDEST PUSH1 0x60 DUP2 MSTORE PUSH1 0x20 ADD SWAP1 PUSH1 0x1 SWAP1 SUB SWAP1 DUP2 PUSH2 0xBF7 JUMPI SWAP1 POP JUMPDEST POP SWAP1 POP PUSH1 0x0 JUMPDEST DUP4 DUP4 SWAP1 POP DUP2 LT ISZERO PUSH2 0xCBF JUMPI PUSH2 0xC8E ADDRESS DUP6 DUP6 DUP5 DUP2 DUP2 LT PUSH2 0xC34 JUMPI PUSH2 0xC33 PUSH2 0x1F2B JUMP JUMPDEST JUMPDEST SWAP1 POP PUSH1 0x20 MUL DUP2 ADD SWAP1 PUSH2 0xC46 SWAP2 SWAP1 PUSH2 0x1F69 JUMP JUMPDEST DUP1 DUP1 PUSH1 0x1F ADD PUSH1 0x20 DUP1 SWAP2 DIV MUL PUSH1 0x20 ADD PUSH1 0x40 MLOAD SWAP1 DUP2 ADD PUSH1 0x40 MSTORE DUP1 SWAP4 SWAP3 SWAP2 SWAP1 DUP2 DUP2 MSTORE PUSH1 0x20 ADD DUP4 DUP4 DUP1 DUP3 DUP5 CALLDATACOPY PUSH1 0x0 DUP2 DUP5 ADD MSTORE PUSH1 0x1F NOT PUSH1 0x1F DUP3 ADD AND SWAP1 POP DUP1 DUP4 ADD SWAP3 POP POP POP POP POP POP POP PUSH2 0x1104 JUMP JUMPDEST DUP3 DUP3 DUP2 MLOAD DUP2 LT PUSH2 0xCA1 JUMPI PUSH2 0xCA0 PUSH2 0x1F2B JUMP JUMPDEST JUMPDEST PUSH1 0x20 MUL PUSH1 0x20 ADD ADD DUP2 SWAP1 MSTORE POP DUP1 DUP1 PUSH2 0xCB7 SWAP1 PUSH2 0x1FCC JUMP JUMPDEST SWAP2 POP POP PUSH2 0xC12 JUMP JUMPDEST POP SWAP3 SWAP2 POP POP JUMP JUMPDEST PUSH1 0x3 PUSH1 0x20 MSTORE DUP1 PUSH1 0x0 MSTORE PUSH1 0x40 PUSH1 0x0 KECCAK256 PUSH1 0x0 SWAP2 POP SWAP1 POP SLOAD DUP2 JUMP JUMPDEST DUP1 PUSH1 0x5 PUSH1 0x0 DUP5 DUP2 MSTORE PUSH1 0x20 ADD SWAP1 DUP2 MSTORE PUSH1 0x20 ADD PUSH1 0x0 KECCAK256 PUSH1 0x0 DUP3 DUP3 SLOAD PUSH2 0xD01 SWAP2 SWAP1 PUSH2 0x1DFD JUMP JUMPDEST SWAP3 POP POP DUP2 SWAP1 SSTORE POP POP POP JUMP JUMPDEST PUSH1 0x6 PUSH1 0x20 MSTORE DUP1 PUSH1 0x0 MSTORE PUSH1 0x40 PUSH1 0x0 KECCAK256 PUSH1 0x0 SWAP2 POP SLOAD SWAP1 PUSH2 0x100 EXP SWAP1 DIV PUSH20 0xFFFFFFFFFFFFFFFFFFFFFFFFFFFFFFFFFFFFFFFF AND DUP2 JUMP JUMPDEST PUSH1 0x0 PUSH2 0xD4A DUP4 PUSH2 0x957 JUMP JUMPDEST SWAP1 POP PUSH2 0xD56 DUP3 DUP3 PUSH2 0x1131 JUMP JUMPDEST DUP2 PUSH20 0xFFFFFFFFFFFFFFFFFFFFFFFFFFFFFFFFFFFFFFFF AND DUP4 PUSH1 0x40 MLOAD PUSH2 0xD7B SWAP2 SWAP1 PUSH2 0x205C JUMP JUMPDEST PUSH1 0x40 MLOAD DUP1 SWAP2 SUB SWAP1 KECCAK256 PUSH32 0x23DB1183646106307A677A523D5FB80EB4F84088E19D654003C1B035B000DF10 PUSH1 0x40 MLOAD PUSH1 0x40 MLOAD DUP1 SWAP2 SUB SWAP1 LOG3 POP POP POP JUMP JUMPDEST PUSH1 0x0 PUSH2 0xDBF DUP3 PUSH2 0x957 JUMP JUMPDEST SWAP1 POP PUSH2 0xDCA DUP2 PUSH2 0x10D9 JUMP JUMPDEST ISZERO PUSH2 0xE0A JUMPI PUSH1 0x40 MLOAD PUSH32 0x8C379A000000000000000000000000000000000000000000000000000000000 DUP2 MSTORE PUSH1 0x4 ADD PUSH2 0xE01 SWAP1 PUSH2 0x1E9F JUMP JUMPDEST PUSH1 0x40 MLOAD DUP1 SWAP2 SUB SWAP1 REVERT JUMPDEST PUSH1 0x2 PUSH1 0x0 DUP3 DUP2 MSTORE PUSH1 0x20 ADD SWAP1 DUP2 MSTORE PUSH1 0x20 ADD PUSH1 0x0 KECCAK256 SLOAD PUSH1 0x3 PUSH1 0x0 DUP4 DUP2 MSTORE PUSH1 0x20 ADD SWAP1 DUP2 MSTORE PUSH1 0x20 ADD PUSH1 0x0 KECCAK256 SLOAD GT PUSH2 0xE72 JUMPI PUSH1 0x40 MLOAD PUSH32 0x8C379A000000000000000000000000000000000000000000000000000000000 DUP2 MSTORE PUSH1 0x4 ADD PUSH2 0xE69 SWAP1 PUSH2 0x20BF JUMP JUMPDEST PUSH1 0x40 MLOAD DUP1 SWAP2 SUB SWAP1 REVERT JUMPDEST CALLER PUSH20 0xFFFFFFFFFFFFFFFFFFFFFFFFFFFFFFFFFFFFFFFF AND PUSH2 0x8FC PUSH1 0x5 PUSH1 0x0 DUP5 DUP2 MSTORE PUSH1 0x20 ADD SWAP1 DUP2 MSTORE PUSH1 0x20 ADD PUSH1 0x0 KECCAK256 SLOAD SWAP1 DUP2 ISZERO MUL SWAP1 PUSH1 0x40 MLOAD PUSH1 0x0 PUSH1 0x40 MLOAD DUP1 DUP4 SUB DUP2 DUP6 DUP9 DUP9 CALL SWAP4 POP POP POP POP ISZERO DUP1 ISZERO PUSH2 0xECB JUMPI RETURNDATASIZE PUSH1 0x0 DUP1 RETURNDATACOPY RETURNDATASIZE PUSH1 0x0 REVERT JUMPDEST POP PUSH1 0x5 PUSH1 0x0 DUP3 DUP2 MSTORE PUSH1 0x20 ADD SWAP1 DUP2 MSTORE PUSH1 0x20 ADD PUSH1 0x0 KECCAK256 SLOAD CALLER PUSH20 0xFFFFFFFFFFFFFFFFFFFFFFFFFFFFFFFFFFFFFFFF AND DUP3 PUSH32 0xA567AF9E43744328D277239AED836BBDC20F9F3DE23245AE065B04AFFA512EC0 PUSH1 0x40 MLOAD PUSH1 0x40 MLOAD DUP1 SWAP2 SUB SWAP1 LOG4 POP POP JUMP JUMPDEST PUSH1 0x0 PUSH2 0xF33 DUP4 PUSH2 0x957 JUMP JUMPDEST SWAP1 POP PUSH1 0x0 PUSH2 0xF40 DUP4 PUSH2 0x957 JUMP JUMPDEST SWAP1 POP PUSH1 0x1 SLOAD CALLVALUE LT ISZERO PUSH2 0xF87 JUMPI PUSH1 0x40 MLOAD PUSH32 0x8C379A000000000000000000000000000000000000000000000000000000000 DUP2 MSTORE PUSH1 0x4 ADD PUSH2 0xF7E SWAP1 PUSH2 0x212B JUMP JUMPDEST PUSH1 0x40 MLOAD DUP1 SWAP2 SUB SWAP1 REVERT JUMPDEST PUSH2 0xF90 DUP3 PUSH2 0x10D9 JUMP JUMPDEST ISZERO PUSH2 0xFD0 JUMPI PUSH1 0x40 MLOAD PUSH32 0x8C379A000000000000000000000000000000000000000000000000000000000 DUP2 MSTORE PUSH1 0x4 ADD PUSH2 0xFC7 SWAP1 PUSH2 0x21BD JUMP JUMPDEST PUSH1 0x40 MLOAD DUP1 SWAP2 SUB SWAP1 REVERT JUMPDEST PUSH2 0xFDA DUP3 CALLVALUE PUSH2 0xCDE JUMP JUMPDEST PUSH1 0x0 PUSH1 0x2 PUSH1 0x0 DUP5 DUP2 MSTORE PUSH1 0x20 ADD SWAP1 DUP2 MSTORE PUSH1 0x20 ADD PUSH1 0x0 KECCAK256 DUP2 SWAP1 SSTORE POP PUSH1 0x0 PUSH1 0x3 PUSH1 0x0 DUP5 DUP2 MSTORE PUSH1 0x20 ADD SWAP1 DUP2 MSTORE PUSH1 0x20 ADD PUSH1 0x0 KECCAK256 DUP2 SWAP1 SSTORE POP TIMESTAMP PUSH1 0x4 PUSH1 0x0 DUP5 DUP2 MSTORE PUSH1 0x20 ADD SWAP1 DUP2 MSTORE PUSH1 0x20 ADD PUSH1 0x0 KECCAK256 DUP2 SWAP1 SSTORE POP DUP1 PUSH1 0x7 PUSH1 0x0 DUP5 DUP2 MSTORE PUSH1 0x20 ADD SWAP1 DUP2 MSTORE PUSH1 0x20 ADD PUSH1 0x0 KECCAK256 DUP2 SWAP1 SSTORE POP CALLER PUSH1 0x6 PUSH1 0x0 DUP5 DUP2 MSTORE PUSH1 0x20 ADD SWAP1 DUP2 MSTORE PUSH1 0x20 ADD PUSH1 0x0 KECCAK256 PUSH1 0x0 PUSH2 0x100 EXP DUP2 SLOAD DUP2 PUSH20 0xFFFFFFFFFFFFFFFFFFFFFFFFFFFFFFFFFFFFFFFF MUL NOT AND SWAP1 DUP4 PUSH20 0xFFFFFFFFFFFFFFFFFFFFFFFFFFFFFFFFFFFFFFFF AND MUL OR SWAP1 SSTORE POP CALLVALUE CALLER PUSH20 0xFFFFFFFFFFFFFFFFFFFFFFFFFFFFFFFFFFFFFFFF AND DUP4 PUSH32 0xD26AB04488EC637D788718439A7FB88013E8272C2AB9D9014CB0865365B054B3 PUSH1 0x40 MLOAD PUSH1 0x40 MLOAD DUP1 SWAP2 SUB SWAP1 LOG4 POP POP POP POP JUMP JUMPDEST PUSH1 0x0 DUP1 SLOAD PUSH1 0x4 PUSH1 0x0 DUP5 DUP2 MSTORE PUSH1 0x20 ADD SWAP1 DUP2 MSTORE PUSH1 0x20 ADD PUSH1 0x0 KECCAK256 SLOAD PUSH2 0x10FB SWAP2 SWAP1 PUSH2 0x1DFD JUMP JUMPDEST TIMESTAMP LT SWAP1 POP SWAP2 SWAP1 POP JUMP JUMPDEST PUSH1 0x60 PUSH2 0x1129 DUP4 DUP4 PUSH1 0x40 MLOAD DUP1 PUSH1 0x60 ADD PUSH1 0x40 MSTORE DUP1 PUSH1 0x27 DUP2 MSTORE PUSH1 0x20 ADD PUSH2 0x235B PUSH1 0x27 SWAP2 CODECOPY PUSH2 0x1293 JUMP JUMPDEST SWAP1 POP SWAP3 SWAP2 POP POP JUMP JUMPDEST PUSH1 0x0 PUSH20 0xFFFFFFFFFFFFFFFFFFFFFFFFFFFFFFFFFFFFFFFF AND PUSH1 0x9 PUSH1 0x0 DUP4 DUP2 MSTORE PUSH1 0x20 ADD SWAP1 DUP2 MSTORE PUSH1 0x20 ADD PUSH1 0x0 KECCAK256 PUSH1 0x0 SWAP1 SLOAD SWAP1 PUSH2 0x100 EXP SWAP1 DIV PUSH20 0xFFFFFFFFFFFFFFFFFFFFFFFFFFFFFFFFFFFFFFFF AND PUSH20 0xFFFFFFFFFFFFFFFFFFFFFFFFFFFFFFFFFFFFFFFF AND EQ PUSH2 0x11EB JUMPI PUSH2 0x11E9 DUP2 PUSH1 0x8 PUSH1 0x0 DUP6 PUSH20 0xFFFFFFFFFFFFFFFFFFFFFFFFFFFFFFFFFFFFFFFF AND PUSH20 0xFFFFFFFFFFFFFFFFFFFFFFFFFFFFFFFFFFFFFFFF AND DUP2 MSTORE PUSH1 0x20 ADD SWAP1 DUP2 MSTORE PUSH1 0x20 ADD PUSH1 0x0 KECCAK256 PUSH2 0x1319 SWAP1 SWAP2 SWAP1 PUSH4 0xFFFFFFFF AND JUMP JUMPDEST POP JUMPDEST PUSH2 0x123C DUP2 PUSH1 0x8 PUSH1 0x0 DUP6 PUSH20 0xFFFFFFFFFFFFFFFFFFFFFFFFFFFFFFFFFFFFFFFF AND PUSH20 0xFFFFFFFFFFFFFFFFFFFFFFFFFFFFFFFFFFFFFFFF AND DUP2 MSTORE PUSH1 0x20 ADD SWAP1 DUP2 MSTORE PUSH1 0x20 ADD PUSH1 0x0 KECCAK256 PUSH2 0x1330 SWAP1 SWAP2 SWAP1 PUSH4 0xFFFFFFFF AND JUMP JUMPDEST POP DUP2 PUSH1 0x9 PUSH1 0x0 DUP4 DUP2 MSTORE PUSH1 0x20 ADD SWAP1 DUP2 MSTORE PUSH1 0x20 ADD PUSH1 0x0 KECCAK256 PUSH1 0x0 PUSH2 0x100 EXP DUP2 SLOAD DUP2 PUSH20 0xFFFFFFFFFFFFFFFFFFFFFFFFFFFFFFFFFFFFFFFF MUL NOT AND SWAP1 DUP4 PUSH20 0xFFFFFFFFFFFFFFFFFFFFFFFFFFFFFFFFFFFFFFFF AND MUL OR SWAP1 SSTORE POP POP POP JUMP JUMPDEST PUSH1 0x60 PUSH1 0x0 DUP1 DUP6 PUSH20 0xFFFFFFFFFFFFFFFFFFFFFFFFFFFFFFFFFFFFFFFF AND DUP6 PUSH1 0x40 MLOAD PUSH2 0x12BD SWAP2 SWAP1 PUSH2 0x2219 JUMP JUMPDEST PUSH1 0x0 PUSH1 0x40 MLOAD DUP1 DUP4 SUB DUP2 DUP6 GAS DELEGATECALL SWAP2 POP POP RETURNDATASIZE DUP1 PUSH1 0x0 DUP2 EQ PUSH2 0x12F8 JUMPI PUSH1 0x40 MLOAD SWAP2 POP PUSH1 0x1F NOT PUSH1 0x3F RETURNDATASIZE ADD AND DUP3 ADD PUSH1 0x40 MSTORE RETURNDATASIZE DUP3 MSTORE RETURNDATASIZE PUSH1 0x0 PUSH1 0x20 DUP5 ADD RETURNDATACOPY PUSH2 0x12FD JUMP JUMPDEST PUSH1 0x60 SWAP2 POP JUMPDEST POP SWAP2 POP SWAP2 POP PUSH2 0x130E DUP7 DUP4 DUP4 DUP8 PUSH2 0x1347 JUMP JUMPDEST SWAP3 POP POP POP SWAP4 SWAP3 POP POP POP JUMP JUMPDEST PUSH1 0x0 PUSH2 0x1328 DUP4 PUSH1 0x0 ADD DUP4 PUSH2 0x13BD JUMP JUMPDEST SWAP1 POP SWAP3 SWAP2 POP POP JUMP JUMPDEST PUSH1 0x0 PUSH2 0x133F DUP4 PUSH1 0x0 ADD DUP4 PUSH2 0x14D1 JUMP JUMPDEST SWAP1 POP SWAP3 SWAP2 POP POP JUMP JUMPDEST PUSH1 0x60 DUP4 ISZERO PUSH2 0x13AA JUMPI PUSH1 0x0 DUP4 MLOAD EQ ISZERO PUSH2 0x13A2 JUMPI PUSH2 0x1362 DUP6 PUSH2 0x1541 JUMP JUMPDEST PUSH2 0x13A1 JUMPI PUSH1 0x40 MLOAD PUSH32 0x8C379A000000000000000000000000000000000000000000000000000000000 DUP2 MSTORE PUSH1 0x4 ADD PUSH2 0x1398 SWAP1 PUSH2 0x227C JUMP JUMPDEST PUSH1 0x40 MLOAD DUP1 SWAP2 SUB SWAP1 REVERT JUMPDEST JUMPDEST DUP3 SWAP1 POP PUSH2 0x13B5 JUMP JUMPDEST PUSH2 0x13B4 DUP4 DUP4 PUSH2 0x1564 JUMP JUMPDEST JUMPDEST SWAP5 SWAP4 POP POP POP POP JUMP JUMPDEST PUSH1 0x0 DUP1 DUP4 PUSH1 0x1 ADD PUSH1 0x0 DUP5 DUP2 MSTORE PUSH1 0x20 ADD SWAP1 DUP2 MSTORE PUSH1 0x20 ADD PUSH1 0x0 KECCAK256 SLOAD SWAP1 POP PUSH1 0x0 DUP2 EQ PUSH2 0x14C5 JUMPI PUSH1 0x0 PUSH1 0x1 DUP3 PUSH2 0x13EF SWAP2 SWAP1 PUSH2 0x229C JUMP JUMPDEST SWAP1 POP PUSH1 0x0 PUSH1 0x1 DUP7 PUSH1 0x0 ADD DUP1 SLOAD SWAP1 POP PUSH2 0x1407 SWAP2 SWAP1 PUSH2 0x229C JUMP JUMPDEST SWAP1 POP DUP2 DUP2 EQ PUSH2 0x1476 JUMPI PUSH1 0x0 DUP7 PUSH1 0x0 ADD DUP3 DUP2 SLOAD DUP2 LT PUSH2 0x1428 JUMPI PUSH2 0x1427 PUSH2 0x1F2B JUMP JUMPDEST JUMPDEST SWAP1 PUSH1 0x0 MSTORE PUSH1 0x20 PUSH1 0x0 KECCAK256 ADD SLOAD SWAP1 POP DUP1 DUP8 PUSH1 0x0 ADD DUP5 DUP2 SLOAD DUP2 LT PUSH2 0x144C JUMPI PUSH2 0x144B PUSH2 0x1F2B JUMP JUMPDEST JUMPDEST SWAP1 PUSH1 0x0 MSTORE PUSH1 0x20 PUSH1 0x0 KECCAK256 ADD DUP2 SWAP1 SSTORE POP DUP4 DUP8 PUSH1 0x1 ADD PUSH1 0x0 DUP4 DUP2 MSTORE PUSH1 0x20 ADD SWAP1 DUP2 MSTORE PUSH1 0x20 ADD PUSH1 0x0 KECCAK256 DUP2 SWAP1 SSTORE POP POP JUMPDEST DUP6 PUSH1 0x0 ADD DUP1 SLOAD DUP1 PUSH2 0x148A JUMPI PUSH2 0x1489 PUSH2 0x22D0 JUMP JUMPDEST JUMPDEST PUSH1 0x1 SWAP1 SUB DUP2 DUP2 SWAP1 PUSH1 0x0 MSTORE PUSH1 0x20 PUSH1 0x0 KECCAK256 ADD PUSH1 0x0 SWAP1 SSTORE SWAP1 SSTORE DUP6 PUSH1 0x1 ADD PUSH1 0x0 DUP7 DUP2 MSTORE PUSH1 0x20 ADD SWAP1 DUP2 MSTORE PUSH1 0x20 ADD PUSH1 0x0 KECCAK256 PUSH1 0x0 SWAP1 SSTORE PUSH1 0x1 SWAP4 POP POP POP POP PUSH2 0x14CB JUMP JUMPDEST PUSH1 0x0 SWAP2 POP POP JUMPDEST SWAP3 SWAP2 POP POP JUMP JUMPDEST PUSH1 0x0 PUSH2 0x14DD DUP4 DUP4 PUSH2 0x15B4 JUMP JUMPDEST PUSH2 0x1536 JUMPI DUP3 PUSH1 0x0 ADD DUP3 SWAP1 DUP1 PUSH1 0x1 DUP2 SLOAD ADD DUP1 DUP3 SSTORE DUP1 SWAP2 POP POP PUSH1 0x1 SWAP1 SUB SWAP1 PUSH1 0x0 MSTORE PUSH1 0x20 PUSH1 0x0 KECCAK256 ADD PUSH1 0x0 SWAP1 SWAP2 SWAP1 SWAP2 SWAP1 SWAP2 POP SSTORE DUP3 PUSH1 0x0 ADD DUP1 SLOAD SWAP1 POP DUP4 PUSH1 0x1 ADD PUSH1 0x0 DUP5 DUP2 MSTORE PUSH1 0x20 ADD SWAP1 DUP2 MSTORE PUSH1 0x20 ADD PUSH1 0x0 KECCAK256 DUP2 SWAP1 SSTORE POP PUSH1 0x1 SWAP1 POP PUSH2 0x153B JUMP JUMPDEST PUSH1 0x0 SWAP1 POP JUMPDEST SWAP3 SWAP2 POP POP JUMP JUMPDEST PUSH1 0x0 DUP1 DUP3 PUSH20 0xFFFFFFFFFFFFFFFFFFFFFFFFFFFFFFFFFFFFFFFF AND EXTCODESIZE GT SWAP1 POP SWAP2 SWAP1 POP JUMP JUMPDEST PUSH1 0x0 DUP3 MLOAD GT ISZERO PUSH2 0x1577 JUMPI DUP2 MLOAD DUP1 DUP4 PUSH1 0x20 ADD REVERT JUMPDEST DUP1 PUSH1 0x40 MLOAD PUSH32 0x8C379A000000000000000000000000000000000000000000000000000000000 DUP2 MSTORE PUSH1 0x4 ADD PUSH2 0x15AB SWAP2 SWAP1 PUSH2 0x2338 JUMP JUMPDEST PUSH1 0x40 MLOAD DUP1 SWAP2 SUB SWAP1 REVERT JUMPDEST PUSH1 0x0 DUP1 DUP4 PUSH1 0x1 ADD PUSH1 0x0 DUP5 DUP2 MSTORE PUSH1 0x20 ADD SWAP1 DUP2 MSTORE PUSH1 0x20 ADD PUSH1 0x0 KECCAK256 SLOAD EQ ISZERO SWAP1 POP SWAP3 SWAP2 POP POP JUMP JUMPDEST PUSH1 0x0 DUP2 SWAP1 POP SWAP2 SWAP1 POP JUMP JUMPDEST PUSH2 0x15EA DUP2 PUSH2 0x15D7 JUMP JUMPDEST DUP3 MSTORE POP POP JUMP JUMPDEST PUSH1 0x0 PUSH1 0x20 DUP3 ADD SWAP1 POP PUSH2 0x1605 PUSH1 0x0 DUP4 ADD DUP5 PUSH2 0x15E1 JUMP JUMPDEST SWAP3 SWAP2 POP POP JUMP JUMPDEST PUSH1 0x0 PUSH1 0x40 MLOAD SWAP1 POP SWAP1 JUMP JUMPDEST PUSH1 0x0 DUP1 REVERT JUMPDEST PUSH1 0x0 DUP1 REVERT JUMPDEST PUSH1 0x0 DUP2 SWAP1 POP SWAP2 SWAP1 POP JUMP JUMPDEST PUSH2 0x1632 DUP2 PUSH2 0x161F JUMP JUMPDEST DUP2 EQ PUSH2 0x163D JUMPI PUSH1 0x0 DUP1 REVERT JUMPDEST POP JUMP JUMPDEST PUSH1 0x0 DUP2 CALLDATALOAD SWAP1 POP PUSH2 0x164F DUP2 PUSH2 0x1629 JUMP JUMPDEST SWAP3 SWAP2 POP POP JUMP JUMPDEST PUSH1 0x0 PUSH1 0x20 DUP3 DUP5 SUB SLT ISZERO PUSH2 0x166B JUMPI PUSH2 0x166A PUSH2 0x1615 JUMP JUMPDEST JUMPDEST PUSH1 0x0 PUSH2 0x1679 DUP5 DUP3 DUP6 ADD PUSH2 0x1640 JUMP JUMPDEST SWAP2 POP POP SWAP3 SWAP2 POP POP JUMP JUMPDEST PUSH1 0x0 DUP1 REVERT JUMPDEST PUSH1 0x0 DUP1 REVERT JUMPDEST PUSH1 0x0 PUSH1 0x1F NOT PUSH1 0x1F DUP4 ADD AND SWAP1 POP SWAP2 SWAP1 POP JUMP JUMPDEST PUSH32 0x4E487B7100000000000000000000000000000000000000000000000000000000 PUSH1 0x0 MSTORE PUSH1 0x41 PUSH1 0x4 MSTORE PUSH1 0x24 PUSH1 0x0 REVERT JUMPDEST PUSH2 0x16D5 DUP3 PUSH2 0x168C JUMP JUMPDEST DUP2 ADD DUP2 DUP2 LT PUSH8 0xFFFFFFFFFFFFFFFF DUP3 GT OR ISZERO PUSH2 0x16F4 JUMPI PUSH2 0x16F3 PUSH2 0x169D JUMP JUMPDEST JUMPDEST DUP1 PUSH1 0x40 MSTORE POP POP POP JUMP JUMPDEST PUSH1 0x0 PUSH2 0x1707 PUSH2 0x160B JUMP JUMPDEST SWAP1 POP PUSH2 0x1713 DUP3 DUP3 PUSH2 0x16CC JUMP JUMPDEST SWAP2 SWAP1 POP JUMP JUMPDEST PUSH1 0x0 PUSH8 0xFFFFFFFFFFFFFFFF DUP3 GT ISZERO PUSH2 0x1733 JUMPI PUSH2 0x1732 PUSH2 0x169D JUMP JUMPDEST JUMPDEST PUSH2 0x173C DUP3 PUSH2 0x168C JUMP JUMPDEST SWAP1 POP PUSH1 0x20 DUP2 ADD SWAP1 POP SWAP2 SWAP1 POP JUMP JUMPDEST DUP3 DUP2 DUP4 CALLDATACOPY PUSH1 0x0 DUP4 DUP4 ADD MSTORE POP POP POP JUMP JUMPDEST PUSH1 0x0 PUSH2 0x176B PUSH2 0x1766 DUP5 PUSH2 0x1718 JUMP JUMPDEST PUSH2 0x16FD JUMP JUMPDEST SWAP1 POP DUP3 DUP2 MSTORE PUSH1 0x20 DUP2 ADD DUP5 DUP5 DUP5 ADD GT ISZERO PUSH2 0x1787 JUMPI PUSH2 0x1786 PUSH2 0x1687 JUMP JUMPDEST JUMPDEST PUSH2 0x1792 DUP5 DUP3 DUP6 PUSH2 0x1749 JUMP JUMPDEST POP SWAP4 SWAP3 POP POP POP JUMP JUMPDEST PUSH1 0x0 DUP3 PUSH1 0x1F DUP4 ADD SLT PUSH2 0x17AF JUMPI PUSH2 0x17AE PUSH2 0x1682 JUMP JUMPDEST JUMPDEST DUP2 CALLDATALOAD PUSH2 0x17BF DUP5 DUP3 PUSH1 0x20 DUP7 ADD PUSH2 0x1758 JUMP JUMPDEST SWAP2 POP POP SWAP3 SWAP2 POP POP JUMP JUMPDEST PUSH1 0x0 PUSH1 0x20 DUP3 DUP5 SUB SLT ISZERO PUSH2 0x17DE JUMPI PUSH2 0x17DD PUSH2 0x1615 JUMP JUMPDEST JUMPDEST PUSH1 0x0 DUP3 ADD CALLDATALOAD PUSH8 0xFFFFFFFFFFFFFFFF DUP2 GT ISZERO PUSH2 0x17FC JUMPI PUSH2 0x17FB PUSH2 0x161A JUMP JUMPDEST JUMPDEST PUSH2 0x1808 DUP5 DUP3 DUP6 ADD PUSH2 0x179A JUMP JUMPDEST SWAP2 POP POP SWAP3 SWAP2 POP POP JUMP JUMPDEST PUSH1 0x0 PUSH20 0xFFFFFFFFFFFFFFFFFFFFFFFFFFFFFFFFFFFFFFFF DUP3 AND SWAP1 POP SWAP2 SWAP1 POP JUMP JUMPDEST PUSH1 0x0 PUSH2 0x183C DUP3 PUSH2 0x1811 JUMP JUMPDEST SWAP1 POP SWAP2 SWAP1 POP JUMP JUMPDEST PUSH2 0x184C DUP2 PUSH2 0x1831 JUMP JUMPDEST DUP2 EQ PUSH2 0x1857 JUMPI PUSH1 0x0 DUP1 REVERT JUMPDEST POP JUMP JUMPDEST PUSH1 0x0 DUP2 CALLDATALOAD SWAP1 POP PUSH2 0x1869 DUP2 PUSH2 0x1843 JUMP JUMPDEST SWAP3 SWAP2 POP POP JUMP JUMPDEST PUSH1 0x0 DUP1 PUSH1 0x40 DUP4 DUP6 SUB SLT ISZERO PUSH2 0x1886 JUMPI PUSH2 0x1885 PUSH2 0x1615 JUMP JUMPDEST JUMPDEST PUSH1 0x0 PUSH2 0x1894 DUP6 DUP3 DUP7 ADD PUSH2 0x185A JUMP JUMPDEST SWAP3 POP POP PUSH1 0x20 PUSH2 0x18A5 DUP6 DUP3 DUP7 ADD PUSH2 0x1640 JUMP JUMPDEST SWAP2 POP POP SWAP3 POP SWAP3 SWAP1 POP JUMP JUMPDEST PUSH1 0x0 DUP2 ISZERO ISZERO SWAP1 POP SWAP2 SWAP1 POP JUMP JUMPDEST PUSH2 0x18C4 DUP2 PUSH2 0x18AF JUMP JUMPDEST DUP3 MSTORE POP POP JUMP JUMPDEST PUSH1 0x0 PUSH1 0x20 DUP3 ADD SWAP1 POP PUSH2 0x18DF PUSH1 0x0 DUP4 ADD DUP5 PUSH2 0x18BB JUMP JUMPDEST SWAP3 SWAP2 POP POP JUMP JUMPDEST PUSH2 0x18EE DUP2 PUSH2 0x15D7 JUMP JUMPDEST DUP2 EQ PUSH2 0x18F9 JUMPI PUSH1 0x0 DUP1 REVERT JUMPDEST POP JUMP JUMPDEST PUSH1 0x0 DUP2 CALLDATALOAD SWAP1 POP PUSH2 0x190B DUP2 PUSH2 0x18E5 JUMP JUMPDEST SWAP3 SWAP2 POP POP JUMP JUMPDEST PUSH1 0x0 PUSH1 0x20 DUP3 DUP5 SUB SLT ISZERO PUSH2 0x1927 JUMPI PUSH2 0x1926 PUSH2 0x1615 JUMP JUMPDEST JUMPDEST PUSH1 0x0 PUSH2 0x1935 DUP5 DUP3 DUP6 ADD PUSH2 0x18FC JUMP JUMPDEST SWAP2 POP POP SWAP3 SWAP2 POP POP JUMP JUMPDEST PUSH2 0x1947 DUP2 PUSH2 0x161F JUMP JUMPDEST DUP3 MSTORE POP POP JUMP JUMPDEST PUSH1 0x0 PUSH1 0x20 DUP3 ADD SWAP1 POP PUSH2 0x1962 PUSH1 0x0 DUP4 ADD DUP5 PUSH2 0x193E JUMP JUMPDEST SWAP3 SWAP2 POP POP JUMP JUMPDEST PUSH2 0x1971 DUP2 PUSH2 0x1831 JUMP JUMPDEST DUP3 MSTORE POP POP JUMP JUMPDEST PUSH1 0x0 PUSH1 0x20 DUP3 ADD SWAP1 POP PUSH2 0x198C PUSH1 0x0 DUP4 ADD DUP5 PUSH2 0x1968 JUMP JUMPDEST SWAP3 SWAP2 POP POP JUMP JUMPDEST PUSH1 0x0 DUP1 REVERT JUMPDEST PUSH1 0x0 DUP1 REVERT JUMPDEST PUSH1 0x0 DUP1 DUP4 PUSH1 0x1F DUP5 ADD SLT PUSH2 0x19B2 JUMPI PUSH2 0x19B1 PUSH2 0x1682 JUMP JUMPDEST JUMPDEST DUP3 CALLDATALOAD SWAP1 POP PUSH8 0xFFFFFFFFFFFFFFFF DUP2 GT ISZERO PUSH2 0x19CF JUMPI PUSH2 0x19CE PUSH2 0x1992 JUMP JUMPDEST JUMPDEST PUSH1 0x20 DUP4 ADD SWAP2 POP DUP4 PUSH1 0x20 DUP3 MUL DUP4 ADD GT ISZERO PUSH2 0x19EB JUMPI PUSH2 0x19EA PUSH2 0x1997 JUMP JUMPDEST JUMPDEST SWAP3 POP SWAP3 SWAP1 POP JUMP JUMPDEST PUSH1 0x0 DUP1 PUSH1 0x20 DUP4 DUP6 SUB SLT ISZERO PUSH2 0x1A09 JUMPI PUSH2 0x1A08 PUSH2 0x1615 JUMP JUMPDEST JUMPDEST PUSH1 0x0 DUP4 ADD CALLDATALOAD PUSH8 0xFFFFFFFFFFFFFFFF DUP2 GT ISZERO PUSH2 0x1A27 JUMPI PUSH2 0x1A26 PUSH2 0x161A JUMP JUMPDEST JUMPDEST PUSH2 0x1A33 DUP6 DUP3 DUP7 ADD PUSH2 0x199C JUMP JUMPDEST SWAP3 POP SWAP3 POP POP SWAP3 POP SWAP3 SWAP1 POP JUMP JUMPDEST PUSH1 0x0 DUP2 MLOAD SWAP1 POP SWAP2 SWAP1 POP JUMP JUMPDEST PUSH1 0x0 DUP3 DUP3 MSTORE PUSH1 0x20 DUP3 ADD SWAP1 POP SWAP3 SWAP2 POP POP JUMP JUMPDEST PUSH1 0x0 DUP2 SWAP1 POP PUSH1 0x20 DUP3 ADD SWAP1 POP SWAP2 SWAP1 POP JUMP JUMPDEST PUSH1 0x0 DUP2 MLOAD SWAP1 POP SWAP2 SWAP1 POP JUMP JUMPDEST PUSH1 0x0 DUP3 DUP3 MSTORE PUSH1 0x20 DUP3 ADD SWAP1 POP SWAP3 SWAP2 POP POP JUMP JUMPDEST PUSH1 0x0 JUMPDEST DUP4 DUP2 LT ISZERO PUSH2 0x1AA5 JUMPI DUP1 DUP3 ADD MLOAD DUP2 DUP5 ADD MSTORE PUSH1 0x20 DUP2 ADD SWAP1 POP PUSH2 0x1A8A JUMP JUMPDEST DUP4 DUP2 GT ISZERO PUSH2 0x1AB4 JUMPI PUSH1 0x0 DUP5 DUP5 ADD MSTORE JUMPDEST POP POP POP POP JUMP JUMPDEST PUSH1 0x0 PUSH2 0x1AC5 DUP3 PUSH2 0x1A6B JUMP JUMPDEST PUSH2 0x1ACF DUP2 DUP6 PUSH2 0x1A76 JUMP JUMPDEST SWAP4 POP PUSH2 0x1ADF DUP2 DUP6 PUSH1 0x20 DUP7 ADD PUSH2 0x1A87 JUMP JUMPDEST PUSH2 0x1AE8 DUP2 PUSH2 0x168C JUMP JUMPDEST DUP5 ADD SWAP2 POP POP SWAP3 SWAP2 POP POP JUMP JUMPDEST PUSH1 0x0 PUSH2 0x1AFF DUP4 DUP4 PUSH2 0x1ABA JUMP JUMPDEST SWAP1 POP SWAP3 SWAP2 POP POP JUMP JUMPDEST PUSH1 0x0 PUSH1 0x20 DUP3 ADD SWAP1 POP SWAP2 SWAP1 POP JUMP JUMPDEST PUSH1 0x0 PUSH2 0x1B1F DUP3 PUSH2 0x1A3F JUMP JUMPDEST PUSH2 0x1B29 DUP2 DUP6 PUSH2 0x1A4A JUMP JUMPDEST SWAP4 POP DUP4 PUSH1 0x20 DUP3 MUL DUP6 ADD PUSH2 0x1B3B DUP6 PUSH2 0x1A5B JUMP JUMPDEST DUP1 PUSH1 0x0 JUMPDEST DUP6 DUP2 LT ISZERO PUSH2 0x1B77 JUMPI DUP5 DUP5 SUB DUP10 MSTORE DUP2 MLOAD PUSH2 0x1B58 DUP6 DUP3 PUSH2 0x1AF3 JUMP JUMPDEST SWAP5 POP PUSH2 0x1B63 DUP4 PUSH2 0x1B07 JUMP JUMPDEST SWAP3 POP PUSH1 0x20 DUP11 ADD SWAP10 POP POP PUSH1 0x1 DUP2 ADD SWAP1 POP PUSH2 0x1B3F JUMP JUMPDEST POP DUP3 SWAP8 POP DUP8 SWAP6 POP POP POP POP POP POP SWAP3 SWAP2 POP POP JUMP JUMPDEST PUSH1 0x0 PUSH1 0x20 DUP3 ADD SWAP1 POP DUP2 DUP2 SUB PUSH1 0x0 DUP4 ADD MSTORE PUSH2 0x1BA3 DUP2 DUP5 PUSH2 0x1B14 JUMP JUMPDEST SWAP1 POP SWAP3 SWAP2 POP POP JUMP JUMPDEST PUSH1 0x0 DUP1 PUSH1 0x40 DUP4 DUP6 SUB SLT ISZERO PUSH2 0x1BC2 JUMPI PUSH2 0x1BC1 PUSH2 0x1615 JUMP JUMPDEST JUMPDEST PUSH1 0x0 PUSH2 0x1BD0 DUP6 DUP3 DUP7 ADD PUSH2 0x1640 JUMP JUMPDEST SWAP3 POP POP PUSH1 0x20 PUSH2 0x1BE1 DUP6 DUP3 DUP7 ADD PUSH2 0x18FC JUMP JUMPDEST SWAP2 POP POP SWAP3 POP SWAP3 SWAP1 POP JUMP JUMPDEST PUSH1 0x0 DUP1 PUSH1 0x40 DUP4 DUP6 SUB SLT ISZERO PUSH2 0x1C02 JUMPI PUSH2 0x1C01 PUSH2 0x1615 JUMP JUMPDEST JUMPDEST PUSH1 0x0 DUP4 ADD CALLDATALOAD PUSH8 0xFFFFFFFFFFFFFFFF DUP2 GT ISZERO PUSH2 0x1C20 JUMPI PUSH2 0x1C1F PUSH2 0x161A JUMP JUMPDEST JUMPDEST PUSH2 0x1C2C DUP6 DUP3 DUP7 ADD PUSH2 0x179A JUMP JUMPDEST SWAP3 POP POP PUSH1 0x20 PUSH2 0x1C3D DUP6 DUP3 DUP7 ADD PUSH2 0x185A JUMP JUMPDEST SWAP2 POP POP SWAP3 POP SWAP3 SWAP1 POP JUMP JUMPDEST PUSH1 0x0 DUP1 PUSH1 0x40 DUP4 DUP6 SUB SLT ISZERO PUSH2 0x1C5E JUMPI PUSH2 0x1C5D PUSH2 0x1615 JUMP JUMPDEST JUMPDEST PUSH1 0x0 DUP4 ADD CALLDATALOAD PUSH8 0xFFFFFFFFFFFFFFFF DUP2 GT ISZERO PUSH2 0x1C7C JUMPI PUSH2 0x1C7B PUSH2 0x161A JUMP JUMPDEST JUMPDEST PUSH2 0x1C88 DUP6 DUP3 DUP7 ADD PUSH2 0x179A JUMP JUMPDEST SWAP3 POP POP PUSH1 0x20 DUP4 ADD CALLDATALOAD PUSH8 0xFFFFFFFFFFFFFFFF DUP2 GT ISZERO PUSH2 0x1CA9 JUMPI PUSH2 0x1CA8 PUSH2 0x161A JUMP JUMPDEST JUMPDEST PUSH2 0x1CB5 DUP6 DUP3 DUP7 ADD PUSH2 0x179A JUMP JUMPDEST SWAP2 POP POP SWAP3 POP SWAP3 SWAP1 POP JUMP JUMPDEST PUSH1 0x0 DUP3 DUP3 MSTORE PUSH1 0x20 DUP3 ADD SWAP1 POP SWAP3 SWAP2 POP POP JUMP JUMPDEST PUSH32 0x566F74696E67206973206E6F742061637469766520666F722074686973207061 PUSH1 0x0 DUP3 ADD MSTORE PUSH32 0x7065720000000000000000000000000000000000000000000000000000000000 PUSH1 0x20 DUP3 ADD MSTORE POP JUMP JUMPDEST PUSH1 0x0 PUSH2 0x1D2C PUSH1 0x23 DUP4 PUSH2 0x1CBF JUMP JUMPDEST SWAP2 POP PUSH2 0x1D37 DUP3 PUSH2 0x1CD0 JUMP JUMPDEST PUSH1 0x40 DUP3 ADD SWAP1 POP SWAP2 SWAP1 POP JUMP JUMPDEST PUSH1 0x0 PUSH1 0x20 DUP3 ADD SWAP1 POP DUP2 DUP2 SUB PUSH1 0x0 DUP4 ADD MSTORE PUSH2 0x1D5B DUP2 PUSH2 0x1D1F JUMP JUMPDEST SWAP1 POP SWAP2 SWAP1 POP JUMP JUMPDEST PUSH32 0x416C726561647920766F74656400000000000000000000000000000000000000 PUSH1 0x0 DUP3 ADD MSTORE POP JUMP JUMPDEST PUSH1 0x0 PUSH2 0x1D98 PUSH1 0xD DUP4 PUSH2 0x1CBF JUMP JUMPDEST SWAP2 POP PUSH2 0x1DA3 DUP3 PUSH2 0x1D62 JUMP JUMPDEST PUSH1 0x20 DUP3 ADD SWAP1 POP SWAP2 SWAP1 POP JUMP JUMPDEST PUSH1 0x0 PUSH1 0x20 DUP3 ADD SWAP1 POP DUP2 DUP2 SUB PUSH1 0x0 DUP4 ADD MSTORE PUSH2 0x1DC7 DUP2 PUSH2 0x1D8B JUMP JUMPDEST SWAP1 POP SWAP2 SWAP1 POP JUMP JUMPDEST PUSH32 0x4E487B7100000000000000000000000000000000000000000000000000000000 PUSH1 0x0 MSTORE PUSH1 0x11 PUSH1 0x4 MSTORE PUSH1 0x24 PUSH1 0x0 REVERT JUMPDEST PUSH1 0x0 PUSH2 0x1E08 DUP3 PUSH2 0x15D7 JUMP JUMPDEST SWAP2 POP PUSH2 0x1E13 DUP4 PUSH2 0x15D7 JUMP JUMPDEST SWAP3 POP DUP3 PUSH32 0xFFFFFFFFFFFFFFFFFFFFFFFFFFFFFFFFFFFFFFFFFFFFFFFFFFFFFFFFFFFFFFFF SUB DUP3 GT ISZERO PUSH2 0x1E48 JUMPI PUSH2 0x1E47 PUSH2 0x1DCE JUMP JUMPDEST JUMPDEST DUP3 DUP3 ADD SWAP1 POP SWAP3 SWAP2 POP POP JUMP JUMPDEST PUSH32 0x566F74696E672069732061637469766500000000000000000000000000000000 PUSH1 0x0 DUP3 ADD MSTORE POP JUMP JUMPDEST PUSH1 0x0 PUSH2 0x1E89 PUSH1 0x10 DUP4 PUSH2 0x1CBF JUMP JUMPDEST SWAP2 POP PUSH2 0x1E94 DUP3 PUSH2 0x1E53 JUMP JUMPDEST PUSH1 0x20 DUP3 ADD SWAP1 POP SWAP2 SWAP1 POP JUMP JUMPDEST PUSH1 0x0 PUSH1 0x20 DUP3 ADD SWAP1 POP DUP2 DUP2 SUB PUSH1 0x0 DUP4 ADD MSTORE PUSH2 0x1EB8 DUP2 PUSH2 0x1E7C JUMP JUMPDEST SWAP1 POP SWAP2 SWAP1 POP JUMP JUMPDEST PUSH32 0x6368616C6C656E676572206C6F737420746865206368616C6C656E6765000000 PUSH1 0x0 DUP3 ADD MSTORE POP JUMP JUMPDEST PUSH1 0x0 PUSH2 0x1EF5 PUSH1 0x1D DUP4 PUSH2 0x1CBF JUMP JUMPDEST SWAP2 POP PUSH2 0x1F00 DUP3 PUSH2 0x1EBF JUMP JUMPDEST PUSH1 0x20 DUP3 ADD SWAP1 POP SWAP2 SWAP1 POP JUMP JUMPDEST PUSH1 0x0 PUSH1 0x20 DUP3 ADD SWAP1 POP DUP2 DUP2 SUB PUSH1 0x0 DUP4 ADD MSTORE PUSH2 0x1F24 DUP2 PUSH2 0x1EE8 JUMP JUMPDEST SWAP1 POP SWAP2 SWAP1 POP JUMP JUMPDEST PUSH32 0x4E487B7100000000000000000000000000000000000000000000000000000000 PUSH1 0x0 MSTORE PUSH1 0x32 PUSH1 0x4 MSTORE PUSH1 0x24 PUSH1 0x0 REVERT JUMPDEST PUSH1 0x0 DUP1 REVERT JUMPDEST PUSH1 0x0 DUP1 REVERT JUMPDEST PUSH1 0x0 DUP1 REVERT JUMPDEST PUSH1 0x0 DUP1 DUP4 CALLDATALOAD PUSH1 0x1 PUSH1 0x20 SUB DUP5 CALLDATASIZE SUB SUB DUP2 SLT PUSH2 0x1F86 JUMPI PUSH2 0x1F85 PUSH2 0x1F5A JUMP JUMPDEST JUMPDEST DUP1 DUP5 ADD SWAP3 POP DUP3 CALLDATALOAD SWAP2 POP PUSH8 0xFFFFFFFFFFFFFFFF DUP3 GT ISZERO PUSH2 0x1FA8 JUMPI PUSH2 0x1FA7 PUSH2 0x1F5F JUMP JUMPDEST JUMPDEST PUSH1 0x20 DUP4 ADD SWAP3 POP PUSH1 0x1 DUP3 MUL CALLDATASIZE SUB DUP4 SGT ISZERO PUSH2 0x1FC4 JUMPI PUSH2 0x1FC3 PUSH2 0x1F64 JUMP JUMPDEST JUMPDEST POP SWAP3 POP SWAP3 SWAP1 POP JUMP JUMPDEST PUSH1 0x0 PUSH2 0x1FD7 DUP3 PUSH2 0x15D7 JUMP JUMPDEST SWAP2 POP PUSH32 0xFFFFFFFFFFFFFFFFFFFFFFFFFFFFFFFFFFFFFFFFFFFFFFFFFFFFFFFFFFFFFFFF DUP3 EQ ISZERO PUSH2 0x200A JUMPI PUSH2 0x2009 PUSH2 0x1DCE JUMP JUMPDEST JUMPDEST PUSH1 0x1 DUP3 ADD SWAP1 POP SWAP2 SWAP1 POP JUMP JUMPDEST PUSH1 0x0 DUP2 MLOAD SWAP1 POP SWAP2 SWAP1 POP JUMP JUMPDEST PUSH1 0x0 DUP2 SWAP1 POP SWAP3 SWAP2 POP POP JUMP JUMPDEST PUSH1 0x0 PUSH2 0x2036 DUP3 PUSH2 0x2015 JUMP JUMPDEST PUSH2 0x2040 DUP2 DUP6 PUSH2 0x2020 JUMP JUMPDEST SWAP4 POP PUSH2 0x2050 DUP2 DUP6 PUSH1 0x20 DUP7 ADD PUSH2 0x1A87 JUMP JUMPDEST DUP1 DUP5 ADD SWAP2 POP POP SWAP3 SWAP2 POP POP JUMP JUMPDEST PUSH1 0x0 PUSH2 0x2068 DUP3 DUP5 PUSH2 0x202B JUMP JUMPDEST SWAP2 POP DUP2 SWAP1 POP SWAP3 SWAP2 POP POP JUMP JUMPDEST PUSH32 0x70617065724F776E6572206C6F737420746865206368616C6C656E6765000000 PUSH1 0x0 DUP3 ADD MSTORE POP JUMP JUMPDEST PUSH1 0x0 PUSH2 0x20A9 PUSH1 0x1D DUP4 PUSH2 0x1CBF JUMP JUMPDEST SWAP2 POP PUSH2 0x20B4 DUP3 PUSH2 0x2073 JUMP JUMPDEST PUSH1 0x20 DUP3 ADD SWAP1 POP SWAP2 SWAP1 POP JUMP JUMPDEST PUSH1 0x0 PUSH1 0x20 DUP3 ADD SWAP1 POP DUP2 DUP2 SUB PUSH1 0x0 DUP4 ADD MSTORE PUSH2 0x20D8 DUP2 PUSH2 0x209C JUMP JUMPDEST SWAP1 POP SWAP2 SWAP1 POP JUMP JUMPDEST PUSH32 0x496E73756666696369656E7420616D6F756E7420666F72206465747261637400 PUSH1 0x0 DUP3 ADD MSTORE POP JUMP JUMPDEST PUSH1 0x0 PUSH2 0x2115 PUSH1 0x1F DUP4 PUSH2 0x1CBF JUMP JUMPDEST SWAP2 POP PUSH2 0x2120 DUP3 PUSH2 0x20DF JUMP JUMPDEST PUSH1 0x20 DUP3 ADD SWAP1 POP SWAP2 SWAP1 POP JUMP JUMPDEST PUSH1 0x0 PUSH1 0x20 DUP3 ADD SWAP1 POP DUP2 DUP2 SUB PUSH1 0x0 DUP4 ADD MSTORE PUSH2 0x2144 DUP2 PUSH2 0x2108 JUMP JUMPDEST SWAP1 POP SWAP2 SWAP1 POP JUMP JUMPDEST PUSH32 0x566F74696E6720697320616C72656164792061637469766520666F7220746869 PUSH1 0x0 DUP3 ADD MSTORE PUSH32 0x7320706170657200000000000000000000000000000000000000000000000000 PUSH1 0x20 DUP3 ADD MSTORE POP JUMP JUMPDEST PUSH1 0x0 PUSH2 0x21A7 PUSH1 0x27 DUP4 PUSH2 0x1CBF JUMP JUMPDEST SWAP2 POP PUSH2 0x21B2 DUP3 PUSH2 0x214B JUMP JUMPDEST PUSH1 0x40 DUP3 ADD SWAP1 POP SWAP2 SWAP1 POP JUMP JUMPDEST PUSH1 0x0 PUSH1 0x20 DUP3 ADD SWAP1 POP DUP2 DUP2 SUB PUSH1 0x0 DUP4 ADD MSTORE PUSH2 0x21D6 DUP2 PUSH2 0x219A JUMP JUMPDEST SWAP1 POP SWAP2 SWAP1 POP JUMP JUMPDEST PUSH1 0x0 DUP2 SWAP1 POP SWAP3 SWAP2 POP POP JUMP JUMPDEST PUSH1 0x0 PUSH2 0x21F3 DUP3 PUSH2 0x1A6B JUMP JUMPDEST PUSH2 0x21FD DUP2 DUP6 PUSH2 0x21DD JUMP JUMPDEST SWAP4 POP PUSH2 0x220D DUP2 DUP6 PUSH1 0x20 DUP7 ADD PUSH2 0x1A87 JUMP JUMPDEST DUP1 DUP5 ADD SWAP2 POP POP SWAP3 SWAP2 POP POP JUMP JUMPDEST PUSH1 0x0 PUSH2 0x2225 DUP3 DUP5 PUSH2 0x21E8 JUMP JUMPDEST SWAP2 POP DUP2 SWAP1 POP SWAP3 SWAP2 POP POP JUMP JUMPDEST PUSH32 0x416464726573733A2063616C6C20746F206E6F6E2D636F6E7472616374000000 PUSH1 0x0 DUP3 ADD MSTORE POP JUMP JUMPDEST PUSH1 0x0 PUSH2 0x2266 PUSH1 0x1D DUP4 PUSH2 0x1CBF JUMP JUMPDEST SWAP2 POP PUSH2 0x2271 DUP3 PUSH2 0x2230 JUMP JUMPDEST PUSH1 0x20 DUP3 ADD SWAP1 POP SWAP2 SWAP1 POP JUMP JUMPDEST PUSH1 0x0 PUSH1 0x20 DUP3 ADD SWAP1 POP DUP2 DUP2 SUB PUSH1 0x0 DUP4 ADD MSTORE PUSH2 0x2295 DUP2 PUSH2 0x2259 JUMP JUMPDEST SWAP1 POP SWAP2 SWAP1 POP JUMP JUMPDEST PUSH1 0x0 PUSH2 0x22A7 DUP3 PUSH2 0x15D7 JUMP JUMPDEST SWAP2 POP PUSH2 0x22B2 DUP4 PUSH2 0x15D7 JUMP JUMPDEST SWAP3 POP DUP3 DUP3 LT ISZERO PUSH2 0x22C5 JUMPI PUSH2 0x22C4 PUSH2 0x1DCE JUMP JUMPDEST JUMPDEST DUP3 DUP3 SUB SWAP1 POP SWAP3 SWAP2 POP POP JUMP JUMPDEST PUSH32 0x4E487B7100000000000000000000000000000000000000000000000000000000 PUSH1 0x0 MSTORE PUSH1 0x31 PUSH1 0x4 MSTORE PUSH1 0x24 PUSH1 0x0 REVERT JUMPDEST PUSH1 0x0 PUSH2 0x230A DUP3 PUSH2 0x2015 JUMP JUMPDEST PUSH2 0x2314 DUP2 DUP6 PUSH2 0x1CBF JUMP JUMPDEST SWAP4 POP PUSH2 0x2324 DUP2 DUP6 PUSH1 0x20 DUP7 ADD PUSH2 0x1A87 JUMP JUMPDEST PUSH2 0x232D DUP2 PUSH2 0x168C JUMP JUMPDEST DUP5 ADD SWAP2 POP POP SWAP3 SWAP2 POP POP JUMP JUMPDEST PUSH1 0x0 PUSH1 0x20 DUP3 ADD SWAP1 POP DUP2 DUP2 SUB PUSH1 0x0 DUP4 ADD MSTORE PUSH2 0x2352 DUP2 DUP5 PUSH2 0x22FF JUMP JUMPDEST SWAP1 POP SWAP3 SWAP2 POP POP JUMP INVALID COINBASE PUSH5 0x6472657373 GASPRICE KECCAK256 PUSH13 0x6F772D6C6576656C2064656C65 PUSH8 0x6174652063616C6C KECCAK256 PUSH7 0x61696C6564A264 PUSH10 0x706673582212209B6ABF EXTCODECOPY 0xBE REVERT CALLDATASIZE DUP5 PUSH29 0xF6801A3CC221CD2F6F60353D8333D0E49967435A9C992564736F6C6343 STOP ADDMOD MULMOD STOP CALLER "},"methodIdentifiers":{"_updateDetractStakeAmountOfPaper(bytes32,uint256)":"c1282f6f","challengeInitiationTime(bytes32)":"07d42ac5","challengePaper(string,string)":"f0b06e19","challenger(bytes32)":"caa27fa4","changeMinimumStakingAmountForDetract(uint256)":"ab290ccc","changeVotingPeriod(uint256)":"5832cf59","claimAmountByChallenger(string)":"4af52b82","claimAmountByPaperOwner(string)":"d3789425","downVote(string)":"462ff503","downVoteCount(bytes32)":"bdfd1730","findHash(string)":"70c75107","hasVoted(address,bytes32)":"4a1dc5cc","minStakingAmountForDetract()":"56f96380","multicall(bytes[])":"ac9650d8","paperOwner(bytes32)":"89c61c15","paperRetractionEvidence(bytes32)":"9f0faef7","publishPaper(string,address)":"d0c02e34","retractionStakeAmount(bytes32)":"2ed4ef56","upVote(string)":"a1d9def2","upVoteCount(bytes32)":"a32a12de","votingPeriod()":"02a251a3"}}}}}