{"src/contracts/Detract.sol":{"Detract":{"abi":[{"anonymous":false,"inputs":[{"indexed":true,"internalType":"bytes32","name":"paperHash","type":"bytes32"},{"indexed":true,"internalType":"address","name":"challenger","type":"address"},{"indexed":true,"internalType":"uint256","name":"amount","type":"uint256"}],"name":"ChallengeCreated","type":"event"},{"anonymous":false,"inputs":[{"indexed":true,"internalType":"bytes32","name":"paperHash","type":"bytes32"},{"indexed":true,"internalType":"address","name":"challenger","type":"address"},{"indexed":true,"internalType":"uint256","name":"amount","type":"uint256"}],"name":"ClaimedByChallenger","type":"event"},{"anonymous":false,"inputs":[{"indexed":true,"internalType":"bytes32","name":"paperHash","type":"bytes32"},{"indexed":true,"internalType":"address","name":"paperOwner","type":"address"},{"indexed":true,"internalType":"uint256","name":"amount","type":"uint256"}],"name":"ClaimedByPaperOwner","type":"event"},{"anonymous":false,"inputs":[{"indexed":true,"internalType":"bytes32","name":"paperHash","type":"bytes32"},{"indexed":true,"internalType":"address","name":"voter","type":"address"}],"name":"DownVoted","type":"event"},{"anonymous":false,"inputs":[{"indexed":true,"internalType":"bytes32","name":"paperHash","type":"bytes32"},{"indexed":true,"internalType":"address","name":"owner","type":"address"}],"name":"PaperPublished","type":"event"},{"anonymous":false,"inputs":[{"indexed":true,"internalType":"bytes32","name":"paperHash","type":"bytes32"},{"indexed":true,"internalType":"address","name":"voter","type":"address"}],"name":"UpVoted","type":"event"},{"inputs":[{"internalType":"bytes32","name":"_paperHash","type":"bytes32"},{"internalType":"uint256","name":"_amount","type":"uint256"}],"name":"_updateDetractStakeAmountOfPaper","outputs":[],"stateMutability":"nonpayable","type":"function"},{"inputs":[{"internalType":"bytes32","name":"","type":"bytes32"}],"name":"challengeInitiationTime","outputs":[{"internalType":"uint256","name":"","type":"uint256"}],"stateMutability":"view","type":"function"},{"inputs":[{"internalType":"bytes32","name":"_paperHash","type":"bytes32"},{"internalType":"bytes32","name":"_evidenceHash","type":"bytes32"}],"name":"challengePaper","outputs":[],"stateMutability":"payable","type":"function"},{"inputs":[{"internalType":"bytes32","name":"","type":"bytes32"}],"name":"challenger","outputs":[{"internalType":"address","name":"","type":"address"}],"stateMutability":"view","type":"function"},{"inputs":[{"internalType":"uint256","name":"_amount","type":"uint256"}],"name":"changeMinimumStakingAmountForDetract","outputs":[],"stateMutability":"nonpayable","type":"function"},{"inputs":[{"internalType":"uint256","name":"_time","type":"uint256"}],"name":"changeVotingPeriod","outputs":[],"stateMutability":"nonpayable","type":"function"},{"inputs":[{"internalType":"bytes32","name":"_paperHash","type":"bytes32"}],"name":"claimAmountByChallenger","outputs":[],"stateMutability":"nonpayable","type":"function"},{"inputs":[{"internalType":"bytes32","name":"_paperHash","type":"bytes32"}],"name":"claimAmountByPaperOwner","outputs":[],"stateMutability":"nonpayable","type":"function"},{"inputs":[{"internalType":"bytes32","name":"_paperHash","type":"bytes32"}],"name":"downVote","outputs":[],"stateMutability":"nonpayable","type":"function"},{"inputs":[{"internalType":"bytes32","name":"","type":"bytes32"}],"name":"downVoteCount","outputs":[{"internalType":"uint256","name":"","type":"uint256"}],"stateMutability":"view","type":"function"},{"inputs":[],"name":"minStakingAmountForDetract","outputs":[{"internalType":"uint256","name":"","type":"uint256"}],"stateMutability":"view","type":"function"},{"inputs":[{"internalType":"bytes[]","name":"data","type":"bytes[]"}],"name":"multicall","outputs":[{"internalType":"bytes[]","name":"results","type":"bytes[]"}],"stateMutability":"nonpayable","type":"function"},{"inputs":[{"internalType":"bytes32","name":"","type":"bytes32"}],"name":"paperOwner","outputs":[{"internalType":"address","name":"","type":"address"}],"stateMutability":"view","type":"function"},{"inputs":[{"internalType":"bytes32","name":"","type":"bytes32"}],"name":"paperRetractionEvidence","outputs":[{"internalType":"bytes32","name":"","type":"bytes32"}],"stateMutability":"view","type":"function"},{"inputs":[{"internalType":"bytes32","name":"_paper","type":"bytes32"},{"internalType":"address","name":"_owner","type":"address"}],"name":"publishPaper","outputs":[],"stateMutability":"nonpayable","type":"function"},{"inputs":[{"internalType":"bytes32","name":"","type":"bytes32"}],"name":"retractionStakeAmount","outputs":[{"internalType":"uint256","name":"","type":"uint256"}],"stateMutability":"view","type":"function"},{"inputs":[{"internalType":"bytes32","name":"_paperHash","type":"bytes32"}],"name":"upVote","outputs":[],"stateMutability":"nonpayable","type":"function"},{"inputs":[{"internalType":"bytes32","name":"","type":"bytes32"}],"name":"upVoteCount","outputs":[{"internalType":"uint256","name":"","type":"uint256"}],"stateMutability":"view","type":"function"},{"inputs":[],"name":"votingPeriod","outputs":[{"internalType":"uint256","name":"","type":"uint256"}],"stateMutability":"view","type":"function"},{"stateMutability":"payable","type":"receive"}],"evm":{"bytecode":{"linkReferences":{},"object":"608060405262093a80600055655af3107a400060015534801561002157600080fd5b50611d5d806100316000396000f3fe6080604052600436106101185760003560e01c806398542b04116100a0578063bdfd173011610064578063bdfd1730146103de578063c1282f6f1461041b578063caa27fa414610444578063d81c8e6d14610481578063ea909d921461049d5761011f565b806398542b04146102d55780639f0faef7146102fe578063a32a12de1461033b578063ab290ccc14610378578063ac9650d8146103a15761011f565b806356f96380116100e757806356f96380146101f25780635832cf591461021d57806366c112fc1461024657806389c61c151461026f5780639348c30d146102ac5761011f565b806302a251a31461012457806307d42ac51461014f5780632ed4ef561461018c5780633b1c4751146101c95761011f565b3661011f57005b600080fd5b34801561013057600080fd5b506101396104c6565b6040516101469190611273565b60405180910390f35b34801561015b57600080fd5b50610176600480360381019061017191906112ce565b6104cc565b6040516101839190611273565b60405180910390f35b34801561019857600080fd5b506101b360048036038101906101ae91906112ce565b6104e4565b6040516101c09190611273565b60405180910390f35b3480156101d557600080fd5b506101f060048036038101906101eb91906112ce565b6104fc565b005b3480156101fe57600080fd5b50610207610662565b6040516102149190611273565b60405180910390f35b34801561022957600080fd5b50610244600480360381019061023f9190611327565b610668565b005b34801561025257600080fd5b5061026d600480360381019061026891906112ce565b610672565b005b34801561027b57600080fd5b50610296600480360381019061029191906112ce565b61072e565b6040516102a39190611395565b60405180910390f35b3480156102b857600080fd5b506102d360048036038101906102ce91906112ce565b610761565b005b3480156102e157600080fd5b506102fc60048036038101906102f791906112ce565b61081d565b005b34801561030a57600080fd5b50610325600480360381019061032091906112ce565b6109b6565b60405161033291906113bf565b60405180910390f35b34801561034757600080fd5b50610362600480360381019061035d91906112ce565b6109ce565b60405161036f9190611273565b60405180910390f35b34801561038457600080fd5b5061039f600480360381019061039a9190611327565b6109e6565b005b3480156103ad57600080fd5b506103c860048036038101906103c3919061143f565b6109f0565b6040516103d591906115e7565b60405180910390f35b3480156103ea57600080fd5b50610405600480360381019061040091906112ce565b610afc565b6040516104129190611273565b60405180910390f35b34801561042757600080fd5b50610442600480360381019061043d9190611609565b610b14565b005b34801561045057600080fd5b5061046b600480360381019061046691906112ce565b610b42565b6040516104789190611395565b60405180910390f35b61049b60048036038101906104969190611649565b610b75565b005b3480156104a957600080fd5b506104c460048036038101906104bf91906116b5565b610d0a565b005b60005481565b60046020528060005260406000206000915090505481565b60056020528060005260406000206000915090505481565b61050581610d5c565b15610545576040517f08c379a000000000000000000000000000000000000000000000000000000000815260040161053c90611752565b60405180910390fd5b60026000828152602001908152602001600020546003600083815260200190815260200160002054116105ad576040517f08c379a00000000000000000000000000000000000000000000000000000000081526004016105a4906117be565b60405180910390fd5b3373ffffffffffffffffffffffffffffffffffffffff166108fc60056000848152602001908152602001600020549081150290604051600060405180830381858888f19350505050158015610606573d6000803e3d6000fd5b5060056000828152602001908152602001600020543373ffffffffffffffffffffffffffffffffffffffff16827fa567af9e43744328d277239aed836bbdc20f9f3de23245ae065b04affa512ec060405160405180910390a450565b60015481565b8060008190555050565b8061067c81610d5c565b6106bb576040517f08c379a00000000000000000000000000000000000000000000000000000000081526004016106b290611850565b60405180910390fd5b60016002600084815260200190815260200160002060008282546106df919061189f565b925050819055503373ffffffffffffffffffffffffffffffffffffffff16827fcc195c10dd1e36e4ca68916315651981750e43459dc0de66f01ed86876583cc360405160405180910390a35050565b60096020528060005260406000206000915054906101000a900473ffffffffffffffffffffffffffffffffffffffff1681565b8061076b81610d5c565b6107aa576040517f08c379a00000000000000000000000000000000000000000000000000000000081526004016107a190611850565b60405180910390fd5b60016003600084815260200190815260200160002060008282546107ce919061189f565b925050819055503373ffffffffffffffffffffffffffffffffffffffff16827f64ecddf5d5c9d48566d19a66ddc9aee61ff5413c6ff29970ae3c7a969b43ea9c60405160405180910390a35050565b61082681610d5c565b15610866576040517f08c379a000000000000000000000000000000000000000000000000000000000815260040161085d90611752565b60405180910390fd5b60036000828152602001908152602001600020546002600083815260200190815260200160002054116108ce576040517f08c379a00000000000000000000000000000000000000000000000000000000081526004016108c590611941565b60405180910390fd5b6009600082815260200190815260200160002060009054906101000a900473ffffffffffffffffffffffffffffffffffffffff1673ffffffffffffffffffffffffffffffffffffffff166108fc60056000848152602001908152602001600020549081150290604051600060405180830381858888f1935050505015801561095a573d6000803e3d6000fd5b5060056000828152602001908152602001600020543373ffffffffffffffffffffffffffffffffffffffff16827f2fab4ea8480ac6694bb79bfcb1d1210e47e715befc2c5d9d9e44a1c268dbab2960405160405180910390a450565b60076020528060005260406000206000915090505481565b60026020528060005260406000206000915090505481565b8060018190555050565b60608282905067ffffffffffffffff811115610a0f57610a0e611961565b5b604051908082528060200260200182016040528015610a4257816020015b6060815260200190600190039081610a2d5790505b50905060005b83839050811015610af557610ac430858584818110610a6a57610a69611990565b5b9050602002810190610a7c91906119ce565b8080601f016020809104026020016040519081016040528093929190818152602001838380828437600081840152601f19601f82011690508083019250505050505050610d87565b828281518110610ad757610ad6611990565b5b60200260200101819052508080610aed90611a31565b915050610a48565b5092915050565b60036020528060005260406000206000915090505481565b80600560008481526020019081526020016000206000828254610b37919061189f565b925050819055505050565b60066020528060005260406000206000915054906101000a900473ffffffffffffffffffffffffffffffffffffffff1681565b600154341015610bba576040517f08c379a0000000000000000000000000000000000000000000000000000000008152600401610bb190611ac6565b60405180910390fd5b610bc382610d5c565b15610c03576040517f08c379a0000000000000000000000000000000000000000000000000000000008152600401610bfa90611b58565b60405180910390fd5b610c0d8234610b14565b6000600260008481526020019081526020016000208190555060006003600084815260200190815260200160002081905550426004600084815260200190815260200160002081905550806007600084815260200190815260200160002081905550336006600084815260200190815260200160002060006101000a81548173ffffffffffffffffffffffffffffffffffffffff021916908373ffffffffffffffffffffffffffffffffffffffff160217905550343373ffffffffffffffffffffffffffffffffffffffff16837fd26ab04488ec637d788718439a7fb88013e8272c2ab9d9014cb0865365b054b360405160405180910390a45050565b610d148183610db4565b8073ffffffffffffffffffffffffffffffffffffffff16827fd2032fb81eabfe1b02214bfe4efdb18de55af16f375ef664a2afcbc30ffde62460405160405180910390a35050565b600080546004600084815260200190815260200160002054610d7e919061189f565b42109050919050565b6060610dac8383604051806060016040528060278152602001611d0160279139610f16565b905092915050565b600073ffffffffffffffffffffffffffffffffffffffff166009600083815260200190815260200160002060009054906101000a900473ffffffffffffffffffffffffffffffffffffffff1673ffffffffffffffffffffffffffffffffffffffff1614610e6e57610e6c81600860008573ffffffffffffffffffffffffffffffffffffffff1673ffffffffffffffffffffffffffffffffffffffff168152602001908152602001600020610f9c90919063ffffffff16565b505b610ebf81600860008573ffffffffffffffffffffffffffffffffffffffff1673ffffffffffffffffffffffffffffffffffffffff168152602001908152602001600020610fb390919063ffffffff16565b50816009600083815260200190815260200160002060006101000a81548173ffffffffffffffffffffffffffffffffffffffff021916908373ffffffffffffffffffffffffffffffffffffffff1602179055505050565b60606000808573ffffffffffffffffffffffffffffffffffffffff1685604051610f409190611bb4565b600060405180830381855af49150503d8060008114610f7b576040519150601f19603f3d011682016040523d82523d6000602084013e610f80565b606091505b5091509150610f9186838387610fca565b925050509392505050565b6000610fab8360000183611040565b905092915050565b6000610fc28360000183611154565b905092915050565b6060831561102d5760008351141561102557610fe5856111c4565b611024576040517f08c379a000000000000000000000000000000000000000000000000000000000815260040161101b90611c17565b60405180910390fd5b5b829050611038565b61103783836111e7565b5b949350505050565b600080836001016000848152602001908152602001600020549050600081146111485760006001826110729190611c37565b905060006001866000018054905061108a9190611c37565b90508181146110f95760008660000182815481106110ab576110aa611990565b5b90600052602060002001549050808760000184815481106110cf576110ce611990565b5b90600052602060002001819055508387600101600083815260200190815260200160002081905550505b8560000180548061110d5761110c611c6b565b5b60019003818190600052602060002001600090559055856001016000868152602001908152602001600020600090556001935050505061114e565b60009150505b92915050565b60006111608383611237565b6111b95782600001829080600181540180825580915050600190039060005260206000200160009091909190915055826000018054905083600101600084815260200190815260200160002081905550600190506111be565b600090505b92915050565b6000808273ffffffffffffffffffffffffffffffffffffffff163b119050919050565b6000825111156111fa5781518083602001fd5b806040517f08c379a000000000000000000000000000000000000000000000000000000000815260040161122e9190611cde565b60405180910390fd5b600080836001016000848152602001908152602001600020541415905092915050565b6000819050919050565b61126d8161125a565b82525050565b60006020820190506112886000830184611264565b92915050565b600080fd5b600080fd5b6000819050919050565b6112ab81611298565b81146112b657600080fd5b50565b6000813590506112c8816112a2565b92915050565b6000602082840312156112e4576112e361128e565b5b60006112f2848285016112b9565b91505092915050565b6113048161125a565b811461130f57600080fd5b50565b600081359050611321816112fb565b92915050565b60006020828403121561133d5761133c61128e565b5b600061134b84828501611312565b91505092915050565b600073ffffffffffffffffffffffffffffffffffffffff82169050919050565b600061137f82611354565b9050919050565b61138f81611374565b82525050565b60006020820190506113aa6000830184611386565b92915050565b6113b981611298565b82525050565b60006020820190506113d460008301846113b0565b92915050565b600080fd5b600080fd5b600080fd5b60008083601f8401126113ff576113fe6113da565b5b8235905067ffffffffffffffff81111561141c5761141b6113df565b5b602083019150836020820283011115611438576114376113e4565b5b9250929050565b600080602083850312156114565761145561128e565b5b600083013567ffffffffffffffff81111561147457611473611293565b5b611480858286016113e9565b92509250509250929050565b600081519050919050565b600082825260208201905092915050565b6000819050602082019050919050565b600081519050919050565b600082825260208201905092915050565b60005b838110156114f25780820151818401526020810190506114d7565b83811115611501576000848401525b50505050565b6000601f19601f8301169050919050565b6000611523826114b8565b61152d81856114c3565b935061153d8185602086016114d4565b61154681611507565b840191505092915050565b600061155d8383611518565b905092915050565b6000602082019050919050565b600061157d8261148c565b6115878185611497565b935083602082028501611599856114a8565b8060005b858110156115d557848403895281516115b68582611551565b94506115c183611565565b925060208a0199505060018101905061159d565b50829750879550505050505092915050565b600060208201905081810360008301526116018184611572565b905092915050565b600080604083850312156116205761161f61128e565b5b600061162e858286016112b9565b925050602061163f85828601611312565b9150509250929050565b600080604083850312156116605761165f61128e565b5b600061166e858286016112b9565b925050602061167f858286016112b9565b9150509250929050565b61169281611374565b811461169d57600080fd5b50565b6000813590506116af81611689565b92915050565b600080604083850312156116cc576116cb61128e565b5b60006116da858286016112b9565b92505060206116eb858286016116a0565b9150509250929050565b600082825260208201905092915050565b7f566f74696e672069732061637469766500000000000000000000000000000000600082015250565b600061173c6010836116f5565b915061174782611706565b602082019050919050565b6000602082019050818103600083015261176b8161172f565b9050919050565b7f70617065724f776e6572206c6f737420746865206368616c6c656e6765000000600082015250565b60006117a8601d836116f5565b91506117b382611772565b602082019050919050565b600060208201905081810360008301526117d78161179b565b9050919050565b7f566f74696e67206973206e6f742061637469766520666f72207468697320706160008201527f7065720000000000000000000000000000000000000000000000000000000000602082015250565b600061183a6023836116f5565b9150611845826117de565b604082019050919050565b600060208201905081810360008301526118698161182d565b9050919050565b7f4e487b7100000000000000000000000000000000000000000000000000000000600052601160045260246000fd5b60006118aa8261125a565b91506118b58361125a565b9250827fffffffffffffffffffffffffffffffffffffffffffffffffffffffffffffffff038211156118ea576118e9611870565b5b828201905092915050565b7f6368616c6c656e676572206c6f737420746865206368616c6c656e6765000000600082015250565b600061192b601d836116f5565b9150611936826118f5565b602082019050919050565b6000602082019050818103600083015261195a8161191e565b9050919050565b7f4e487b7100000000000000000000000000000000000000000000000000000000600052604160045260246000fd5b7f4e487b7100000000000000000000000000000000000000000000000000000000600052603260045260246000fd5b600080fd5b600080fd5b600080fd5b600080833560016020038436030381126119eb576119ea6119bf565b5b80840192508235915067ffffffffffffffff821115611a0d57611a0c6119c4565b5b602083019250600182023603831315611a2957611a286119c9565b5b509250929050565b6000611a3c8261125a565b91507fffffffffffffffffffffffffffffffffffffffffffffffffffffffffffffffff821415611a6f57611a6e611870565b5b600182019050919050565b7f496e73756666696369656e7420616d6f756e7420666f72206465747261637400600082015250565b6000611ab0601f836116f5565b9150611abb82611a7a565b602082019050919050565b60006020820190508181036000830152611adf81611aa3565b9050919050565b7f566f74696e6720697320616c72656164792061637469766520666f722074686960008201527f7320706170657200000000000000000000000000000000000000000000000000602082015250565b6000611b426027836116f5565b9150611b4d82611ae6565b604082019050919050565b60006020820190508181036000830152611b7181611b35565b9050919050565b600081905092915050565b6000611b8e826114b8565b611b988185611b78565b9350611ba88185602086016114d4565b80840191505092915050565b6000611bc08284611b83565b915081905092915050565b7f416464726573733a2063616c6c20746f206e6f6e2d636f6e7472616374000000600082015250565b6000611c01601d836116f5565b9150611c0c82611bcb565b602082019050919050565b60006020820190508181036000830152611c3081611bf4565b9050919050565b6000611c428261125a565b9150611c4d8361125a565b925082821015611c6057611c5f611870565b5b828203905092915050565b7f4e487b7100000000000000000000000000000000000000000000000000000000600052603160045260246000fd5b600081519050919050565b6000611cb082611c9a565b611cba81856116f5565b9350611cca8185602086016114d4565b611cd381611507565b840191505092915050565b60006020820190508181036000830152611cf88184611ca5565b90509291505056fe416464726573733a206c6f772d6c6576656c2064656c65676174652063616c6c206661696c6564a2646970667358221220edcefffbcf15e12e6d74b905c31e8e544af51375494143e20a8c2a5d3ad5522c64736f6c63430008090033","opcodes":"PUSH1 0x80 PUSH1 0x40 MSTORE PUSH3 0x93A80 PUSH1 0x0 SSTORE PUSH6 0x5AF3107A4000 PUSH1 0x1 SSTORE CALLVALUE DUP1 ISZERO PUSH2 0x21 JUMPI PUSH1 0x0 DUP1 REVERT JUMPDEST POP PUSH2 0x1D5D DUP1 PUSH2 0x31 PUSH1 0x0 CODECOPY PUSH1 0x0 RETURN INVALID PUSH1 0x80 PUSH1 0x40 MSTORE PUSH1 0x4 CALLDATASIZE LT PUSH2 0x118 JUMPI PUSH1 0x0 CALLDATALOAD PUSH1 0xE0 SHR DUP1 PUSH4 0x98542B04 GT PUSH2 0xA0 JUMPI DUP1 PUSH4 0xBDFD1730 GT PUSH2 0x64 JUMPI DUP1 PUSH4 0xBDFD1730 EQ PUSH2 0x3DE JUMPI DUP1 PUSH4 0xC1282F6F EQ PUSH2 0x41B JUMPI DUP1 PUSH4 0xCAA27FA4 EQ PUSH2 0x444 JUMPI DUP1 PUSH4 0xD81C8E6D EQ PUSH2 0x481 JUMPI DUP1 PUSH4 0xEA909D92 EQ PUSH2 0x49D JUMPI PUSH2 0x11F JUMP JUMPDEST DUP1 PUSH4 0x98542B04 EQ PUSH2 0x2D5 JUMPI DUP1 PUSH4 0x9F0FAEF7 EQ PUSH2 0x2FE JUMPI DUP1 PUSH4 0xA32A12DE EQ PUSH2 0x33B JUMPI DUP1 PUSH4 0xAB290CCC EQ PUSH2 0x378 JUMPI DUP1 PUSH4 0xAC9650D8 EQ PUSH2 0x3A1 JUMPI PUSH2 0x11F JUMP JUMPDEST DUP1 PUSH4 0x56F96380 GT PUSH2 0xE7 JUMPI DUP1 PUSH4 0x56F96380 EQ PUSH2 0x1F2 JUMPI DUP1 PUSH4 0x5832CF59 EQ PUSH2 0x21D JUMPI DUP1 PUSH4 0x66C112FC EQ PUSH2 0x246 JUMPI DUP1 PUSH4 0x89C61C15 EQ PUSH2 0x26F JUMPI DUP1 PUSH4 0x9348C30D EQ PUSH2 0x2AC JUMPI PUSH2 0x11F JUMP JUMPDEST DUP1 PUSH4 0x2A251A3 EQ PUSH2 0x124 JUMPI DUP1 PUSH4 0x7D42AC5 EQ PUSH2 0x14F JUMPI DUP1 PUSH4 0x2ED4EF56 EQ PUSH2 0x18C JUMPI DUP1 PUSH4 0x3B1C4751 EQ PUSH2 0x1C9 JUMPI PUSH2 0x11F JUMP JUMPDEST CALLDATASIZE PUSH2 0x11F JUMPI STOP JUMPDEST PUSH1 0x0 DUP1 REVERT JUMPDEST CALLVALUE DUP1 ISZERO PUSH2 0x130 JUMPI PUSH1 0x0 DUP1 REVERT JUMPDEST POP PUSH2 0x139 PUSH2 0x4C6 JUMP JUMPDEST PUSH1 0x40 MLOAD PUSH2 0x146 SWAP2 SWAP1 PUSH2 0x1273 JUMP JUMPDEST PUSH1 0x40 MLOAD DUP1 SWAP2 SUB SWAP1 RETURN JUMPDEST CALLVALUE DUP1 ISZERO PUSH2 0x15B JUMPI PUSH1 0x0 DUP1 REVERT JUMPDEST POP PUSH2 0x176 PUSH1 0x4 DUP1 CALLDATASIZE SUB DUP2 ADD SWAP1 PUSH2 0x171 SWAP2 SWAP1 PUSH2 0x12CE JUMP JUMPDEST PUSH2 0x4CC JUMP JUMPDEST PUSH1 0x40 MLOAD PUSH2 0x183 SWAP2 SWAP1 PUSH2 0x1273 JUMP JUMPDEST PUSH1 0x40 MLOAD DUP1 SWAP2 SUB SWAP1 RETURN JUMPDEST CALLVALUE DUP1 ISZERO PUSH2 0x198 JUMPI PUSH1 0x0 DUP1 REVERT JUMPDEST POP PUSH2 0x1B3 PUSH1 0x4 DUP1 CALLDATASIZE SUB DUP2 ADD SWAP1 PUSH2 0x1AE SWAP2 SWAP1 PUSH2 0x12CE JUMP JUMPDEST PUSH2 0x4E4 JUMP JUMPDEST PUSH1 0x40 MLOAD PUSH2 0x1C0 SWAP2 SWAP1 PUSH2 0x1273 JUMP JUMPDEST PUSH1 0x40 MLOAD DUP1 SWAP2 SUB SWAP1 RETURN JUMPDEST CALLVALUE DUP1 ISZERO PUSH2 0x1D5 JUMPI PUSH1 0x0 DUP1 REVERT JUMPDEST POP PUSH2 0x1F0 PUSH1 0x4 DUP1 CALLDATASIZE SUB DUP2 ADD SWAP1 PUSH2 0x1EB SWAP2 SWAP1 PUSH2 0x12CE JUMP JUMPDEST PUSH2 0x4FC JUMP JUMPDEST STOP JUMPDEST CALLVALUE DUP1 ISZERO PUSH2 0x1FE JUMPI PUSH1 0x0 DUP1 REVERT JUMPDEST POP PUSH2 0x207 PUSH2 0x662 JUMP JUMPDEST PUSH1 0x40 MLOAD PUSH2 0x214 SWAP2 SWAP1 PUSH2 0x1273 JUMP JUMPDEST PUSH1 0x40 MLOAD DUP1 SWAP2 SUB SWAP1 RETURN JUMPDEST CALLVALUE DUP1 ISZERO PUSH2 0x229 JUMPI PUSH1 0x0 DUP1 REVERT JUMPDEST POP PUSH2 0x244 PUSH1 0x4 DUP1 CALLDATASIZE SUB DUP2 ADD SWAP1 PUSH2 0x23F SWAP2 SWAP1 PUSH2 0x1327 JUMP JUMPDEST PUSH2 0x668 JUMP JUMPDEST STOP JUMPDEST CALLVALUE DUP1 ISZERO PUSH2 0x252 JUMPI PUSH1 0x0 DUP1 REVERT JUMPDEST POP PUSH2 0x26D PUSH1 0x4 DUP1 CALLDATASIZE SUB DUP2 ADD SWAP1 PUSH2 0x268 SWAP2 SWAP1 PUSH2 0x12CE JUMP JUMPDEST PUSH2 0x672 JUMP JUMPDEST STOP JUMPDEST CALLVALUE DUP1 ISZERO PUSH2 0x27B JUMPI PUSH1 0x0 DUP1 REVERT JUMPDEST POP PUSH2 0x296 PUSH1 0x4 DUP1 CALLDATASIZE SUB DUP2 ADD SWAP1 PUSH2 0x291 SWAP2 SWAP1 PUSH2 0x12CE JUMP JUMPDEST PUSH2 0x72E JUMP JUMPDEST PUSH1 0x40 MLOAD PUSH2 0x2A3 SWAP2 SWAP1 PUSH2 0x1395 JUMP JUMPDEST PUSH1 0x40 MLOAD DUP1 SWAP2 SUB SWAP1 RETURN JUMPDEST CALLVALUE DUP1 ISZERO PUSH2 0x2B8 JUMPI PUSH1 0x0 DUP1 REVERT JUMPDEST POP PUSH2 0x2D3 PUSH1 0x4 DUP1 CALLDATASIZE SUB DUP2 ADD SWAP1 PUSH2 0x2CE SWAP2 SWAP1 PUSH2 0x12CE JUMP JUMPDEST PUSH2 0x761 JUMP JUMPDEST STOP JUMPDEST CALLVALUE DUP1 ISZERO PUSH2 0x2E1 JUMPI PUSH1 0x0 DUP1 REVERT JUMPDEST POP PUSH2 0x2FC PUSH1 0x4 DUP1 CALLDATASIZE SUB DUP2 ADD SWAP1 PUSH2 0x2F7 SWAP2 SWAP1 PUSH2 0x12CE JUMP JUMPDEST PUSH2 0x81D JUMP JUMPDEST STOP JUMPDEST CALLVALUE DUP1 ISZERO PUSH2 0x30A JUMPI PUSH1 0x0 DUP1 REVERT JUMPDEST POP PUSH2 0x325 PUSH1 0x4 DUP1 CALLDATASIZE SUB DUP2 ADD SWAP1 PUSH2 0x320 SWAP2 SWAP1 PUSH2 0x12CE JUMP JUMPDEST PUSH2 0x9B6 JUMP JUMPDEST PUSH1 0x40 MLOAD PUSH2 0x332 SWAP2 SWAP1 PUSH2 0x13BF JUMP JUMPDEST PUSH1 0x40 MLOAD DUP1 SWAP2 SUB SWAP1 RETURN JUMPDEST CALLVALUE DUP1 ISZERO PUSH2 0x347 JUMPI PUSH1 0x0 DUP1 REVERT JUMPDEST POP PUSH2 0x362 PUSH1 0x4 DUP1 CALLDATASIZE SUB DUP2 ADD SWAP1 PUSH2 0x35D SWAP2 SWAP1 PUSH2 0x12CE JUMP JUMPDEST PUSH2 0x9CE JUMP JUMPDEST PUSH1 0x40 MLOAD PUSH2 0x36F SWAP2 SWAP1 PUSH2 0x1273 JUMP JUMPDEST PUSH1 0x40 MLOAD DUP1 SWAP2 SUB SWAP1 RETURN JUMPDEST CALLVALUE DUP1 ISZERO PUSH2 0x384 JUMPI PUSH1 0x0 DUP1 REVERT JUMPDEST POP PUSH2 0x39F PUSH1 0x4 DUP1 CALLDATASIZE SUB DUP2 ADD SWAP1 PUSH2 0x39A SWAP2 SWAP1 PUSH2 0x1327 JUMP JUMPDEST PUSH2 0x9E6 JUMP JUMPDEST STOP JUMPDEST CALLVALUE DUP1 ISZERO PUSH2 0x3AD JUMPI PUSH1 0x0 DUP1 REVERT JUMPDEST POP PUSH2 0x3C8 PUSH1 0x4 DUP1 CALLDATASIZE SUB DUP2 ADD SWAP1 PUSH2 0x3C3 SWAP2 SWAP1 PUSH2 0x143F JUMP JUMPDEST PUSH2 0x9F0 JUMP JUMPDEST PUSH1 0x40 MLOAD PUSH2 0x3D5 SWAP2 SWAP1 PUSH2 0x15E7 JUMP JUMPDEST PUSH1 0x40 MLOAD DUP1 SWAP2 SUB SWAP1 RETURN JUMPDEST CALLVALUE DUP1 ISZERO PUSH2 0x3EA JUMPI PUSH1 0x0 DUP1 REVERT JUMPDEST POP PUSH2 0x405 PUSH1 0x4 DUP1 CALLDATASIZE SUB DUP2 ADD SWAP1 PUSH2 0x400 SWAP2 SWAP1 PUSH2 0x12CE JUMP JUMPDEST PUSH2 0xAFC JUMP JUMPDEST PUSH1 0x40 MLOAD PUSH2 0x412 SWAP2 SWAP1 PUSH2 0x1273 JUMP JUMPDEST PUSH1 0x40 MLOAD DUP1 SWAP2 SUB SWAP1 RETURN JUMPDEST CALLVALUE DUP1 ISZERO PUSH2 0x427 JUMPI PUSH1 0x0 DUP1 REVERT JUMPDEST POP PUSH2 0x442 PUSH1 0x4 DUP1 CALLDATASIZE SUB DUP2 ADD SWAP1 PUSH2 0x43D SWAP2 SWAP1 PUSH2 0x1609 JUMP JUMPDEST PUSH2 0xB14 JUMP JUMPDEST STOP JUMPDEST CALLVALUE DUP1 ISZERO PUSH2 0x450 JUMPI PUSH1 0x0 DUP1 REVERT JUMPDEST POP PUSH2 0x46B PUSH1 0x4 DUP1 CALLDATASIZE SUB DUP2 ADD SWAP1 PUSH2 0x466 SWAP2 SWAP1 PUSH2 0x12CE JUMP JUMPDEST PUSH2 0xB42 JUMP JUMPDEST PUSH1 0x40 MLOAD PUSH2 0x478 SWAP2 SWAP1 PUSH2 0x1395 JUMP JUMPDEST PUSH1 0x40 MLOAD DUP1 SWAP2 SUB SWAP1 RETURN JUMPDEST PUSH2 0x49B PUSH1 0x4 DUP1 CALLDATASIZE SUB DUP2 ADD SWAP1 PUSH2 0x496 SWAP2 SWAP1 PUSH2 0x1649 JUMP JUMPDEST PUSH2 0xB75 JUMP JUMPDEST STOP JUMPDEST CALLVALUE DUP1 ISZERO PUSH2 0x4A9 JUMPI PUSH1 0x0 DUP1 REVERT JUMPDEST POP PUSH2 0x4C4 PUSH1 0x4 DUP1 CALLDATASIZE SUB DUP2 ADD SWAP1 PUSH2 0x4BF SWAP2 SWAP1 PUSH2 0x16B5 JUMP JUMPDEST PUSH2 0xD0A JUMP JUMPDEST STOP JUMPDEST PUSH1 0x0 SLOAD DUP2 JUMP JUMPDEST PUSH1 0x4 PUSH1 0x20 MSTORE DUP1 PUSH1 0x0 MSTORE PUSH1 0x40 PUSH1 0x0 KECCAK256 PUSH1 0x0 SWAP2 POP SWAP1 POP SLOAD DUP2 JUMP JUMPDEST PUSH1 0x5 PUSH1 0x20 MSTORE DUP1 PUSH1 0x0 MSTORE PUSH1 0x40 PUSH1 0x0 KECCAK256 PUSH1 0x0 SWAP2 POP SWAP1 POP SLOAD DUP2 JUMP JUMPDEST PUSH2 0x505 DUP2 PUSH2 0xD5C JUMP JUMPDEST ISZERO PUSH2 0x545 JUMPI PUSH1 0x40 MLOAD PUSH32 0x8C379A000000000000000000000000000000000000000000000000000000000 DUP2 MSTORE PUSH1 0x4 ADD PUSH2 0x53C SWAP1 PUSH2 0x1752 JUMP JUMPDEST PUSH1 0x40 MLOAD DUP1 SWAP2 SUB SWAP1 REVERT JUMPDEST PUSH1 0x2 PUSH1 0x0 DUP3 DUP2 MSTORE PUSH1 0x20 ADD SWAP1 DUP2 MSTORE PUSH1 0x20 ADD PUSH1 0x0 KECCAK256 SLOAD PUSH1 0x3 PUSH1 0x0 DUP4 DUP2 MSTORE PUSH1 0x20 ADD SWAP1 DUP2 MSTORE PUSH1 0x20 ADD PUSH1 0x0 KECCAK256 SLOAD GT PUSH2 0x5AD JUMPI PUSH1 0x40 MLOAD PUSH32 0x8C379A000000000000000000000000000000000000000000000000000000000 DUP2 MSTORE PUSH1 0x4 ADD PUSH2 0x5A4 SWAP1 PUSH2 0x17BE JUMP JUMPDEST PUSH1 0x40 MLOAD DUP1 SWAP2 SUB SWAP1 REVERT JUMPDEST CALLER PUSH20 0xFFFFFFFFFFFFFFFFFFFFFFFFFFFFFFFFFFFFFFFF AND PUSH2 0x8FC PUSH1 0x5 PUSH1 0x0 DUP5 DUP2 MSTORE PUSH1 0x20 ADD SWAP1 DUP2 MSTORE PUSH1 0x20 ADD PUSH1 0x0 KECCAK256 SLOAD SWAP1 DUP2 ISZERO MUL SWAP1 PUSH1 0x40 MLOAD PUSH1 0x0 PUSH1 0x40 MLOAD DUP1 DUP4 SUB DUP2 DUP6 DUP9 DUP9 CALL SWAP4 POP POP POP POP ISZERO DUP1 ISZERO PUSH2 0x606 JUMPI RETURNDATASIZE PUSH1 0x0 DUP1 RETURNDATACOPY RETURNDATASIZE PUSH1 0x0 REVERT JUMPDEST POP PUSH1 0x5 PUSH1 0x0 DUP3 DUP2 MSTORE PUSH1 0x20 ADD SWAP1 DUP2 MSTORE PUSH1 0x20 ADD PUSH1 0x0 KECCAK256 SLOAD CALLER PUSH20 0xFFFFFFFFFFFFFFFFFFFFFFFFFFFFFFFFFFFFFFFF AND DUP3 PUSH32 0xA567AF9E43744328D277239AED836BBDC20F9F3DE23245AE065B04AFFA512EC0 PUSH1 0x40 MLOAD PUSH1 0x40 MLOAD DUP1 SWAP2 SUB SWAP1 LOG4 POP JUMP JUMPDEST PUSH1 0x1 SLOAD DUP2 JUMP JUMPDEST DUP1 PUSH1 0x0 DUP2 SWAP1 SSTORE POP POP JUMP JUMPDEST DUP1 PUSH2 0x67C DUP2 PUSH2 0xD5C JUMP JUMPDEST PUSH2 0x6BB JUMPI PUSH1 0x40 MLOAD PUSH32 0x8C379A000000000000000000000000000000000000000000000000000000000 DUP2 MSTORE PUSH1 0x4 ADD PUSH2 0x6B2 SWAP1 PUSH2 0x1850 JUMP JUMPDEST PUSH1 0x40 MLOAD DUP1 SWAP2 SUB SWAP1 REVERT JUMPDEST PUSH1 0x1 PUSH1 0x2 PUSH1 0x0 DUP5 DUP2 MSTORE PUSH1 0x20 ADD SWAP1 DUP2 MSTORE PUSH1 0x20 ADD PUSH1 0x0 KECCAK256 PUSH1 0x0 DUP3 DUP3 SLOAD PUSH2 0x6DF SWAP2 SWAP1 PUSH2 0x189F JUMP JUMPDEST SWAP3 POP POP DUP2 SWAP1 SSTORE POP CALLER PUSH20 0xFFFFFFFFFFFFFFFFFFFFFFFFFFFFFFFFFFFFFFFF AND DUP3 PUSH32 0xCC195C10DD1E36E4CA68916315651981750E43459DC0DE66F01ED86876583CC3 PUSH1 0x40 MLOAD PUSH1 0x40 MLOAD DUP1 SWAP2 SUB SWAP1 LOG3 POP POP JUMP JUMPDEST PUSH1 0x9 PUSH1 0x20 MSTORE DUP1 PUSH1 0x0 MSTORE PUSH1 0x40 PUSH1 0x0 KECCAK256 PUSH1 0x0 SWAP2 POP SLOAD SWAP1 PUSH2 0x100 EXP SWAP1 DIV PUSH20 0xFFFFFFFFFFFFFFFFFFFFFFFFFFFFFFFFFFFFFFFF AND DUP2 JUMP JUMPDEST DUP1 PUSH2 0x76B DUP2 PUSH2 0xD5C JUMP JUMPDEST PUSH2 0x7AA JUMPI PUSH1 0x40 MLOAD PUSH32 0x8C379A000000000000000000000000000000000000000000000000000000000 DUP2 MSTORE PUSH1 0x4 ADD PUSH2 0x7A1 SWAP1 PUSH2 0x1850 JUMP JUMPDEST PUSH1 0x40 MLOAD DUP1 SWAP2 SUB SWAP1 REVERT JUMPDEST PUSH1 0x1 PUSH1 0x3 PUSH1 0x0 DUP5 DUP2 MSTORE PUSH1 0x20 ADD SWAP1 DUP2 MSTORE PUSH1 0x20 ADD PUSH1 0x0 KECCAK256 PUSH1 0x0 DUP3 DUP3 SLOAD PUSH2 0x7CE SWAP2 SWAP1 PUSH2 0x189F JUMP JUMPDEST SWAP3 POP POP DUP2 SWAP1 SSTORE POP CALLER PUSH20 0xFFFFFFFFFFFFFFFFFFFFFFFFFFFFFFFFFFFFFFFF AND DUP3 PUSH32 0x64ECDDF5D5C9D48566D19A66DDC9AEE61FF5413C6FF29970AE3C7A969B43EA9C PUSH1 0x40 MLOAD PUSH1 0x40 MLOAD DUP1 SWAP2 SUB SWAP1 LOG3 POP POP JUMP JUMPDEST PUSH2 0x826 DUP2 PUSH2 0xD5C JUMP JUMPDEST ISZERO PUSH2 0x866 JUMPI PUSH1 0x40 MLOAD PUSH32 0x8C379A000000000000000000000000000000000000000000000000000000000 DUP2 MSTORE PUSH1 0x4 ADD PUSH2 0x85D SWAP1 PUSH2 0x1752 JUMP JUMPDEST PUSH1 0x40 MLOAD DUP1 SWAP2 SUB SWAP1 REVERT JUMPDEST PUSH1 0x3 PUSH1 0x0 DUP3 DUP2 MSTORE PUSH1 0x20 ADD SWAP1 DUP2 MSTORE PUSH1 0x20 ADD PUSH1 0x0 KECCAK256 SLOAD PUSH1 0x2 PUSH1 0x0 DUP4 DUP2 MSTORE PUSH1 0x20 ADD SWAP1 DUP2 MSTORE PUSH1 0x20 ADD PUSH1 0x0 KECCAK256 SLOAD GT PUSH2 0x8CE JUMPI PUSH1 0x40 MLOAD PUSH32 0x8C379A000000000000000000000000000000000000000000000000000000000 DUP2 MSTORE PUSH1 0x4 ADD PUSH2 0x8C5 SWAP1 PUSH2 0x1941 JUMP JUMPDEST PUSH1 0x40 MLOAD DUP1 SWAP2 SUB SWAP1 REVERT JUMPDEST PUSH1 0x9 PUSH1 0x0 DUP3 DUP2 MSTORE PUSH1 0x20 ADD SWAP1 DUP2 MSTORE PUSH1 0x20 ADD PUSH1 0x0 KECCAK256 PUSH1 0x0 SWAP1 SLOAD SWAP1 PUSH2 0x100 EXP SWAP1 DIV PUSH20 0xFFFFFFFFFFFFFFFFFFFFFFFFFFFFFFFFFFFFFFFF AND PUSH20 0xFFFFFFFFFFFFFFFFFFFFFFFFFFFFFFFFFFFFFFFF AND PUSH2 0x8FC PUSH1 0x5 PUSH1 0x0 DUP5 DUP2 MSTORE PUSH1 0x20 ADD SWAP1 DUP2 MSTORE PUSH1 0x20 ADD PUSH1 0x0 KECCAK256 SLOAD SWAP1 DUP2 ISZERO MUL SWAP1 PUSH1 0x40 MLOAD PUSH1 0x0 PUSH1 0x40 MLOAD DUP1 DUP4 SUB DUP2 DUP6 DUP9 DUP9 CALL SWAP4 POP POP POP POP ISZERO DUP1 ISZERO PUSH2 0x95A JUMPI RETURNDATASIZE PUSH1 0x0 DUP1 RETURNDATACOPY RETURNDATASIZE PUSH1 0x0 REVERT JUMPDEST POP PUSH1 0x5 PUSH1 0x0 DUP3 DUP2 MSTORE PUSH1 0x20 ADD SWAP1 DUP2 MSTORE PUSH1 0x20 ADD PUSH1 0x0 KECCAK256 SLOAD CALLER PUSH20 0xFFFFFFFFFFFFFFFFFFFFFFFFFFFFFFFFFFFFFFFF AND DUP3 PUSH32 0x2FAB4EA8480AC6694BB79BFCB1D1210E47E715BEFC2C5D9D9E44A1C268DBAB29 PUSH1 0x40 MLOAD PUSH1 0x40 MLOAD DUP1 SWAP2 SUB SWAP1 LOG4 POP JUMP JUMPDEST PUSH1 0x7 PUSH1 0x20 MSTORE DUP1 PUSH1 0x0 MSTORE PUSH1 0x40 PUSH1 0x0 KECCAK256 PUSH1 0x0 SWAP2 POP SWAP1 POP SLOAD DUP2 JUMP JUMPDEST PUSH1 0x2 PUSH1 0x20 MSTORE DUP1 PUSH1 0x0 MSTORE PUSH1 0x40 PUSH1 0x0 KECCAK256 PUSH1 0x0 SWAP2 POP SWAP1 POP SLOAD DUP2 JUMP JUMPDEST DUP1 PUSH1 0x1 DUP2 SWAP1 SSTORE POP POP JUMP JUMPDEST PUSH1 0x60 DUP3 DUP3 SWAP1 POP PUSH8 0xFFFFFFFFFFFFFFFF DUP2 GT ISZERO PUSH2 0xA0F JUMPI PUSH2 0xA0E PUSH2 0x1961 JUMP JUMPDEST JUMPDEST PUSH1 0x40 MLOAD SWAP1 DUP1 DUP3 MSTORE DUP1 PUSH1 0x20 MUL PUSH1 0x20 ADD DUP3 ADD PUSH1 0x40 MSTORE DUP1 ISZERO PUSH2 0xA42 JUMPI DUP2 PUSH1 0x20 ADD JUMPDEST PUSH1 0x60 DUP2 MSTORE PUSH1 0x20 ADD SWAP1 PUSH1 0x1 SWAP1 SUB SWAP1 DUP2 PUSH2 0xA2D JUMPI SWAP1 POP JUMPDEST POP SWAP1 POP PUSH1 0x0 JUMPDEST DUP4 DUP4 SWAP1 POP DUP2 LT ISZERO PUSH2 0xAF5 JUMPI PUSH2 0xAC4 ADDRESS DUP6 DUP6 DUP5 DUP2 DUP2 LT PUSH2 0xA6A JUMPI PUSH2 0xA69 PUSH2 0x1990 JUMP JUMPDEST JUMPDEST SWAP1 POP PUSH1 0x20 MUL DUP2 ADD SWAP1 PUSH2 0xA7C SWAP2 SWAP1 PUSH2 0x19CE JUMP JUMPDEST DUP1 DUP1 PUSH1 0x1F ADD PUSH1 0x20 DUP1 SWAP2 DIV MUL PUSH1 0x20 ADD PUSH1 0x40 MLOAD SWAP1 DUP2 ADD PUSH1 0x40 MSTORE DUP1 SWAP4 SWAP3 SWAP2 SWAP1 DUP2 DUP2 MSTORE PUSH1 0x20 ADD DUP4 DUP4 DUP1 DUP3 DUP5 CALLDATACOPY PUSH1 0x0 DUP2 DUP5 ADD MSTORE PUSH1 0x1F NOT PUSH1 0x1F DUP3 ADD AND SWAP1 POP DUP1 DUP4 ADD SWAP3 POP POP POP POP POP POP POP PUSH2 0xD87 JUMP JUMPDEST DUP3 DUP3 DUP2 MLOAD DUP2 LT PUSH2 0xAD7 JUMPI PUSH2 0xAD6 PUSH2 0x1990 JUMP JUMPDEST JUMPDEST PUSH1 0x20 MUL PUSH1 0x20 ADD ADD DUP2 SWAP1 MSTORE POP DUP1 DUP1 PUSH2 0xAED SWAP1 PUSH2 0x1A31 JUMP JUMPDEST SWAP2 POP POP PUSH2 0xA48 JUMP JUMPDEST POP SWAP3 SWAP2 POP POP JUMP JUMPDEST PUSH1 0x3 PUSH1 0x20 MSTORE DUP1 PUSH1 0x0 MSTORE PUSH1 0x40 PUSH1 0x0 KECCAK256 PUSH1 0x0 SWAP2 POP SWAP1 POP SLOAD DUP2 JUMP JUMPDEST DUP1 PUSH1 0x5 PUSH1 0x0 DUP5 DUP2 MSTORE PUSH1 0x20 ADD SWAP1 DUP2 MSTORE PUSH1 0x20 ADD PUSH1 0x0 KECCAK256 PUSH1 0x0 DUP3 DUP3 SLOAD PUSH2 0xB37 SWAP2 SWAP1 PUSH2 0x189F JUMP JUMPDEST SWAP3 POP POP DUP2 SWAP1 SSTORE POP POP POP JUMP JUMPDEST PUSH1 0x6 PUSH1 0x20 MSTORE DUP1 PUSH1 0x0 MSTORE PUSH1 0x40 PUSH1 0x0 KECCAK256 PUSH1 0x0 SWAP2 POP SLOAD SWAP1 PUSH2 0x100 EXP SWAP1 DIV PUSH20 0xFFFFFFFFFFFFFFFFFFFFFFFFFFFFFFFFFFFFFFFF AND DUP2 JUMP JUMPDEST PUSH1 0x1 SLOAD CALLVALUE LT ISZERO PUSH2 0xBBA JUMPI PUSH1 0x40 MLOAD PUSH32 0x8C379A000000000000000000000000000000000000000000000000000000000 DUP2 MSTORE PUSH1 0x4 ADD PUSH2 0xBB1 SWAP1 PUSH2 0x1AC6 JUMP JUMPDEST PUSH1 0x40 MLOAD DUP1 SWAP2 SUB SWAP1 REVERT JUMPDEST PUSH2 0xBC3 DUP3 PUSH2 0xD5C JUMP JUMPDEST ISZERO PUSH2 0xC03 JUMPI PUSH1 0x40 MLOAD PUSH32 0x8C379A000000000000000000000000000000000000000000000000000000000 DUP2 MSTORE PUSH1 0x4 ADD PUSH2 0xBFA SWAP1 PUSH2 0x1B58 JUMP JUMPDEST PUSH1 0x40 MLOAD DUP1 SWAP2 SUB SWAP1 REVERT JUMPDEST PUSH2 0xC0D DUP3 CALLVALUE PUSH2 0xB14 JUMP JUMPDEST PUSH1 0x0 PUSH1 0x2 PUSH1 0x0 DUP5 DUP2 MSTORE PUSH1 0x20 ADD SWAP1 DUP2 MSTORE PUSH1 0x20 ADD PUSH1 0x0 KECCAK256 DUP2 SWAP1 SSTORE POP PUSH1 0x0 PUSH1 0x3 PUSH1 0x0 DUP5 DUP2 MSTORE PUSH1 0x20 ADD SWAP1 DUP2 MSTORE PUSH1 0x20 ADD PUSH1 0x0 KECCAK256 DUP2 SWAP1 SSTORE POP TIMESTAMP PUSH1 0x4 PUSH1 0x0 DUP5 DUP2 MSTORE PUSH1 0x20 ADD SWAP1 DUP2 MSTORE PUSH1 0x20 ADD PUSH1 0x0 KECCAK256 DUP2 SWAP1 SSTORE POP DUP1 PUSH1 0x7 PUSH1 0x0 DUP5 DUP2 MSTORE PUSH1 0x20 ADD SWAP1 DUP2 MSTORE PUSH1 0x20 ADD PUSH1 0x0 KECCAK256 DUP2 SWAP1 SSTORE POP CALLER PUSH1 0x6 PUSH1 0x0 DUP5 DUP2 MSTORE PUSH1 0x20 ADD SWAP1 DUP2 MSTORE PUSH1 0x20 ADD PUSH1 0x0 KECCAK256 PUSH1 0x0 PUSH2 0x100 EXP DUP2 SLOAD DUP2 PUSH20 0xFFFFFFFFFFFFFFFFFFFFFFFFFFFFFFFFFFFFFFFF MUL NOT AND SWAP1 DUP4 PUSH20 0xFFFFFFFFFFFFFFFFFFFFFFFFFFFFFFFFFFFFFFFF AND MUL OR SWAP1 SSTORE POP CALLVALUE CALLER PUSH20 0xFFFFFFFFFFFFFFFFFFFFFFFFFFFFFFFFFFFFFFFF AND DUP4 PUSH32 0xD26AB04488EC637D788718439A7FB88013E8272C2AB9D9014CB0865365B054B3 PUSH1 0x40 MLOAD PUSH1 0x40 MLOAD DUP1 SWAP2 SUB SWAP1 LOG4 POP POP JUMP JUMPDEST PUSH2 0xD14 DUP2 DUP4 PUSH2 0xDB4 JUMP JUMPDEST DUP1 PUSH20 0xFFFFFFFFFFFFFFFFFFFFFFFFFFFFFFFFFFFFFFFF AND DUP3 PUSH32 0xD2032FB81EABFE1B02214BFE4EFDB18DE55AF16F375EF664A2AFCBC30FFDE624 PUSH1 0x40 MLOAD PUSH1 0x40 MLOAD DUP1 SWAP2 SUB SWAP1 LOG3 POP POP JUMP JUMPDEST PUSH1 0x0 DUP1 SLOAD PUSH1 0x4 PUSH1 0x0 DUP5 DUP2 MSTORE PUSH1 0x20 ADD SWAP1 DUP2 MSTORE PUSH1 0x20 ADD PUSH1 0x0 KECCAK256 SLOAD PUSH2 0xD7E SWAP2 SWAP1 PUSH2 0x189F JUMP JUMPDEST TIMESTAMP LT SWAP1 POP SWAP2 SWAP1 POP JUMP JUMPDEST PUSH1 0x60 PUSH2 0xDAC DUP4 DUP4 PUSH1 0x40 MLOAD DUP1 PUSH1 0x60 ADD PUSH1 0x40 MSTORE DUP1 PUSH1 0x27 DUP2 MSTORE PUSH1 0x20 ADD PUSH2 0x1D01 PUSH1 0x27 SWAP2 CODECOPY PUSH2 0xF16 JUMP JUMPDEST SWAP1 POP SWAP3 SWAP2 POP POP JUMP JUMPDEST PUSH1 0x0 PUSH20 0xFFFFFFFFFFFFFFFFFFFFFFFFFFFFFFFFFFFFFFFF AND PUSH1 0x9 PUSH1 0x0 DUP4 DUP2 MSTORE PUSH1 0x20 ADD SWAP1 DUP2 MSTORE PUSH1 0x20 ADD PUSH1 0x0 KECCAK256 PUSH1 0x0 SWAP1 SLOAD SWAP1 PUSH2 0x100 EXP SWAP1 DIV PUSH20 0xFFFFFFFFFFFFFFFFFFFFFFFFFFFFFFFFFFFFFFFF AND PUSH20 0xFFFFFFFFFFFFFFFFFFFFFFFFFFFFFFFFFFFFFFFF AND EQ PUSH2 0xE6E JUMPI PUSH2 0xE6C DUP2 PUSH1 0x8 PUSH1 0x0 DUP6 PUSH20 0xFFFFFFFFFFFFFFFFFFFFFFFFFFFFFFFFFFFFFFFF AND PUSH20 0xFFFFFFFFFFFFFFFFFFFFFFFFFFFFFFFFFFFFFFFF AND DUP2 MSTORE PUSH1 0x20 ADD SWAP1 DUP2 MSTORE PUSH1 0x20 ADD PUSH1 0x0 KECCAK256 PUSH2 0xF9C SWAP1 SWAP2 SWAP1 PUSH4 0xFFFFFFFF AND JUMP JUMPDEST POP JUMPDEST PUSH2 0xEBF DUP2 PUSH1 0x8 PUSH1 0x0 DUP6 PUSH20 0xFFFFFFFFFFFFFFFFFFFFFFFFFFFFFFFFFFFFFFFF AND PUSH20 0xFFFFFFFFFFFFFFFFFFFFFFFFFFFFFFFFFFFFFFFF AND DUP2 MSTORE PUSH1 0x20 ADD SWAP1 DUP2 MSTORE PUSH1 0x20 ADD PUSH1 0x0 KECCAK256 PUSH2 0xFB3 SWAP1 SWAP2 SWAP1 PUSH4 0xFFFFFFFF AND JUMP JUMPDEST POP DUP2 PUSH1 0x9 PUSH1 0x0 DUP4 DUP2 MSTORE PUSH1 0x20 ADD SWAP1 DUP2 MSTORE PUSH1 0x20 ADD PUSH1 0x0 KECCAK256 PUSH1 0x0 PUSH2 0x100 EXP DUP2 SLOAD DUP2 PUSH20 0xFFFFFFFFFFFFFFFFFFFFFFFFFFFFFFFFFFFFFFFF MUL NOT AND SWAP1 DUP4 PUSH20 0xFFFFFFFFFFFFFFFFFFFFFFFFFFFFFFFFFFFFFFFF AND MUL OR SWAP1 SSTORE POP POP POP JUMP JUMPDEST PUSH1 0x60 PUSH1 0x0 DUP1 DUP6 PUSH20 0xFFFFFFFFFFFFFFFFFFFFFFFFFFFFFFFFFFFFFFFF AND DUP6 PUSH1 0x40 MLOAD PUSH2 0xF40 SWAP2 SWAP1 PUSH2 0x1BB4 JUMP JUMPDEST PUSH1 0x0 PUSH1 0x40 MLOAD DUP1 DUP4 SUB DUP2 DUP6 GAS DELEGATECALL SWAP2 POP POP RETURNDATASIZE DUP1 PUSH1 0x0 DUP2 EQ PUSH2 0xF7B JUMPI PUSH1 0x40 MLOAD SWAP2 POP PUSH1 0x1F NOT PUSH1 0x3F RETURNDATASIZE ADD AND DUP3 ADD PUSH1 0x40 MSTORE RETURNDATASIZE DUP3 MSTORE RETURNDATASIZE PUSH1 0x0 PUSH1 0x20 DUP5 ADD RETURNDATACOPY PUSH2 0xF80 JUMP JUMPDEST PUSH1 0x60 SWAP2 POP JUMPDEST POP SWAP2 POP SWAP2 POP PUSH2 0xF91 DUP7 DUP4 DUP4 DUP8 PUSH2 0xFCA JUMP JUMPDEST SWAP3 POP POP POP SWAP4 SWAP3 POP POP POP JUMP JUMPDEST PUSH1 0x0 PUSH2 0xFAB DUP4 PUSH1 0x0 ADD DUP4 PUSH2 0x1040 JUMP JUMPDEST SWAP1 POP SWAP3 SWAP2 POP POP JUMP JUMPDEST PUSH1 0x0 PUSH2 0xFC2 DUP4 PUSH1 0x0 ADD DUP4 PUSH2 0x1154 JUMP JUMPDEST SWAP1 POP SWAP3 SWAP2 POP POP JUMP JUMPDEST PUSH1 0x60 DUP4 ISZERO PUSH2 0x102D JUMPI PUSH1 0x0 DUP4 MLOAD EQ ISZERO PUSH2 0x1025 JUMPI PUSH2 0xFE5 DUP6 PUSH2 0x11C4 JUMP JUMPDEST PUSH2 0x1024 JUMPI PUSH1 0x40 MLOAD PUSH32 0x8C379A000000000000000000000000000000000000000000000000000000000 DUP2 MSTORE PUSH1 0x4 ADD PUSH2 0x101B SWAP1 PUSH2 0x1C17 JUMP JUMPDEST PUSH1 0x40 MLOAD DUP1 SWAP2 SUB SWAP1 REVERT JUMPDEST JUMPDEST DUP3 SWAP1 POP PUSH2 0x1038 JUMP JUMPDEST PUSH2 0x1037 DUP4 DUP4 PUSH2 0x11E7 JUMP JUMPDEST JUMPDEST SWAP5 SWAP4 POP POP POP POP JUMP JUMPDEST PUSH1 0x0 DUP1 DUP4 PUSH1 0x1 ADD PUSH1 0x0 DUP5 DUP2 MSTORE PUSH1 0x20 ADD SWAP1 DUP2 MSTORE PUSH1 0x20 ADD PUSH1 0x0 KECCAK256 SLOAD SWAP1 POP PUSH1 0x0 DUP2 EQ PUSH2 0x1148 JUMPI PUSH1 0x0 PUSH1 0x1 DUP3 PUSH2 0x1072 SWAP2 SWAP1 PUSH2 0x1C37 JUMP JUMPDEST SWAP1 POP PUSH1 0x0 PUSH1 0x1 DUP7 PUSH1 0x0 ADD DUP1 SLOAD SWAP1 POP PUSH2 0x108A SWAP2 SWAP1 PUSH2 0x1C37 JUMP JUMPDEST SWAP1 POP DUP2 DUP2 EQ PUSH2 0x10F9 JUMPI PUSH1 0x0 DUP7 PUSH1 0x0 ADD DUP3 DUP2 SLOAD DUP2 LT PUSH2 0x10AB JUMPI PUSH2 0x10AA PUSH2 0x1990 JUMP JUMPDEST JUMPDEST SWAP1 PUSH1 0x0 MSTORE PUSH1 0x20 PUSH1 0x0 KECCAK256 ADD SLOAD SWAP1 POP DUP1 DUP8 PUSH1 0x0 ADD DUP5 DUP2 SLOAD DUP2 LT PUSH2 0x10CF JUMPI PUSH2 0x10CE PUSH2 0x1990 JUMP JUMPDEST JUMPDEST SWAP1 PUSH1 0x0 MSTORE PUSH1 0x20 PUSH1 0x0 KECCAK256 ADD DUP2 SWAP1 SSTORE POP DUP4 DUP8 PUSH1 0x1 ADD PUSH1 0x0 DUP4 DUP2 MSTORE PUSH1 0x20 ADD SWAP1 DUP2 MSTORE PUSH1 0x20 ADD PUSH1 0x0 KECCAK256 DUP2 SWAP1 SSTORE POP POP JUMPDEST DUP6 PUSH1 0x0 ADD DUP1 SLOAD DUP1 PUSH2 0x110D JUMPI PUSH2 0x110C PUSH2 0x1C6B JUMP JUMPDEST JUMPDEST PUSH1 0x1 SWAP1 SUB DUP2 DUP2 SWAP1 PUSH1 0x0 MSTORE PUSH1 0x20 PUSH1 0x0 KECCAK256 ADD PUSH1 0x0 SWAP1 SSTORE SWAP1 SSTORE DUP6 PUSH1 0x1 ADD PUSH1 0x0 DUP7 DUP2 MSTORE PUSH1 0x20 ADD SWAP1 DUP2 MSTORE PUSH1 0x20 ADD PUSH1 0x0 KECCAK256 PUSH1 0x0 SWAP1 SSTORE PUSH1 0x1 SWAP4 POP POP POP POP PUSH2 0x114E JUMP JUMPDEST PUSH1 0x0 SWAP2 POP POP JUMPDEST SWAP3 SWAP2 POP POP JUMP JUMPDEST PUSH1 0x0 PUSH2 0x1160 DUP4 DUP4 PUSH2 0x1237 JUMP JUMPDEST PUSH2 0x11B9 JUMPI DUP3 PUSH1 0x0 ADD DUP3 SWAP1 DUP1 PUSH1 0x1 DUP2 SLOAD ADD DUP1 DUP3 SSTORE DUP1 SWAP2 POP POP PUSH1 0x1 SWAP1 SUB SWAP1 PUSH1 0x0 MSTORE PUSH1 0x20 PUSH1 0x0 KECCAK256 ADD PUSH1 0x0 SWAP1 SWAP2 SWAP1 SWAP2 SWAP1 SWAP2 POP SSTORE DUP3 PUSH1 0x0 ADD DUP1 SLOAD SWAP1 POP DUP4 PUSH1 0x1 ADD PUSH1 0x0 DUP5 DUP2 MSTORE PUSH1 0x20 ADD SWAP1 DUP2 MSTORE PUSH1 0x20 ADD PUSH1 0x0 KECCAK256 DUP2 SWAP1 SSTORE POP PUSH1 0x1 SWAP1 POP PUSH2 0x11BE JUMP JUMPDEST PUSH1 0x0 SWAP1 POP JUMPDEST SWAP3 SWAP2 POP POP JUMP JUMPDEST PUSH1 0x0 DUP1 DUP3 PUSH20 0xFFFFFFFFFFFFFFFFFFFFFFFFFFFFFFFFFFFFFFFF AND EXTCODESIZE GT SWAP1 POP SWAP2 SWAP1 POP JUMP JUMPDEST PUSH1 0x0 DUP3 MLOAD GT ISZERO PUSH2 0x11FA JUMPI DUP2 MLOAD DUP1 DUP4 PUSH1 0x20 ADD REVERT JUMPDEST DUP1 PUSH1 0x40 MLOAD PUSH32 0x8C379A000000000000000000000000000000000000000000000000000000000 DUP2 MSTORE PUSH1 0x4 ADD PUSH2 0x122E SWAP2 SWAP1 PUSH2 0x1CDE JUMP JUMPDEST PUSH1 0x40 MLOAD DUP1 SWAP2 SUB SWAP1 REVERT JUMPDEST PUSH1 0x0 DUP1 DUP4 PUSH1 0x1 ADD PUSH1 0x0 DUP5 DUP2 MSTORE PUSH1 0x20 ADD SWAP1 DUP2 MSTORE PUSH1 0x20 ADD PUSH1 0x0 KECCAK256 SLOAD EQ ISZERO SWAP1 POP SWAP3 SWAP2 POP POP JUMP JUMPDEST PUSH1 0x0 DUP2 SWAP1 POP SWAP2 SWAP1 POP JUMP JUMPDEST PUSH2 0x126D DUP2 PUSH2 0x125A JUMP JUMPDEST DUP3 MSTORE POP POP JUMP JUMPDEST PUSH1 0x0 PUSH1 0x20 DUP3 ADD SWAP1 POP PUSH2 0x1288 PUSH1 0x0 DUP4 ADD DUP5 PUSH2 0x1264 JUMP JUMPDEST SWAP3 SWAP2 POP POP JUMP JUMPDEST PUSH1 0x0 DUP1 REVERT JUMPDEST PUSH1 0x0 DUP1 REVERT JUMPDEST PUSH1 0x0 DUP2 SWAP1 POP SWAP2 SWAP1 POP JUMP JUMPDEST PUSH2 0x12AB DUP2 PUSH2 0x1298 JUMP JUMPDEST DUP2 EQ PUSH2 0x12B6 JUMPI PUSH1 0x0 DUP1 REVERT JUMPDEST POP JUMP JUMPDEST PUSH1 0x0 DUP2 CALLDATALOAD SWAP1 POP PUSH2 0x12C8 DUP2 PUSH2 0x12A2 JUMP JUMPDEST SWAP3 SWAP2 POP POP JUMP JUMPDEST PUSH1 0x0 PUSH1 0x20 DUP3 DUP5 SUB SLT ISZERO PUSH2 0x12E4 JUMPI PUSH2 0x12E3 PUSH2 0x128E JUMP JUMPDEST JUMPDEST PUSH1 0x0 PUSH2 0x12F2 DUP5 DUP3 DUP6 ADD PUSH2 0x12B9 JUMP JUMPDEST SWAP2 POP POP SWAP3 SWAP2 POP POP JUMP JUMPDEST PUSH2 0x1304 DUP2 PUSH2 0x125A JUMP JUMPDEST DUP2 EQ PUSH2 0x130F JUMPI PUSH1 0x0 DUP1 REVERT JUMPDEST POP JUMP JUMPDEST PUSH1 0x0 DUP2 CALLDATALOAD SWAP1 POP PUSH2 0x1321 DUP2 PUSH2 0x12FB JUMP JUMPDEST SWAP3 SWAP2 POP POP JUMP JUMPDEST PUSH1 0x0 PUSH1 0x20 DUP3 DUP5 SUB SLT ISZERO PUSH2 0x133D JUMPI PUSH2 0x133C PUSH2 0x128E JUMP JUMPDEST JUMPDEST PUSH1 0x0 PUSH2 0x134B DUP5 DUP3 DUP6 ADD PUSH2 0x1312 JUMP JUMPDEST SWAP2 POP POP SWAP3 SWAP2 POP POP JUMP JUMPDEST PUSH1 0x0 PUSH20 0xFFFFFFFFFFFFFFFFFFFFFFFFFFFFFFFFFFFFFFFF DUP3 AND SWAP1 POP SWAP2 SWAP1 POP JUMP JUMPDEST PUSH1 0x0 PUSH2 0x137F DUP3 PUSH2 0x1354 JUMP JUMPDEST SWAP1 POP SWAP2 SWAP1 POP JUMP JUMPDEST PUSH2 0x138F DUP2 PUSH2 0x1374 JUMP JUMPDEST DUP3 MSTORE POP POP JUMP JUMPDEST PUSH1 0x0 PUSH1 0x20 DUP3 ADD SWAP1 POP PUSH2 0x13AA PUSH1 0x0 DUP4 ADD DUP5 PUSH2 0x1386 JUMP JUMPDEST SWAP3 SWAP2 POP POP JUMP JUMPDEST PUSH2 0x13B9 DUP2 PUSH2 0x1298 JUMP JUMPDEST DUP3 MSTORE POP POP JUMP JUMPDEST PUSH1 0x0 PUSH1 0x20 DUP3 ADD SWAP1 POP PUSH2 0x13D4 PUSH1 0x0 DUP4 ADD DUP5 PUSH2 0x13B0 JUMP JUMPDEST SWAP3 SWAP2 POP POP JUMP JUMPDEST PUSH1 0x0 DUP1 REVERT JUMPDEST PUSH1 0x0 DUP1 REVERT JUMPDEST PUSH1 0x0 DUP1 REVERT JUMPDEST PUSH1 0x0 DUP1 DUP4 PUSH1 0x1F DUP5 ADD SLT PUSH2 0x13FF JUMPI PUSH2 0x13FE PUSH2 0x13DA JUMP JUMPDEST JUMPDEST DUP3 CALLDATALOAD SWAP1 POP PUSH8 0xFFFFFFFFFFFFFFFF DUP2 GT ISZERO PUSH2 0x141C JUMPI PUSH2 0x141B PUSH2 0x13DF JUMP JUMPDEST JUMPDEST PUSH1 0x20 DUP4 ADD SWAP2 POP DUP4 PUSH1 0x20 DUP3 MUL DUP4 ADD GT ISZERO PUSH2 0x1438 JUMPI PUSH2 0x1437 PUSH2 0x13E4 JUMP JUMPDEST JUMPDEST SWAP3 POP SWAP3 SWAP1 POP JUMP JUMPDEST PUSH1 0x0 DUP1 PUSH1 0x20 DUP4 DUP6 SUB SLT ISZERO PUSH2 0x1456 JUMPI PUSH2 0x1455 PUSH2 0x128E JUMP JUMPDEST JUMPDEST PUSH1 0x0 DUP4 ADD CALLDATALOAD PUSH8 0xFFFFFFFFFFFFFFFF DUP2 GT ISZERO PUSH2 0x1474 JUMPI PUSH2 0x1473 PUSH2 0x1293 JUMP JUMPDEST JUMPDEST PUSH2 0x1480 DUP6 DUP3 DUP7 ADD PUSH2 0x13E9 JUMP JUMPDEST SWAP3 POP SWAP3 POP POP SWAP3 POP SWAP3 SWAP1 POP JUMP JUMPDEST PUSH1 0x0 DUP2 MLOAD SWAP1 POP SWAP2 SWAP1 POP JUMP JUMPDEST PUSH1 0x0 DUP3 DUP3 MSTORE PUSH1 0x20 DUP3 ADD SWAP1 POP SWAP3 SWAP2 POP POP JUMP JUMPDEST PUSH1 0x0 DUP2 SWAP1 POP PUSH1 0x20 DUP3 ADD SWAP1 POP SWAP2 SWAP1 POP JUMP JUMPDEST PUSH1 0x0 DUP2 MLOAD SWAP1 POP SWAP2 SWAP1 POP JUMP JUMPDEST PUSH1 0x0 DUP3 DUP3 MSTORE PUSH1 0x20 DUP3 ADD SWAP1 POP SWAP3 SWAP2 POP POP JUMP JUMPDEST PUSH1 0x0 JUMPDEST DUP4 DUP2 LT ISZERO PUSH2 0x14F2 JUMPI DUP1 DUP3 ADD MLOAD DUP2 DUP5 ADD MSTORE PUSH1 0x20 DUP2 ADD SWAP1 POP PUSH2 0x14D7 JUMP JUMPDEST DUP4 DUP2 GT ISZERO PUSH2 0x1501 JUMPI PUSH1 0x0 DUP5 DUP5 ADD MSTORE JUMPDEST POP POP POP POP JUMP JUMPDEST PUSH1 0x0 PUSH1 0x1F NOT PUSH1 0x1F DUP4 ADD AND SWAP1 POP SWAP2 SWAP1 POP JUMP JUMPDEST PUSH1 0x0 PUSH2 0x1523 DUP3 PUSH2 0x14B8 JUMP JUMPDEST PUSH2 0x152D DUP2 DUP6 PUSH2 0x14C3 JUMP JUMPDEST SWAP4 POP PUSH2 0x153D DUP2 DUP6 PUSH1 0x20 DUP7 ADD PUSH2 0x14D4 JUMP JUMPDEST PUSH2 0x1546 DUP2 PUSH2 0x1507 JUMP JUMPDEST DUP5 ADD SWAP2 POP POP SWAP3 SWAP2 POP POP JUMP JUMPDEST PUSH1 0x0 PUSH2 0x155D DUP4 DUP4 PUSH2 0x1518 JUMP JUMPDEST SWAP1 POP SWAP3 SWAP2 POP POP JUMP JUMPDEST PUSH1 0x0 PUSH1 0x20 DUP3 ADD SWAP1 POP SWAP2 SWAP1 POP JUMP JUMPDEST PUSH1 0x0 PUSH2 0x157D DUP3 PUSH2 0x148C JUMP JUMPDEST PUSH2 0x1587 DUP2 DUP6 PUSH2 0x1497 JUMP JUMPDEST SWAP4 POP DUP4 PUSH1 0x20 DUP3 MUL DUP6 ADD PUSH2 0x1599 DUP6 PUSH2 0x14A8 JUMP JUMPDEST DUP1 PUSH1 0x0 JUMPDEST DUP6 DUP2 LT ISZERO PUSH2 0x15D5 JUMPI DUP5 DUP5 SUB DUP10 MSTORE DUP2 MLOAD PUSH2 0x15B6 DUP6 DUP3 PUSH2 0x1551 JUMP JUMPDEST SWAP5 POP PUSH2 0x15C1 DUP4 PUSH2 0x1565 JUMP JUMPDEST SWAP3 POP PUSH1 0x20 DUP11 ADD SWAP10 POP POP PUSH1 0x1 DUP2 ADD SWAP1 POP PUSH2 0x159D JUMP JUMPDEST POP DUP3 SWAP8 POP DUP8 SWAP6 POP POP POP POP POP POP SWAP3 SWAP2 POP POP JUMP JUMPDEST PUSH1 0x0 PUSH1 0x20 DUP3 ADD SWAP1 POP DUP2 DUP2 SUB PUSH1 0x0 DUP4 ADD MSTORE PUSH2 0x1601 DUP2 DUP5 PUSH2 0x1572 JUMP JUMPDEST SWAP1 POP SWAP3 SWAP2 POP POP JUMP JUMPDEST PUSH1 0x0 DUP1 PUSH1 0x40 DUP4 DUP6 SUB SLT ISZERO PUSH2 0x1620 JUMPI PUSH2 0x161F PUSH2 0x128E JUMP JUMPDEST JUMPDEST PUSH1 0x0 PUSH2 0x162E DUP6 DUP3 DUP7 ADD PUSH2 0x12B9 JUMP JUMPDEST SWAP3 POP POP PUSH1 0x20 PUSH2 0x163F DUP6 DUP3 DUP7 ADD PUSH2 0x1312 JUMP JUMPDEST SWAP2 POP POP SWAP3 POP SWAP3 SWAP1 POP JUMP JUMPDEST PUSH1 0x0 DUP1 PUSH1 0x40 DUP4 DUP6 SUB SLT ISZERO PUSH2 0x1660 JUMPI PUSH2 0x165F PUSH2 0x128E JUMP JUMPDEST JUMPDEST PUSH1 0x0 PUSH2 0x166E DUP6 DUP3 DUP7 ADD PUSH2 0x12B9 JUMP JUMPDEST SWAP3 POP POP PUSH1 0x20 PUSH2 0x167F DUP6 DUP3 DUP7 ADD PUSH2 0x12B9 JUMP JUMPDEST SWAP2 POP POP SWAP3 POP SWAP3 SWAP1 POP JUMP JUMPDEST PUSH2 0x1692 DUP2 PUSH2 0x1374 JUMP JUMPDEST DUP2 EQ PUSH2 0x169D JUMPI PUSH1 0x0 DUP1 REVERT JUMPDEST POP JUMP JUMPDEST PUSH1 0x0 DUP2 CALLDATALOAD SWAP1 POP PUSH2 0x16AF DUP2 PUSH2 0x1689 JUMP JUMPDEST SWAP3 SWAP2 POP POP JUMP JUMPDEST PUSH1 0x0 DUP1 PUSH1 0x40 DUP4 DUP6 SUB SLT ISZERO PUSH2 0x16CC JUMPI PUSH2 0x16CB PUSH2 0x128E JUMP JUMPDEST JUMPDEST PUSH1 0x0 PUSH2 0x16DA DUP6 DUP3 DUP7 ADD PUSH2 0x12B9 JUMP JUMPDEST SWAP3 POP POP PUSH1 0x20 PUSH2 0x16EB DUP6 DUP3 DUP7 ADD PUSH2 0x16A0 JUMP JUMPDEST SWAP2 POP POP SWAP3 POP SWAP3 SWAP1 POP JUMP JUMPDEST PUSH1 0x0 DUP3 DUP3 MSTORE PUSH1 0x20 DUP3 ADD SWAP1 POP SWAP3 SWAP2 POP POP JUMP JUMPDEST PUSH32 0x566F74696E672069732061637469766500000000000000000000000000000000 PUSH1 0x0 DUP3 ADD MSTORE POP JUMP JUMPDEST PUSH1 0x0 PUSH2 0x173C PUSH1 0x10 DUP4 PUSH2 0x16F5 JUMP JUMPDEST SWAP2 POP PUSH2 0x1747 DUP3 PUSH2 0x1706 JUMP JUMPDEST PUSH1 0x20 DUP3 ADD SWAP1 POP SWAP2 SWAP1 POP JUMP JUMPDEST PUSH1 0x0 PUSH1 0x20 DUP3 ADD SWAP1 POP DUP2 DUP2 SUB PUSH1 0x0 DUP4 ADD MSTORE PUSH2 0x176B DUP2 PUSH2 0x172F JUMP JUMPDEST SWAP1 POP SWAP2 SWAP1 POP JUMP JUMPDEST PUSH32 0x70617065724F776E6572206C6F737420746865206368616C6C656E6765000000 PUSH1 0x0 DUP3 ADD MSTORE POP JUMP JUMPDEST PUSH1 0x0 PUSH2 0x17A8 PUSH1 0x1D DUP4 PUSH2 0x16F5 JUMP JUMPDEST SWAP2 POP PUSH2 0x17B3 DUP3 PUSH2 0x1772 JUMP JUMPDEST PUSH1 0x20 DUP3 ADD SWAP1 POP SWAP2 SWAP1 POP JUMP JUMPDEST PUSH1 0x0 PUSH1 0x20 DUP3 ADD SWAP1 POP DUP2 DUP2 SUB PUSH1 0x0 DUP4 ADD MSTORE PUSH2 0x17D7 DUP2 PUSH2 0x179B JUMP JUMPDEST SWAP1 POP SWAP2 SWAP1 POP JUMP JUMPDEST PUSH32 0x566F74696E67206973206E6F742061637469766520666F722074686973207061 PUSH1 0x0 DUP3 ADD MSTORE PUSH32 0x7065720000000000000000000000000000000000000000000000000000000000 PUSH1 0x20 DUP3 ADD MSTORE POP JUMP JUMPDEST PUSH1 0x0 PUSH2 0x183A PUSH1 0x23 DUP4 PUSH2 0x16F5 JUMP JUMPDEST SWAP2 POP PUSH2 0x1845 DUP3 PUSH2 0x17DE JUMP JUMPDEST PUSH1 0x40 DUP3 ADD SWAP1 POP SWAP2 SWAP1 POP JUMP JUMPDEST PUSH1 0x0 PUSH1 0x20 DUP3 ADD SWAP1 POP DUP2 DUP2 SUB PUSH1 0x0 DUP4 ADD MSTORE PUSH2 0x1869 DUP2 PUSH2 0x182D JUMP JUMPDEST SWAP1 POP SWAP2 SWAP1 POP JUMP JUMPDEST PUSH32 0x4E487B7100000000000000000000000000000000000000000000000000000000 PUSH1 0x0 MSTORE PUSH1 0x11 PUSH1 0x4 MSTORE PUSH1 0x24 PUSH1 0x0 REVERT JUMPDEST PUSH1 0x0 PUSH2 0x18AA DUP3 PUSH2 0x125A JUMP JUMPDEST SWAP2 POP PUSH2 0x18B5 DUP4 PUSH2 0x125A JUMP JUMPDEST SWAP3 POP DUP3 PUSH32 0xFFFFFFFFFFFFFFFFFFFFFFFFFFFFFFFFFFFFFFFFFFFFFFFFFFFFFFFFFFFFFFFF SUB DUP3 GT ISZERO PUSH2 0x18EA JUMPI PUSH2 0x18E9 PUSH2 0x1870 JUMP JUMPDEST JUMPDEST DUP3 DUP3 ADD SWAP1 POP SWAP3 SWAP2 POP POP JUMP JUMPDEST PUSH32 0x6368616C6C656E676572206C6F737420746865206368616C6C656E6765000000 PUSH1 0x0 DUP3 ADD MSTORE POP JUMP JUMPDEST PUSH1 0x0 PUSH2 0x192B PUSH1 0x1D DUP4 PUSH2 0x16F5 JUMP JUMPDEST SWAP2 POP PUSH2 0x1936 DUP3 PUSH2 0x18F5 JUMP JUMPDEST PUSH1 0x20 DUP3 ADD SWAP1 POP SWAP2 SWAP1 POP JUMP JUMPDEST PUSH1 0x0 PUSH1 0x20 DUP3 ADD SWAP1 POP DUP2 DUP2 SUB PUSH1 0x0 DUP4 ADD MSTORE PUSH2 0x195A DUP2 PUSH2 0x191E JUMP JUMPDEST SWAP1 POP SWAP2 SWAP1 POP JUMP JUMPDEST PUSH32 0x4E487B7100000000000000000000000000000000000000000000000000000000 PUSH1 0x0 MSTORE PUSH1 0x41 PUSH1 0x4 MSTORE PUSH1 0x24 PUSH1 0x0 REVERT JUMPDEST PUSH32 0x4E487B7100000000000000000000000000000000000000000000000000000000 PUSH1 0x0 MSTORE PUSH1 0x32 PUSH1 0x4 MSTORE PUSH1 0x24 PUSH1 0x0 REVERT JUMPDEST PUSH1 0x0 DUP1 REVERT JUMPDEST PUSH1 0x0 DUP1 REVERT JUMPDEST PUSH1 0x0 DUP1 REVERT JUMPDEST PUSH1 0x0 DUP1 DUP4 CALLDATALOAD PUSH1 0x1 PUSH1 0x20 SUB DUP5 CALLDATASIZE SUB SUB DUP2 SLT PUSH2 0x19EB JUMPI PUSH2 0x19EA PUSH2 0x19BF JUMP JUMPDEST JUMPDEST DUP1 DUP5 ADD SWAP3 POP DUP3 CALLDATALOAD SWAP2 POP PUSH8 0xFFFFFFFFFFFFFFFF DUP3 GT ISZERO PUSH2 0x1A0D JUMPI PUSH2 0x1A0C PUSH2 0x19C4 JUMP JUMPDEST JUMPDEST PUSH1 0x20 DUP4 ADD SWAP3 POP PUSH1 0x1 DUP3 MUL CALLDATASIZE SUB DUP4 SGT ISZERO PUSH2 0x1A29 JUMPI PUSH2 0x1A28 PUSH2 0x19C9 JUMP JUMPDEST JUMPDEST POP SWAP3 POP SWAP3 SWAP1 POP JUMP JUMPDEST PUSH1 0x0 PUSH2 0x1A3C DUP3 PUSH2 0x125A JUMP JUMPDEST SWAP2 POP PUSH32 0xFFFFFFFFFFFFFFFFFFFFFFFFFFFFFFFFFFFFFFFFFFFFFFFFFFFFFFFFFFFFFFFF DUP3 EQ ISZERO PUSH2 0x1A6F JUMPI PUSH2 0x1A6E PUSH2 0x1870 JUMP JUMPDEST JUMPDEST PUSH1 0x1 DUP3 ADD SWAP1 POP SWAP2 SWAP1 POP JUMP JUMPDEST PUSH32 0x496E73756666696369656E7420616D6F756E7420666F72206465747261637400 PUSH1 0x0 DUP3 ADD MSTORE POP JUMP JUMPDEST PUSH1 0x0 PUSH2 0x1AB0 PUSH1 0x1F DUP4 PUSH2 0x16F5 JUMP JUMPDEST SWAP2 POP PUSH2 0x1ABB DUP3 PUSH2 0x1A7A JUMP JUMPDEST PUSH1 0x20 DUP3 ADD SWAP1 POP SWAP2 SWAP1 POP JUMP JUMPDEST PUSH1 0x0 PUSH1 0x20 DUP3 ADD SWAP1 POP DUP2 DUP2 SUB PUSH1 0x0 DUP4 ADD MSTORE PUSH2 0x1ADF DUP2 PUSH2 0x1AA3 JUMP JUMPDEST SWAP1 POP SWAP2 SWAP1 POP JUMP JUMPDEST PUSH32 0x566F74696E6720697320616C72656164792061637469766520666F7220746869 PUSH1 0x0 DUP3 ADD MSTORE PUSH32 0x7320706170657200000000000000000000000000000000000000000000000000 PUSH1 0x20 DUP3 ADD MSTORE POP JUMP JUMPDEST PUSH1 0x0 PUSH2 0x1B42 PUSH1 0x27 DUP4 PUSH2 0x16F5 JUMP JUMPDEST SWAP2 POP PUSH2 0x1B4D DUP3 PUSH2 0x1AE6 JUMP JUMPDEST PUSH1 0x40 DUP3 ADD SWAP1 POP SWAP2 SWAP1 POP JUMP JUMPDEST PUSH1 0x0 PUSH1 0x20 DUP3 ADD SWAP1 POP DUP2 DUP2 SUB PUSH1 0x0 DUP4 ADD MSTORE PUSH2 0x1B71 DUP2 PUSH2 0x1B35 JUMP JUMPDEST SWAP1 POP SWAP2 SWAP1 POP JUMP JUMPDEST PUSH1 0x0 DUP2 SWAP1 POP SWAP3 SWAP2 POP POP JUMP JUMPDEST PUSH1 0x0 PUSH2 0x1B8E DUP3 PUSH2 0x14B8 JUMP JUMPDEST PUSH2 0x1B98 DUP2 DUP6 PUSH2 0x1B78 JUMP JUMPDEST SWAP4 POP PUSH2 0x1BA8 DUP2 DUP6 PUSH1 0x20 DUP7 ADD PUSH2 0x14D4 JUMP JUMPDEST DUP1 DUP5 ADD SWAP2 POP POP SWAP3 SWAP2 POP POP JUMP JUMPDEST PUSH1 0x0 PUSH2 0x1BC0 DUP3 DUP5 PUSH2 0x1B83 JUMP JUMPDEST SWAP2 POP DUP2 SWAP1 POP SWAP3 SWAP2 POP POP JUMP JUMPDEST PUSH32 0x416464726573733A2063616C6C20746F206E6F6E2D636F6E7472616374000000 PUSH1 0x0 DUP3 ADD MSTORE POP JUMP JUMPDEST PUSH1 0x0 PUSH2 0x1C01 PUSH1 0x1D DUP4 PUSH2 0x16F5 JUMP JUMPDEST SWAP2 POP PUSH2 0x1C0C DUP3 PUSH2 0x1BCB JUMP JUMPDEST PUSH1 0x20 DUP3 ADD SWAP1 POP SWAP2 SWAP1 POP JUMP JUMPDEST PUSH1 0x0 PUSH1 0x20 DUP3 ADD SWAP1 POP DUP2 DUP2 SUB PUSH1 0x0 DUP4 ADD MSTORE PUSH2 0x1C30 DUP2 PUSH2 0x1BF4 JUMP JUMPDEST SWAP1 POP SWAP2 SWAP1 POP JUMP JUMPDEST PUSH1 0x0 PUSH2 0x1C42 DUP3 PUSH2 0x125A JUMP JUMPDEST SWAP2 POP PUSH2 0x1C4D DUP4 PUSH2 0x125A JUMP JUMPDEST SWAP3 POP DUP3 DUP3 LT ISZERO PUSH2 0x1C60 JUMPI PUSH2 0x1C5F PUSH2 0x1870 JUMP JUMPDEST JUMPDEST DUP3 DUP3 SUB SWAP1 POP SWAP3 SWAP2 POP POP JUMP JUMPDEST PUSH32 0x4E487B7100000000000000000000000000000000000000000000000000000000 PUSH1 0x0 MSTORE PUSH1 0x31 PUSH1 0x4 MSTORE PUSH1 0x24 PUSH1 0x0 REVERT JUMPDEST PUSH1 0x0 DUP2 MLOAD SWAP1 POP SWAP2 SWAP1 POP JUMP JUMPDEST PUSH1 0x0 PUSH2 0x1CB0 DUP3 PUSH2 0x1C9A JUMP JUMPDEST PUSH2 0x1CBA DUP2 DUP6 PUSH2 0x16F5 JUMP JUMPDEST SWAP4 POP PUSH2 0x1CCA DUP2 DUP6 PUSH1 0x20 DUP7 ADD PUSH2 0x14D4 JUMP JUMPDEST PUSH2 0x1CD3 DUP2 PUSH2 0x1507 JUMP JUMPDEST DUP5 ADD SWAP2 POP POP SWAP3 SWAP2 POP POP JUMP JUMPDEST PUSH1 0x0 PUSH1 0x20 DUP3 ADD SWAP1 POP DUP2 DUP2 SUB PUSH1 0x0 DUP4 ADD MSTORE PUSH2 0x1CF8 DUP2 DUP5 PUSH2 0x1CA5 JUMP JUMPDEST SWAP1 POP SWAP3 SWAP2 POP POP JUMP INVALID COINBASE PUSH5 0x6472657373 GASPRICE KECCAK256 PUSH13 0x6F772D6C6576656C2064656C65 PUSH8 0x6174652063616C6C KECCAK256 PUSH7 0x61696C6564A264 PUSH10 0x70667358221220EDCEFF 0xFB 0xCF ISZERO 0xE1 0x2E PUSH14 0x74B905C31E8E544AF51375494143 0xE2 EXP DUP13 0x2A 0x5D GASPRICE 0xD5 MSTORE 0x2C PUSH5 0x736F6C6343 STOP ADDMOD MULMOD STOP CALLER "},"methodIdentifiers":{"_updateDetractStakeAmountOfPaper(bytes32,uint256)":"c1282f6f","challengeInitiationTime(bytes32)":"07d42ac5","challengePaper(bytes32,bytes32)":"d81c8e6d","challenger(bytes32)":"caa27fa4","changeMinimumStakingAmountForDetract(uint256)":"ab290ccc","changeVotingPeriod(uint256)":"5832cf59","claimAmountByChallenger(bytes32)":"98542b04","claimAmountByPaperOwner(bytes32)":"3b1c4751","downVote(bytes32)":"9348c30d","downVoteCount(bytes32)":"bdfd1730","minStakingAmountForDetract()":"56f96380","multicall(bytes[])":"ac9650d8","paperOwner(bytes32)":"89c61c15","paperRetractionEvidence(bytes32)":"9f0faef7","publishPaper(bytes32,address)":"ea909d92","retractionStakeAmount(bytes32)":"2ed4ef56","upVote(bytes32)":"66c112fc","upVoteCount(bytes32)":"a32a12de","votingPeriod()":"02a251a3"}}}}}