{
  "_format": "hh-sol-artifact-1",
  "contractName": "Detract",
  "sourceName": "src/contracts/Detract.sol",
  "abi": [
    {
      "anonymous": false,
      "inputs": [
        {
          "indexed": true,
          "internalType": "bytes32",
          "name": "paperHash",
          "type": "bytes32"
        },
        {
          "indexed": true,
          "internalType": "address",
          "name": "challenger",
          "type": "address"
        },
        {
          "indexed": false,
          "internalType": "string",
          "name": "paper",
          "type": "string"
        },
        {
          "indexed": false,
          "internalType": "string",
          "name": "evidence",
          "type": "string"
        }
      ],
      "name": "ChallengeCreated",
      "type": "event"
    },
    {
      "anonymous": false,
      "inputs": [
        {
          "indexed": true,
          "internalType": "bytes32",
          "name": "paperHash",
          "type": "bytes32"
        },
        {
          "indexed": false,
          "internalType": "string",
          "name": "paper",
          "type": "string"
        },
        {
          "indexed": true,
          "internalType": "address",
          "name": "challenger",
          "type": "address"
        },
        {
          "indexed": false,
          "internalType": "uint256",
          "name": "amount",
          "type": "uint256"
        }
      ],
      "name": "ClaimedByChallenger",
      "type": "event"
    },
    {
      "anonymous": false,
      "inputs": [
        {
          "indexed": true,
          "internalType": "bytes32",
          "name": "paperHash",
          "type": "bytes32"
        },
        {
          "indexed": false,
          "internalType": "string",
          "name": "paper",
          "type": "string"
        },
        {
          "indexed": true,
          "internalType": "address",
          "name": "paperOwner",
          "type": "address"
        },
        {
          "indexed": false,
          "internalType": "uint256",
          "name": "amount",
          "type": "uint256"
        }
      ],
      "name": "ClaimedByPaperOwner",
      "type": "event"
    },
    {
      "anonymous": false,
      "inputs": [
        {
          "indexed": true,
          "internalType": "bytes32",
          "name": "paperHash",
          "type": "bytes32"
        },
        {
          "indexed": false,
          "internalType": "string",
          "name": "paper",
          "type": "string"
        },
        {
          "indexed": true,
          "internalType": "address",
          "name": "voter",
          "type": "address"
        }
      ],
      "name": "DownVoted",
      "type": "event"
    },
    {
      "anonymous": false,
      "inputs": [
        {
          "indexed": true,
          "internalType": "bytes32",
          "name": "paperHash",
          "type": "bytes32"
        },
        {
          "indexed": false,
          "internalType": "string",
          "name": "paper",
          "type": "string"
        },
        {
          "indexed": true,
          "internalType": "address",
          "name": "owner",
          "type": "address"
        }
      ],
      "name": "PaperPublished",
      "type": "event"
    },
    {
      "anonymous": false,
      "inputs": [
        {
          "indexed": true,
          "internalType": "bytes32",
          "name": "paperHash",
          "type": "bytes32"
        },
        {
          "indexed": false,
          "internalType": "string",
          "name": "paper",
          "type": "string"
        },
        {
          "indexed": true,
          "internalType": "address",
          "name": "voter",
          "type": "address"
        }
      ],
      "name": "UpVoted",
      "type": "event"
    },
    {
      "inputs": [
        {
          "internalType": "bytes32",
          "name": "_paperHash",
          "type": "bytes32"
        },
        {
          "internalType": "uint256",
          "name": "_amount",
          "type": "uint256"
        }
      ],
      "name": "_updateDetractStakeAmountOfPaper",
      "outputs": [],
      "stateMutability": "nonpayable",
      "type": "function"
    },
    {
      "inputs": [
        {
          "internalType": "bytes32",
          "name": "",
          "type": "bytes32"
        }
      ],
      "name": "challengeInitiationTime",
      "outputs": [
        {
          "internalType": "uint256",
          "name": "",
          "type": "uint256"
        }
      ],
      "stateMutability": "view",
      "type": "function"
    },
    {
      "inputs": [
        {
          "internalType": "string",
          "name": "_paper",
          "type": "string"
        },
        {
          "internalType": "string",
          "name": "_evidence",
          "type": "string"
        }
      ],
      "name": "challengePaper",
      "outputs": [],
      "stateMutability": "payable",
      "type": "function"
    },
    {
      "inputs": [
        {
          "internalType": "bytes32",
          "name": "",
          "type": "bytes32"
        }
      ],
      "name": "challenger",
      "outputs": [
        {
          "internalType": "address",
          "name": "",
          "type": "address"
        }
      ],
      "stateMutability": "view",
      "type": "function"
    },
    {
      "inputs": [
        {
          "internalType": "uint256",
          "name": "_amount",
          "type": "uint256"
        }
      ],
      "name": "changeMinimumStakingAmountForDetract",
      "outputs": [],
      "stateMutability": "nonpayable",
      "type": "function"
    },
    {
      "inputs": [
        {
          "internalType": "uint256",
          "name": "_time",
          "type": "uint256"
        }
      ],
      "name": "changeVotingPeriod",
      "outputs": [],
      "stateMutability": "nonpayable",
      "type": "function"
    },
    {
      "inputs": [
        {
          "internalType": "string",
          "name": "_paper",
          "type": "string"
        }
      ],
      "name": "claimAmountByChallenger",
      "outputs": [],
      "stateMutability": "nonpayable",
      "type": "function"
    },
    {
      "inputs": [
        {
          "internalType": "string",
          "name": "_paper",
          "type": "string"
        }
      ],
      "name": "claimAmountByPaperOwner",
      "outputs": [],
      "stateMutability": "nonpayable",
      "type": "function"
    },
    {
      "inputs": [
        {
          "internalType": "string",
          "name": "_paper",
          "type": "string"
        }
      ],
      "name": "downVote",
      "outputs": [],
      "stateMutability": "nonpayable",
      "type": "function"
    },
    {
      "inputs": [
        {
          "internalType": "bytes32",
          "name": "",
          "type": "bytes32"
        }
      ],
      "name": "downVoteCount",
      "outputs": [
        {
          "internalType": "uint256",
          "name": "",
          "type": "uint256"
        }
      ],
      "stateMutability": "view",
      "type": "function"
    },
    {
      "inputs": [
        {
          "internalType": "string",
          "name": "_paper",
          "type": "string"
        }
      ],
      "name": "findHash",
      "outputs": [
        {
          "internalType": "bytes32",
          "name": "",
          "type": "bytes32"
        }
      ],
      "stateMutability": "pure",
      "type": "function"
    },
    {
      "inputs": [
        {
          "internalType": "address",
          "name": "",
          "type": "address"
        },
        {
          "internalType": "bytes32",
          "name": "",
          "type": "bytes32"
        }
      ],
      "name": "hasVoted",
      "outputs": [
        {
          "internalType": "bool",
          "name": "",
          "type": "bool"
        }
      ],
      "stateMutability": "view",
      "type": "function"
    },
    {
      "inputs": [],
      "name": "minStakingAmountForDetract",
      "outputs": [
        {
          "internalType": "uint256",
          "name": "",
          "type": "uint256"
        }
      ],
      "stateMutability": "view",
      "type": "function"
    },
    {
      "inputs": [
        {
          "internalType": "bytes[]",
          "name": "data",
          "type": "bytes[]"
        }
      ],
      "name": "multicall",
      "outputs": [
        {
          "internalType": "bytes[]",
          "name": "results",
          "type": "bytes[]"
        }
      ],
      "stateMutability": "nonpayable",
      "type": "function"
    },
    {
      "inputs": [
        {
          "internalType": "bytes32",
          "name": "",
          "type": "bytes32"
        }
      ],
      "name": "paperOwner",
      "outputs": [
        {
          "internalType": "address",
          "name": "",
          "type": "address"
        }
      ],
      "stateMutability": "view",
      "type": "function"
    },
    {
      "inputs": [
        {
          "internalType": "bytes32",
          "name": "",
          "type": "bytes32"
        }
      ],
      "name": "paperRetractionEvidence",
      "outputs": [
        {
          "internalType": "bytes32",
          "name": "",
          "type": "bytes32"
        }
      ],
      "stateMutability": "view",
      "type": "function"
    },
    {
      "inputs": [
        {
          "internalType": "string",
          "name": "_paper",
          "type": "string"
        },
        {
          "internalType": "address",
          "name": "_owner",
          "type": "address"
        }
      ],
      "name": "publishPaper",
      "outputs": [],
      "stateMutability": "nonpayable",
      "type": "function"
    },
    {
      "inputs": [
        {
          "internalType": "bytes32",
          "name": "",
          "type": "bytes32"
        }
      ],
      "name": "retractionStakeAmount",
      "outputs": [
        {
          "internalType": "uint256",
          "name": "",
          "type": "uint256"
        }
      ],
      "stateMutability": "view",
      "type": "function"
    },
    {
      "inputs": [
        {
          "internalType": "string",
          "name": "_paper",
          "type": "string"
        }
      ],
      "name": "upVote",
      "outputs": [],
      "stateMutability": "nonpayable",
      "type": "function"
    },
    {
      "inputs": [
        {
          "internalType": "bytes32",
          "name": "",
          "type": "bytes32"
        }
      ],
      "name": "upVoteCount",
      "outputs": [
        {
          "internalType": "uint256",
          "name": "",
          "type": "uint256"
        }
      ],
      "stateMutability": "view",
      "type": "function"
    },
    {
      "inputs": [],
      "name": "votingPeriod",
      "outputs": [
        {
          "internalType": "uint256",
          "name": "",
          "type": "uint256"
        }
      ],
      "stateMutability": "view",
      "type": "function"
    },
    {
      "stateMutability": "payable",
      "type": "receive"
    }
  ],
  "bytecode": "0x608060405262093a80600055655af3107a400060015534801561002157600080fd5b506123fb806100316000396000f3fe60806040526004361061012e5760003560e01c80639f0faef7116100ab578063bdfd17301161006f578063bdfd173014610445578063c1282f6f14610482578063caa27fa4146104ab578063d0c02e34146104e8578063d378942514610511578063f0b06e191461053a57610135565b80639f0faef71461033c578063a1d9def214610379578063a32a12de146103a2578063ab290ccc146103df578063ac9650d81461040857610135565b80634af52b82116100f25780634af52b821461024557806356f963801461026e5780635832cf591461029957806370c75107146102c257806389c61c15146102ff57610135565b806302a251a31461013a57806307d42ac5146101655780632ed4ef56146101a2578063462ff503146101df5780634a1dc5cc1461020857610135565b3661013557005b600080fd5b34801561014657600080fd5b5061014f610556565b60405161015c9190611620565b60405180910390f35b34801561017157600080fd5b5061018c60048036038101906101879190611685565b61055c565b6040516101999190611620565b60405180910390f35b3480156101ae57600080fd5b506101c960048036038101906101c49190611685565b610574565b6040516101d69190611620565b60405180910390f35b3480156101eb57600080fd5b50610206600480360381019061020191906117f8565b61058c565b005b34801561021457600080fd5b5061022f600480360381019061022a919061189f565b61077c565b60405161023c91906118fa565b60405180910390f35b34801561025157600080fd5b5061026c600480360381019061026791906117f8565b6107ab565b005b34801561027a57600080fd5b5061028361095e565b6040516102909190611620565b60405180910390f35b3480156102a557600080fd5b506102c060048036038101906102bb9190611941565b610964565b005b3480156102ce57600080fd5b506102e960048036038101906102e491906117f8565b61096e565b6040516102f6919061197d565b60405180910390f35b34801561030b57600080fd5b5061032660048036038101906103219190611685565b61097f565b60405161033391906119a7565b60405180910390f35b34801561034857600080fd5b50610363600480360381019061035e9190611685565b6109b2565b604051610370919061197d565b60405180910390f35b34801561038557600080fd5b506103a0600480360381019061039b91906117f8565b6109ca565b005b3480156103ae57600080fd5b506103c960048036038101906103c49190611685565b610bba565b6040516103d69190611620565b60405180910390f35b3480156103eb57600080fd5b5061040660048036038101906104019190611941565b610bd2565b005b34801561041457600080fd5b5061042f600480360381019061042a9190611a22565b610bdc565b60405161043c9190611bb9565b60405180910390f35b34801561045157600080fd5b5061046c60048036038101906104679190611685565b610ce8565b6040516104799190611620565b60405180910390f35b34801561048e57600080fd5b506104a960048036038101906104a49190611bdb565b610d00565b005b3480156104b757600080fd5b506104d260048036038101906104cd9190611685565b610d2e565b6040516104df91906119a7565b60405180910390f35b3480156104f457600080fd5b5061050f600480360381019061050a9190611c1b565b610d61565b005b34801561051d57600080fd5b50610538600480360381019061053391906117f8565b610dcc565b005b610554600480360381019061054f9190611c77565b610f4c565b005b60005481565b60046020528060005260406000206000915090505481565b60056020528060005260406000206000915090505481565b8060006105988261096e565b90506105a381611109565b6105e2576040517f08c379a00000000000000000000000000000000000000000000000000000000081526004016105d990611d72565b60405180910390fd5b60006105ed8461096e565b905060001515600a60003373ffffffffffffffffffffffffffffffffffffffff1673ffffffffffffffffffffffffffffffffffffffff168152602001908152602001600020600083815260200190815260200160002060009054906101000a900460ff16151514610693576040517f08c379a000000000000000000000000000000000000000000000000000000000815260040161068a90611dde565b60405180910390fd5b60016003600083815260200190815260200160002060008282546106b79190611e2d565b925050819055506001600a60003373ffffffffffffffffffffffffffffffffffffffff1673ffffffffffffffffffffffffffffffffffffffff168152602001908152602001600020600083815260200190815260200160002060006101000a81548160ff0219169083151502179055503373ffffffffffffffffffffffffffffffffffffffff16817f533b4c2990041cd275bed3ee33cdfd1b7ba16ff9044e47eb5c32941c42edcc5f8660405161076e9190611ec7565b60405180910390a350505050565b600a6020528160005260406000206020528060005260406000206000915091509054906101000a900460ff1681565b60006107b68261096e565b90506107c181611109565b15610801576040517f08c379a00000000000000000000000000000000000000000000000000000000081526004016107f890611f35565b60405180910390fd5b6003600082815260200190815260200160002054600260008381526020019081526020016000205411610869576040517f08c379a000000000000000000000000000000000000000000000000000000000815260040161086090611fa1565b60405180910390fd5b6009600082815260200190815260200160002060009054906101000a900473ffffffffffffffffffffffffffffffffffffffff1673ffffffffffffffffffffffffffffffffffffffff166108fc60056000848152602001908152602001600020549081150290604051600060405180830381858888f193505050501580156108f5573d6000803e3d6000fd5b503373ffffffffffffffffffffffffffffffffffffffff16817fe0bd93081a2223553839da4882ac08967b04afaa6abd815ffc6560f14fae41d1846005600086815260200190815260200160002054604051610952929190611fc1565b60405180910390a35050565b60015481565b8060008190555050565b600081805190602001209050919050565b60096020528060005260406000206000915054906101000a900473ffffffffffffffffffffffffffffffffffffffff1681565b60076020528060005260406000206000915090505481565b8060006109d68261096e565b90506109e181611109565b610a20576040517f08c379a0000000000000000000000000000000000000000000000000000000008152600401610a1790611d72565b60405180910390fd5b6000610a2b8461096e565b905060001515600a60003373ffffffffffffffffffffffffffffffffffffffff1673ffffffffffffffffffffffffffffffffffffffff168152602001908152602001600020600083815260200190815260200160002060009054906101000a900460ff16151514610ad1576040517f08c379a0000000000000000000000000000000000000000000000000000000008152600401610ac890611dde565b60405180910390fd5b6001600260008381526020019081526020016000206000828254610af59190611e2d565b925050819055506001600a60003373ffffffffffffffffffffffffffffffffffffffff1673ffffffffffffffffffffffffffffffffffffffff168152602001908152602001600020600083815260200190815260200160002060006101000a81548160ff0219169083151502179055503373ffffffffffffffffffffffffffffffffffffffff16817f3ea5f2a226e0159295f69f59b56f26de193156910598d0e317ff311ecfa80c8086604051610bac9190611ec7565b60405180910390a350505050565b60026020528060005260406000206000915090505481565b8060018190555050565b60608282905067ffffffffffffffff811115610bfb57610bfa6116cd565b5b604051908082528060200260200182016040528015610c2e57816020015b6060815260200190600190039081610c195790505b50905060005b83839050811015610ce157610cb030858584818110610c5657610c55611ff1565b5b9050602002810190610c68919061202f565b8080601f016020809104026020016040519081016040528093929190818152602001838380828437600081840152601f19601f82011690508083019250505050505050611134565b828281518110610cc357610cc2611ff1565b5b60200260200101819052508080610cd990612092565b915050610c34565b5092915050565b60036020528060005260406000206000915090505481565b80600560008481526020019081526020016000206000828254610d239190611e2d565b925050819055505050565b60066020528060005260406000206000915054906101000a900473ffffffffffffffffffffffffffffffffffffffff1681565b6000610d6c8361096e565b9050610d788282611161565b8173ffffffffffffffffffffffffffffffffffffffff16817fafc0d080d560e04d73db43f6c0b407b0cd0cabc44c97a51bc4c4d138ccda5c4e85604051610dbf9190611ec7565b60405180910390a3505050565b6000610dd78261096e565b9050610de281611109565b15610e22576040517f08c379a0000000000000000000000000000000000000000000000000000000008152600401610e1990611f35565b60405180910390fd5b6002600082815260200190815260200160002054600360008381526020019081526020016000205411610e8a576040517f08c379a0000000000000000000000000000000000000000000000000000000008152600401610e8190612127565b60405180910390fd5b3373ffffffffffffffffffffffffffffffffffffffff166108fc60056000848152602001908152602001600020549081150290604051600060405180830381858888f19350505050158015610ee3573d6000803e3d6000fd5b503373ffffffffffffffffffffffffffffffffffffffff16817fcf860b8786f419011558c827147b20baf6603dd17575e00fbac36c96904d5c06846005600086815260200190815260200160002054604051610f40929190611fc1565b60405180910390a35050565b6000610f578361096e565b90506000610f648361096e565b9050600154341015610fab576040517f08c379a0000000000000000000000000000000000000000000000000000000008152600401610fa290612193565b60405180910390fd5b610fb482611109565b15610ff4576040517f08c379a0000000000000000000000000000000000000000000000000000000008152600401610feb90612225565b60405180910390fd5b610ffe8234610d00565b6000600260008481526020019081526020016000208190555060006003600084815260200190815260200160002081905550426004600084815260200190815260200160002081905550806007600084815260200190815260200160002081905550336006600084815260200190815260200160002060006101000a81548173ffffffffffffffffffffffffffffffffffffffff021916908373ffffffffffffffffffffffffffffffffffffffff1602179055503373ffffffffffffffffffffffffffffffffffffffff16827f426e07d1ed054f635e9fcc0ef96ddf8adc3677671c4be16e8dfdd24c06acd56c86866040516110fb929190612245565b60405180910390a350505050565b60008054600460008481526020019081526020016000205461112b9190611e2d565b42109050919050565b6060611159838360405180606001604052806027815260200161239f602791396112c3565b905092915050565b600073ffffffffffffffffffffffffffffffffffffffff166009600083815260200190815260200160002060009054906101000a900473ffffffffffffffffffffffffffffffffffffffff1673ffffffffffffffffffffffffffffffffffffffff161461121b5761121981600860008573ffffffffffffffffffffffffffffffffffffffff1673ffffffffffffffffffffffffffffffffffffffff16815260200190815260200160002061134990919063ffffffff16565b505b61126c81600860008573ffffffffffffffffffffffffffffffffffffffff1673ffffffffffffffffffffffffffffffffffffffff16815260200190815260200160002061136090919063ffffffff16565b50816009600083815260200190815260200160002060006101000a81548173ffffffffffffffffffffffffffffffffffffffff021916908373ffffffffffffffffffffffffffffffffffffffff1602179055505050565b60606000808573ffffffffffffffffffffffffffffffffffffffff16856040516112ed91906122b8565b600060405180830381855af49150503d8060008114611328576040519150601f19603f3d011682016040523d82523d6000602084013e61132d565b606091505b509150915061133e86838387611377565b925050509392505050565b600061135883600001836113ed565b905092915050565b600061136f8360000183611501565b905092915050565b606083156113da576000835114156113d25761139285611571565b6113d1576040517f08c379a00000000000000000000000000000000000000000000000000000000081526004016113c89061231b565b60405180910390fd5b5b8290506113e5565b6113e48383611594565b5b949350505050565b600080836001016000848152602001908152602001600020549050600081146114f557600060018261141f919061233b565b9050600060018660000180549050611437919061233b565b90508181146114a657600086600001828154811061145857611457611ff1565b5b906000526020600020015490508087600001848154811061147c5761147b611ff1565b5b90600052602060002001819055508387600101600083815260200190815260200160002081905550505b856000018054806114ba576114b961236f565b5b6001900381819060005260206000200160009055905585600101600086815260200190815260200160002060009055600193505050506114fb565b60009150505b92915050565b600061150d83836115e4565b61156657826000018290806001815401808255809150506001900390600052602060002001600090919091909150558260000180549050836001016000848152602001908152602001600020819055506001905061156b565b600090505b92915050565b6000808273ffffffffffffffffffffffffffffffffffffffff163b119050919050565b6000825111156115a75781518083602001fd5b806040517f08c379a00000000000000000000000000000000000000000000000000000000081526004016115db9190611ec7565b60405180910390fd5b600080836001016000848152602001908152602001600020541415905092915050565b6000819050919050565b61161a81611607565b82525050565b60006020820190506116356000830184611611565b92915050565b6000604051905090565b600080fd5b600080fd5b6000819050919050565b6116628161164f565b811461166d57600080fd5b50565b60008135905061167f81611659565b92915050565b60006020828403121561169b5761169a611645565b5b60006116a984828501611670565b91505092915050565b600080fd5b600080fd5b6000601f19601f8301169050919050565b7f4e487b7100000000000000000000000000000000000000000000000000000000600052604160045260246000fd5b611705826116bc565b810181811067ffffffffffffffff82111715611724576117236116cd565b5b80604052505050565b600061173761163b565b905061174382826116fc565b919050565b600067ffffffffffffffff821115611763576117626116cd565b5b61176c826116bc565b9050602081019050919050565b82818337600083830152505050565b600061179b61179684611748565b61172d565b9050828152602081018484840111156117b7576117b66116b7565b5b6117c2848285611779565b509392505050565b600082601f8301126117df576117de6116b2565b5b81356117ef848260208601611788565b91505092915050565b60006020828403121561180e5761180d611645565b5b600082013567ffffffffffffffff81111561182c5761182b61164a565b5b611838848285016117ca565b91505092915050565b600073ffffffffffffffffffffffffffffffffffffffff82169050919050565b600061186c82611841565b9050919050565b61187c81611861565b811461188757600080fd5b50565b60008135905061189981611873565b92915050565b600080604083850312156118b6576118b5611645565b5b60006118c48582860161188a565b92505060206118d585828601611670565b9150509250929050565b60008115159050919050565b6118f4816118df565b82525050565b600060208201905061190f60008301846118eb565b92915050565b61191e81611607565b811461192957600080fd5b50565b60008135905061193b81611915565b92915050565b60006020828403121561195757611956611645565b5b60006119658482850161192c565b91505092915050565b6119778161164f565b82525050565b6000602082019050611992600083018461196e565b92915050565b6119a181611861565b82525050565b60006020820190506119bc6000830184611998565b92915050565b600080fd5b600080fd5b60008083601f8401126119e2576119e16116b2565b5b8235905067ffffffffffffffff8111156119ff576119fe6119c2565b5b602083019150836020820283011115611a1b57611a1a6119c7565b5b9250929050565b60008060208385031215611a3957611a38611645565b5b600083013567ffffffffffffffff811115611a5757611a5661164a565b5b611a63858286016119cc565b92509250509250929050565b600081519050919050565b600082825260208201905092915050565b6000819050602082019050919050565b600081519050919050565b600082825260208201905092915050565b60005b83811015611ad5578082015181840152602081019050611aba565b83811115611ae4576000848401525b50505050565b6000611af582611a9b565b611aff8185611aa6565b9350611b0f818560208601611ab7565b611b18816116bc565b840191505092915050565b6000611b2f8383611aea565b905092915050565b6000602082019050919050565b6000611b4f82611a6f565b611b598185611a7a565b935083602082028501611b6b85611a8b565b8060005b85811015611ba75784840389528151611b888582611b23565b9450611b9383611b37565b925060208a01995050600181019050611b6f565b50829750879550505050505092915050565b60006020820190508181036000830152611bd38184611b44565b905092915050565b60008060408385031215611bf257611bf1611645565b5b6000611c0085828601611670565b9250506020611c118582860161192c565b9150509250929050565b60008060408385031215611c3257611c31611645565b5b600083013567ffffffffffffffff811115611c5057611c4f61164a565b5b611c5c858286016117ca565b9250506020611c6d8582860161188a565b9150509250929050565b60008060408385031215611c8e57611c8d611645565b5b600083013567ffffffffffffffff811115611cac57611cab61164a565b5b611cb8858286016117ca565b925050602083013567ffffffffffffffff811115611cd957611cd861164a565b5b611ce5858286016117ca565b9150509250929050565b600082825260208201905092915050565b7f566f74696e67206973206e6f742061637469766520666f72207468697320706160008201527f7065720000000000000000000000000000000000000000000000000000000000602082015250565b6000611d5c602383611cef565b9150611d6782611d00565b604082019050919050565b60006020820190508181036000830152611d8b81611d4f565b9050919050565b7f416c726561647920766f74656400000000000000000000000000000000000000600082015250565b6000611dc8600d83611cef565b9150611dd382611d92565b602082019050919050565b60006020820190508181036000830152611df781611dbb565b9050919050565b7f4e487b7100000000000000000000000000000000000000000000000000000000600052601160045260246000fd5b6000611e3882611607565b9150611e4383611607565b9250827fffffffffffffffffffffffffffffffffffffffffffffffffffffffffffffffff03821115611e7857611e77611dfe565b5b828201905092915050565b600081519050919050565b6000611e9982611e83565b611ea38185611cef565b9350611eb3818560208601611ab7565b611ebc816116bc565b840191505092915050565b60006020820190508181036000830152611ee18184611e8e565b905092915050565b7f566f74696e672069732061637469766500000000000000000000000000000000600082015250565b6000611f1f601083611cef565b9150611f2a82611ee9565b602082019050919050565b60006020820190508181036000830152611f4e81611f12565b9050919050565b7f6368616c6c656e676572206c6f737420746865206368616c6c656e6765000000600082015250565b6000611f8b601d83611cef565b9150611f9682611f55565b602082019050919050565b60006020820190508181036000830152611fba81611f7e565b9050919050565b60006040820190508181036000830152611fdb8185611e8e565b9050611fea6020830184611611565b9392505050565b7f4e487b7100000000000000000000000000000000000000000000000000000000600052603260045260246000fd5b600080fd5b600080fd5b600080fd5b6000808335600160200384360303811261204c5761204b612020565b5b80840192508235915067ffffffffffffffff82111561206e5761206d612025565b5b60208301925060018202360383131561208a5761208961202a565b5b509250929050565b600061209d82611607565b91507fffffffffffffffffffffffffffffffffffffffffffffffffffffffffffffffff8214156120d0576120cf611dfe565b5b600182019050919050565b7f70617065724f776e6572206c6f737420746865206368616c6c656e6765000000600082015250565b6000612111601d83611cef565b915061211c826120db565b602082019050919050565b6000602082019050818103600083015261214081612104565b9050919050565b7f496e73756666696369656e7420616d6f756e7420666f72206465747261637400600082015250565b600061217d601f83611cef565b915061218882612147565b602082019050919050565b600060208201905081810360008301526121ac81612170565b9050919050565b7f566f74696e6720697320616c72656164792061637469766520666f722074686960008201527f7320706170657200000000000000000000000000000000000000000000000000602082015250565b600061220f602783611cef565b915061221a826121b3565b604082019050919050565b6000602082019050818103600083015261223e81612202565b9050919050565b6000604082019050818103600083015261225f8185611e8e565b905081810360208301526122738184611e8e565b90509392505050565b600081905092915050565b600061229282611a9b565b61229c818561227c565b93506122ac818560208601611ab7565b80840191505092915050565b60006122c48284612287565b915081905092915050565b7f416464726573733a2063616c6c20746f206e6f6e2d636f6e7472616374000000600082015250565b6000612305601d83611cef565b9150612310826122cf565b602082019050919050565b60006020820190508181036000830152612334816122f8565b9050919050565b600061234682611607565b915061235183611607565b92508282101561236457612363611dfe565b5b828203905092915050565b7f4e487b7100000000000000000000000000000000000000000000000000000000600052603160045260246000fdfe416464726573733a206c6f772d6c6576656c2064656c65676174652063616c6c206661696c6564a26469706673582212206e711e7a734270269d9ada436a327237dfe863a903f9d0db2e85279c94460e9d64736f6c63430008090033",
  "linkReferences": {},
  "deployedLinkReferences": {}
}